{
  "_format": "hh-sol-artifact-1",
  "contractName": "RevertCollectModule",
  "sourceName": "contracts/core/modules/collect/RevertCollectModule.sol",
  "abi": [
    {
      "inputs": [],
      "name": "CollectNotAllowed",
      "type": "error"
    },
    {
      "inputs": [
        {
          "internalType": "uint256",
          "name": "profileId",
          "type": "uint256"
        },
        {
          "internalType": "uint256",
          "name": "pubId",
          "type": "uint256"
        },
        {
          "internalType": "bytes",
          "name": "data",
          "type": "bytes"
        }
      ],
      "name": "initializePublicationCollectModule",
      "outputs": [
        {
          "internalType": "bytes",
          "name": "",
          "type": "bytes"
        }
      ],
      "stateMutability": "pure",
      "type": "function"
    },
    {
      "inputs": [
        {
          "internalType": "uint256",
          "name": "referrerProfileId",
          "type": "uint256"
        },
        {
          "internalType": "address",
          "name": "collector",
          "type": "address"
        },
        {
          "internalType": "uint256",
          "name": "profileId",
          "type": "uint256"
        },
        {
          "internalType": "uint256",
          "name": "pubId",
          "type": "uint256"
        },
        {
          "internalType": "bytes",
          "name": "data",
          "type": "bytes"
        }
      ],
      "name": "processCollect",
      "outputs": [],
      "stateMutability": "pure",
      "type": "function"
    }
  ],
  "bytecode": "0x608060405234801561001057600080fd5b5061024a806100206000396000f3fe608060405234801561001057600080fd5b50600436106100365760003560e01c8063c233f9511461003b578063e49c3dda14610076575b600080fd5b6100606100493660046100ed565b505060408051600081526020810190915292915050565b60405161006d9190610140565b60405180910390f35b610089610084366004610195565b61008b565b005b60405163ad4cf0a360e01b815260040160405180910390fd5b60008083601f8401126100b657600080fd5b50813567ffffffffffffffff8111156100ce57600080fd5b6020830191508360208285010111156100e657600080fd5b9250929050565b6000806000806060858703121561010357600080fd5b8435935060208501359250604085013567ffffffffffffffff81111561012857600080fd5b610134878288016100a4565b95989497509550505050565b600060208083528351808285015260005b8181101561016d57858101830151858201604001528201610151565b8181111561017f576000604083870101525b50601f01601f1916929092016040019392505050565b60008060008060008060a087890312156101ae57600080fd5b8635955060208701356001600160a01b03811681146101cc57600080fd5b94506040870135935060608701359250608087013567ffffffffffffffff8111156101f657600080fd5b61020289828a016100a4565b979a969950949750929593949250505056fea2646970667358221220527a5f725bc47f34f343ee355dc741eee3a619cf2cfa859b375769cee8bd3b9c64736f6c634300080a0033",
  "linkReferences": {},
  "deployedLinkReferences": {}
}