{
  "_format": "hh-sol-artifact-1",
  "contractName": "TimedFeeCollectModule",
  "sourceName": "contracts/core/modules/collect/TimedFeeCollectModule.sol",
  "abi": [
    {
      "inputs": [
        {
          "internalType": "address",
          "name": "hub",
          "type": "address"
        },
        {
          "internalType": "address",
          "name": "moduleGlobals",
          "type": "address"
        }
      ],
      "stateMutability": "nonpayable",
      "type": "constructor"
    },
    {
      "inputs": [],
      "name": "CollectExpired",
      "type": "error"
    },
    {
      "inputs": [],
      "name": "FollowInvalid",
      "type": "error"
    },
    {
      "inputs": [],
      "name": "InitParamsInvalid",
      "type": "error"
    },
    {
      "inputs": [],
      "name": "ModuleDataMismatch",
      "type": "error"
    },
    {
      "inputs": [],
      "name": "NotHub",
      "type": "error"
    },
    {
      "inputs": [],
      "name": "HUB",
      "outputs": [
        {
          "internalType": "address",
          "name": "",
          "type": "address"
        }
      ],
      "stateMutability": "view",
      "type": "function"
    },
    {
      "inputs": [],
      "name": "MODULE_GLOBALS",
      "outputs": [
        {
          "internalType": "address",
          "name": "",
          "type": "address"
        }
      ],
      "stateMutability": "view",
      "type": "function"
    },
    {
      "inputs": [
        {
          "internalType": "uint256",
          "name": "profileId",
          "type": "uint256"
        },
        {
          "internalType": "uint256",
          "name": "pubId",
          "type": "uint256"
        }
      ],
      "name": "getPublicationData",
      "outputs": [
        {
          "components": [
            {
              "internalType": "uint256",
              "name": "amount",
              "type": "uint256"
            },
            {
              "internalType": "address",
              "name": "currency",
              "type": "address"
            },
            {
              "internalType": "address",
              "name": "recipient",
              "type": "address"
            },
            {
              "internalType": "uint16",
              "name": "referralFee",
              "type": "uint16"
            },
            {
              "internalType": "bool",
              "name": "followerOnly",
              "type": "bool"
            },
            {
              "internalType": "uint40",
              "name": "endTimestamp",
              "type": "uint40"
            }
          ],
          "internalType": "struct ProfilePublicationData",
          "name": "",
          "type": "tuple"
        }
      ],
      "stateMutability": "view",
      "type": "function"
    },
    {
      "inputs": [
        {
          "internalType": "uint256",
          "name": "profileId",
          "type": "uint256"
        },
        {
          "internalType": "uint256",
          "name": "pubId",
          "type": "uint256"
        },
        {
          "internalType": "bytes",
          "name": "data",
          "type": "bytes"
        }
      ],
      "name": "initializePublicationCollectModule",
      "outputs": [
        {
          "internalType": "bytes",
          "name": "",
          "type": "bytes"
        }
      ],
      "stateMutability": "nonpayable",
      "type": "function"
    },
    {
      "inputs": [
        {
          "internalType": "uint256",
          "name": "referrerProfileId",
          "type": "uint256"
        },
        {
          "internalType": "address",
          "name": "collector",
          "type": "address"
        },
        {
          "internalType": "uint256",
          "name": "profileId",
          "type": "uint256"
        },
        {
          "internalType": "uint256",
          "name": "pubId",
          "type": "uint256"
        },
        {
          "internalType": "bytes",
          "name": "data",
          "type": "bytes"
        }
      ],
      "name": "processCollect",
      "outputs": [],
      "stateMutability": "nonpayable",
      "type": "function"
    }
  ],
  "bytecode": "0x60c060405234801561001057600080fd5b5060405162001502380380620015028339810160408190526100319161012a565b81816001600160a01b03811661005a576040516348be0eb360e01b815260040160405180910390fd5b6001600160a01b03811660808190526040514281527f4e84a529f4c627b5e787037d117873af1018768804cca3c7f0d47041fe2c89ed9060200160405180910390a2506001600160a01b0381166100c4576040516348be0eb360e01b815260040160405180910390fd5b6001600160a01b03811660a08190526040514281527ff1a1fa6b64aa95186f5a1285e76198d0da80d9c5a88062641d447f1d7c54e56c9060200160405180910390a250505061015d565b80516001600160a01b038116811461012557600080fd5b919050565b6000806040838503121561013d57600080fd5b6101468361010e565b91506101546020840161010e565b90509250929050565b60805160a051611347620001bb600039600081816101cc01528181610230015281816104e901528181610684015281816107a2015281816108b00152610b2801526000818161018d015281816105f80152610c6b01526113476000f3fe608060405234801561001057600080fd5b50600436106100575760003560e01c80633f5038921461005c57806388ffe85114610188578063a4c52b86146101c7578063c233f951146101ee578063e49c3dda1461020e575b600080fd5b61012161006a366004610f94565b6040805160c081018252600080825260208201819052918101829052606081018290526080810182905260a08101919091525060009182526020828152604080842092845291815291819020815160c0810183528154815260018201546001600160a01b039081169482019490945260029091015492831691810191909152600160a01b820461ffff166060820152600160b01b820460ff1615156080820152600160b81b90910464ffffffffff1660a082015290565b60408051825181526020808401516001600160a01b039081169183019190915283830151169181019190915260608083015161ffff169082015260808083015115159082015260a09182015164ffffffffff169181019190915260c0015b60405180910390f35b6101af7f000000000000000000000000000000000000000000000000000000000000000081565b6040516001600160a01b03909116815260200161017f565b6101af7f000000000000000000000000000000000000000000000000000000000000000081565b6102016101fc366004610fff565b610223565b60405161017f91906110aa565b61022161021c3660046110d5565b6104de565b005b6060336001600160a01b037f0000000000000000000000000000000000000000000000000000000000000000161461026e576040516313bd2e8360e31b815260040160405180910390fd5b426201518001600080808080610286888a018a611166565b94509450945094509450610299846105d6565b15806102ac57506001600160a01b038316155b806102bc575061271061ffff8316115b806102c5575084155b156102e3576040516348be0eb360e01b815260040160405180910390fd5b846000808d815260200190815260200160002060008c815260200190815260200160002060000181905550836000808d815260200190815260200160002060008c815260200190815260200160002060010160006101000a8154816001600160a01b0302191690836001600160a01b03160217905550826000808d815260200190815260200160002060008c815260200190815260200160002060020160006101000a8154816001600160a01b0302191690836001600160a01b03160217905550816000808d815260200190815260200160002060008c815260200190815260200160002060020160146101000a81548161ffff021916908361ffff160217905550806000808d815260200190815260200160002060008c815260200190815260200160002060020160166101000a81548160ff021916908315150217905550856000808d815260200190815260200160002060008c815260200190815260200160002060020160176101000a81548164ffffffffff021916908364ffffffffff16021790555084848484848a6040516020016104bf969594939291909586526001600160a01b03948516602087015292909316604085015261ffff166060840152901515608083015264ffffffffff1660a082015260c00190565b6040516020818303038152906040529650505050505050949350505050565b336001600160a01b037f00000000000000000000000000000000000000000000000000000000000000001614610527576040516313bd2e8360e31b815260040160405180910390fd5b600084815260208181526040808320868452909152902060020154600160b01b900460ff161561055b5761055b848661066b565b600084815260208181526040808320868452909152902060020154600160b81b900464ffffffffff16428110156105a5576040516304cd703960e51b815260040160405180910390fd5b848714156105bf576105ba868686868661096d565b6105cd565b6105cd878787878787610a42565b50505050505050565b6040516343b938c560e01b81526001600160a01b0382811660048301526000917f0000000000000000000000000000000000000000000000000000000000000000909116906343b938c590602401602060405180830381865afa158015610641573d6000803e3d6000fd5b505050506040513d601f19601f8201168201806040525081019061066591906111ce565b92915050565b604051633648f48360e21b8152600481018390526000907f00000000000000000000000000000000000000000000000000000000000000006001600160a01b03169063d923d20c90602401602060405180830381865afa1580156106d3573d6000803e3d6000fd5b505050506040513d601f19601f820116820180604052508101906106f791906111eb565b905060006001600160a01b03821615610789576040516311470f4360e21b8152600481018590526001600160a01b0384811660248301526000604483015283169063451c3d0c90606401602060405180830381865afa15801561075e573d6000803e3d6000fd5b505050506040513d601f19601f8201168201806040525081019061078291906111ce565b905061089b565b60405163a9ec656360e01b8152600481018590526000907f00000000000000000000000000000000000000000000000000000000000000006001600160a01b03169063a9ec656390602401602060405180830381865afa1580156107f1573d6000803e3d6000fd5b505050506040513d601f19601f8201168201806040525081019061081591906111eb565b90506001600160a01b0381161580159061089757506040516370a0823160e01b81526001600160a01b0385811660048301528216906370a0823190602401602060405180830381865afa158015610870573d6000803e3d6000fd5b505050506040513d601f19601f820116820180604052508101906108949190611208565b15155b9150505b801580156109495750826001600160a01b03167f00000000000000000000000000000000000000000000000000000000000000006001600160a01b0316636352211e866040518263ffffffff1660e01b81526004016108fc91815260200190565b602060405180830381865afa158015610919573d6000803e3d6000fd5b505050506040513d601f19601f8201168201806040525081019061093d91906111eb565b6001600160a01b031614155b1561096757604051636992d36b60e11b815260040160405180910390fd5b50505050565b600084815260208181526040808320868452909152902080546001909101546001600160a01b03166109a184848385610c0c565b6000806109ac610c66565b60008a8152602081815260408083208c84529091528120600201549294509092506001600160a01b03909116906127106109ea61ffff851688611237565b6109f49190611256565b90506000610a028288611278565b9050610a196001600160a01b0387168d8584610cf2565b8115610a3457610a346001600160a01b0387168d8785610cf2565b505050505050505050505050565b600084815260208181526040808320868452909152902080546001909101546001600160a01b0316610a7684848385610c0c565b600086815260208181526040808320888452909152812060020154600160a01b900461ffff16908080610aa7610c66565b9093509050612710610abd61ffff831688611237565b610ac79190611256565b915060009050610ad78287611278565b90508315610bad576000612710610aee8684611237565b610af89190611256565b9050610b048183611278565b6040516331a9108f60e11b8152600481018f90529092506000906001600160a01b037f00000000000000000000000000000000000000000000000000000000000000001690636352211e90602401602060405180830381865afa158015610b6f573d6000803e3d6000fd5b505050506040513d601f19601f82011682018060405250810190610b9391906111eb565b9050610baa6001600160a01b0388168e8385610cf2565b50505b60008a8152602081815260408083208c84529091529020600201546001600160a01b0390811690610be29087168d8385610cf2565b8215610bfd57610bfd6001600160a01b0387168d8686610cf2565b50505050505050505050505050565b600080610c1b8587018761128f565b915091508281141580610c405750836001600160a01b0316826001600160a01b031614155b15610c5e576040516346308bd560e01b815260040160405180910390fd5b505050505050565b6000807f00000000000000000000000000000000000000000000000000000000000000006001600160a01b03166398f965d16040518163ffffffff1660e01b81526004016040805180830381865afa158015610cc6573d6000803e3d6000fd5b505050506040513d601f19601f82011682018060405250810190610cea91906112bb565b915091509091565b604080516001600160a01b038581166024830152848116604483015260648083018590528351808403909101815260849092018352602080830180516001600160e01b03166323b872dd60e01b17905283518085019094528084527f5361666545524332303a206c6f772d6c6576656c2063616c6c206661696c65649084015261096792879291600091610d8a918516908490610e11565b805190915015610e0c5780806020019051810190610da891906111ce565b610e0c5760405162461bcd60e51b815260206004820152602a60248201527f5361666545524332303a204552433230206f7065726174696f6e20646964206e6044820152691bdd081cdd58d8d9595960b21b60648201526084015b60405180910390fd5b505050565b6060610e208484600085610e2a565b90505b9392505050565b606082471015610e8b5760405162461bcd60e51b815260206004820152602660248201527f416464726573733a20696e73756666696369656e742062616c616e636520666f6044820152651c8818d85b1b60d21b6064820152608401610e03565b6001600160a01b0385163b610ee25760405162461bcd60e51b815260206004820152601d60248201527f416464726573733a2063616c6c20746f206e6f6e2d636f6e74726163740000006044820152606401610e03565b600080866001600160a01b03168587604051610efe91906112f5565b60006040518083038185875af1925050503d8060008114610f3b576040519150601f19603f3d011682016040523d82523d6000602084013e610f40565b606091505b5091509150610f50828286610f5b565b979650505050505050565b60608315610f6a575081610e23565b825115610f7a5782518084602001fd5b8160405162461bcd60e51b8152600401610e0391906110aa565b60008060408385031215610fa757600080fd5b50508035926020909101359150565b60008083601f840112610fc857600080fd5b50813567ffffffffffffffff811115610fe057600080fd5b602083019150836020828501011115610ff857600080fd5b9250929050565b6000806000806060858703121561101557600080fd5b8435935060208501359250604085013567ffffffffffffffff81111561103a57600080fd5b61104687828801610fb6565b95989497509550505050565b60005b8381101561106d578181015183820152602001611055565b838111156109675750506000910152565b60008151808452611096816020860160208601611052565b601f01601f19169290920160200192915050565b602081526000610e23602083018461107e565b6001600160a01b03811681146110d257600080fd5b50565b60008060008060008060a087890312156110ee57600080fd5b863595506020870135611100816110bd565b94506040870135935060608701359250608087013567ffffffffffffffff81111561112a57600080fd5b61113689828a01610fb6565b979a9699509497509295939492505050565b61ffff811681146110d257600080fd5b80151581146110d257600080fd5b600080600080600060a0868803121561117e57600080fd5b853594506020860135611190816110bd565b935060408601356111a0816110bd565b925060608601356111b081611148565b915060808601356111c081611158565b809150509295509295909350565b6000602082840312156111e057600080fd5b8151610e2381611158565b6000602082840312156111fd57600080fd5b8151610e23816110bd565b60006020828403121561121a57600080fd5b5051919050565b634e487b7160e01b600052601160045260246000fd5b600081600019048311821515161561125157611251611221565b500290565b60008261127357634e487b7160e01b600052601260045260246000fd5b500490565b60008282101561128a5761128a611221565b500390565b600080604083850312156112a257600080fd5b82356112ad816110bd565b946020939093013593505050565b600080604083850312156112ce57600080fd5b82516112d9816110bd565b60208401519092506112ea81611148565b809150509250929050565b60008251611307818460208701611052565b919091019291505056fea264697066735822122000e3d439f97faeeeb3d2b97d3e014b05272c00092e1ef5a30b790322eb57ec5464736f6c634300080a0033",
  "linkReferences": {},
  "deployedLinkReferences": {}
}