{
  "abi": [
    {
      "inputs": [
        {
          "internalType": "address",
          "name": "owner",
          "type": "address"
        },
        {
          "internalType": "bytes16",
          "name": "appId",
          "type": "bytes16"
        },
        {
          "internalType": "uint256",
          "name": "duration",
          "type": "uint256"
        },
        {
          "internalType": "bool",
          "name": "isImpersonationMode",
          "type": "bool"
        },
        {
          "components": [
            {
              "internalType": "uint256",
              "name": "startAt",
              "type": "uint256"
            },
            {
              "internalType": "bytes16",
              "name": "groupId",
              "type": "bytes16"
            },
            {
              "internalType": "uint256",
              "name": "duration",
              "type": "uint256"
            }
          ],
          "internalType": "struct DataTypes.GroupSetup[]",
          "name": "groups",
          "type": "tuple[]"
        }
      ],
      "stateMutability": "nonpayable",
      "type": "constructor"
    },
    {
      "inputs": [
        {
          "internalType": "enum AuthType",
          "name": "authType",
          "type": "uint8"
        }
      ],
      "name": "AuthTypeNotFoundInVerifiedResult",
      "type": "error"
    },
    {
      "inputs": [],
      "name": "InvalidAddress",
      "type": "error"
    },
    {
      "anonymous": false,
      "inputs": [
        {
          "indexed": true,
          "internalType": "bytes16",
          "name": "groupId",
          "type": "bytes16"
        },
        {
          "indexed": false,
          "internalType": "uint256",
          "name": "timestamp",
          "type": "uint256"
        }
      ],
      "name": "CredentialAdded",
      "type": "event"
    },
    {
      "anonymous": false,
      "inputs": [
        {
          "indexed": true,
          "internalType": "uint256",
          "name": "vaultId",
          "type": "uint256"
        },
        {
          "indexed": true,
          "internalType": "address",
          "name": "account",
          "type": "address"
        },
        {
          "indexed": true,
          "internalType": "bytes16",
          "name": "groupId",
          "type": "bytes16"
        },
        {
          "indexed": false,
          "internalType": "uint256",
          "name": "expiredAt",
          "type": "uint256"
        }
      ],
      "name": "CredentialMapped",
      "type": "event"
    },
    {
      "anonymous": false,
      "inputs": [
        {
          "indexed": true,
          "internalType": "bytes16",
          "name": "groupId",
          "type": "bytes16"
        },
        {
          "indexed": false,
          "internalType": "uint256",
          "name": "timestamp",
          "type": "uint256"
        }
      ],
      "name": "CredentialRemoved",
      "type": "event"
    },
    {
      "anonymous": false,
      "inputs": [
        {
          "indexed": true,
          "internalType": "address",
          "name": "previousOwner",
          "type": "address"
        },
        {
          "indexed": true,
          "internalType": "address",
          "name": "newOwner",
          "type": "address"
        }
      ],
      "name": "OwnershipTransferred",
      "type": "event"
    },
    {
      "inputs": [],
      "name": "ADDRESSES_PROVIDER_V2",
      "outputs": [
        {
          "internalType": "contract IAddressesProvider",
          "name": "",
          "type": "address"
        }
      ],
      "stateMutability": "view",
      "type": "function"
    },
    {
      "inputs": [],
      "name": "APP_ID",
      "outputs": [
        {
          "internalType": "bytes16",
          "name": "",
          "type": "bytes16"
        }
      ],
      "stateMutability": "view",
      "type": "function"
    },
    {
      "inputs": [],
      "name": "IS_IMPERSONATION_MODE",
      "outputs": [
        {
          "internalType": "bool",
          "name": "",
          "type": "bool"
        }
      ],
      "stateMutability": "view",
      "type": "function"
    },
    {
      "inputs": [],
      "name": "REFRESH_DURATION",
      "outputs": [
        {
          "internalType": "uint256",
          "name": "",
          "type": "uint256"
        }
      ],
      "stateMutability": "view",
      "type": "function"
    },
    {
      "inputs": [],
      "name": "SISMO_CONNECT_LIB_VERSION",
      "outputs": [
        {
          "internalType": "uint256",
          "name": "",
          "type": "uint256"
        }
      ],
      "stateMutability": "view",
      "type": "function"
    },
    {
      "inputs": [
        {
          "components": [
            {
              "internalType": "uint256",
              "name": "startAt",
              "type": "uint256"
            },
            {
              "internalType": "bytes16",
              "name": "groupId",
              "type": "bytes16"
            },
            {
              "internalType": "uint256",
              "name": "duration",
              "type": "uint256"
            }
          ],
          "internalType": "struct DataTypes.GroupSetup[]",
          "name": "_groups",
          "type": "tuple[]"
        }
      ],
      "name": "addDataGroups",
      "outputs": [],
      "stateMutability": "nonpayable",
      "type": "function"
    },
    {
      "inputs": [
        {
          "internalType": "address",
          "name": "account",
          "type": "address"
        },
        {
          "internalType": "bytes",
          "name": "proof",
          "type": "bytes"
        }
      ],
      "name": "bindCredential",
      "outputs": [],
      "stateMutability": "nonpayable",
      "type": "function"
    },
    {
      "inputs": [],
      "name": "config",
      "outputs": [
        {
          "components": [
            {
              "internalType": "bytes16",
              "name": "appId",
              "type": "bytes16"
            },
            {
              "components": [
                {
                  "internalType": "bool",
                  "name": "isImpersonationMode",
                  "type": "bool"
                }
              ],
              "internalType": "struct VaultConfig",
              "name": "vault",
              "type": "tuple"
            }
          ],
          "internalType": "struct SismoConnectConfig",
          "name": "",
          "type": "tuple"
        }
      ],
      "stateMutability": "view",
      "type": "function"
    },
    {
      "inputs": [
        {
          "internalType": "bytes16[]",
          "name": "groupIds",
          "type": "bytes16[]"
        }
      ],
      "name": "deleteDataGroups",
      "outputs": [],
      "stateMutability": "nonpayable",
      "type": "function"
    },
    {
      "inputs": [
        {
          "internalType": "address",
          "name": "",
          "type": "address"
        },
        {
          "internalType": "bytes16",
          "name": "",
          "type": "bytes16"
        }
      ],
      "name": "getCredentialInfo",
      "outputs": [
        {
          "internalType": "bytes16",
          "name": "groupId",
          "type": "bytes16"
        },
        {
          "internalType": "bool",
          "name": "value",
          "type": "bool"
        },
        {
          "internalType": "uint256",
          "name": "expiredAt",
          "type": "uint256"
        }
      ],
      "stateMutability": "view",
      "type": "function"
    },
    {
      "inputs": [
        {
          "internalType": "address",
          "name": "account",
          "type": "address"
        }
      ],
      "name": "getCredentialInfoList",
      "outputs": [
        {
          "components": [
            {
              "internalType": "bytes16",
              "name": "groupId",
              "type": "bytes16"
            },
            {
              "internalType": "bool",
              "name": "value",
              "type": "bool"
            },
            {
              "internalType": "uint256",
              "name": "expiredAt",
              "type": "uint256"
            }
          ],
          "internalType": "struct DataTypes.CredentialInfo[]",
          "name": "",
          "type": "tuple[]"
        }
      ],
      "stateMutability": "view",
      "type": "function"
    },
    {
      "inputs": [],
      "name": "getGroupIds",
      "outputs": [
        {
          "internalType": "bytes16[]",
          "name": "",
          "type": "bytes16[]"
        }
      ],
      "stateMutability": "view",
      "type": "function"
    },
    {
      "inputs": [
        {
          "internalType": "bytes16",
          "name": "",
          "type": "bytes16"
        }
      ],
      "name": "getGroupSetup",
      "outputs": [
        {
          "internalType": "uint256",
          "name": "startAt",
          "type": "uint256"
        },
        {
          "internalType": "bytes16",
          "name": "groupId",
          "type": "bytes16"
        },
        {
          "internalType": "uint256",
          "name": "duration",
          "type": "uint256"
        }
      ],
      "stateMutability": "view",
      "type": "function"
    },
    {
      "inputs": [],
      "name": "owner",
      "outputs": [
        {
          "internalType": "address",
          "name": "",
          "type": "address"
        }
      ],
      "stateMutability": "view",
      "type": "function"
    },
    {
      "inputs": [],
      "name": "renounceOwnership",
      "outputs": [],
      "stateMutability": "nonpayable",
      "type": "function"
    },
    {
      "inputs": [
        {
          "internalType": "address",
          "name": "newOwner",
          "type": "address"
        }
      ],
      "name": "transferOwnership",
      "outputs": [],
      "stateMutability": "nonpayable",
      "type": "function"
    }
  ],
  "bytecode": {
    "object": "0x6101806040523480156200001257600080fd5b50604051620055b4380380620055b4833981810160405281019062000038919062000c92565b846200004b8584620005b360201b60201c565b80600001516fffffffffffffffffffffffffffffffff1916610120816fffffffffffffffffffffffffffffffff191681525050806020015160000151151561014081151581525050733cd5334eb64ebbd4003b72022cc25465f1bfcee673ffffffffffffffffffffffffffffffffffffffff1663693ec85e6040518060400160405280601981526020017f7369736d6f436f6e6e65637456657269666965722d76312e32000000000000008152506040518263ffffffff1660e01b815260040162000117919062000dc2565b602060405180830381865afa15801562000135573d6000803e3d6000fd5b505050506040513d601f19601f820116820180604052508101906200015b919062000de6565b73ffffffffffffffffffffffffffffffffffffffff1660808173ffffffffffffffffffffffffffffffffffffffff1681525050733cd5334eb64ebbd4003b72022cc25465f1bfcee673ffffffffffffffffffffffffffffffffffffffff1663693ec85e6040518060400160405280601781526020017f61757468526571756573744275696c6465722d76312e310000000000000000008152506040518263ffffffff1660e01b815260040162000212919062000dc2565b602060405180830381865afa15801562000230573d6000803e3d6000fd5b505050506040513d601f19601f8201168201806040525081019062000256919062000de6565b73ffffffffffffffffffffffffffffffffffffffff1660a08173ffffffffffffffffffffffffffffffffffffffff1681525050733cd5334eb64ebbd4003b72022cc25465f1bfcee673ffffffffffffffffffffffffffffffffffffffff1663693ec85e6040518060400160405280601881526020017f636c61696d526571756573744275696c6465722d76312e3100000000000000008152506040518263ffffffff1660e01b81526004016200030d919062000dc2565b602060405180830381865afa1580156200032b573d6000803e3d6000fd5b505050506040513d601f19601f8201168201806040525081019062000351919062000de6565b73ffffffffffffffffffffffffffffffffffffffff1660c08173ffffffffffffffffffffffffffffffffffffffff1681525050733cd5334eb64ebbd4003b72022cc25465f1bfcee673ffffffffffffffffffffffffffffffffffffffff1663693ec85e6040518060400160405280601581526020017f7369676e61747572654275696c6465722d76312e3100000000000000000000008152506040518263ffffffff1660e01b815260040162000408919062000dc2565b602060405180830381865afa15801562000426573d6000803e3d6000fd5b505050506040513d601f19601f820116820180604052508101906200044c919062000de6565b73ffffffffffffffffffffffffffffffffffffffff1660e08173ffffffffffffffffffffffffffffffffffffffff1681525050733cd5334eb64ebbd4003b72022cc25465f1bfcee673ffffffffffffffffffffffffffffffffffffffff1663693ec85e6040518060400160405280601381526020017f726571756573744275696c6465722d76312e31000000000000000000000000008152506040518263ffffffff1660e01b815260040162000503919062000dc2565b602060405180830381865afa15801562000521573d6000803e3d6000fd5b505050506040513d601f19601f8201168201806040525081019062000547919062000de6565b73ffffffffffffffffffffffffffffffffffffffff166101008173ffffffffffffffffffffffffffffffffffffffff1681525050506200058d81620005fd60201b60201c565b50826101608181525050620005a881620006c160201b60201c565b505050505062000ef1565b620005bd62000911565b6040518060400160405280846fffffffffffffffffffffffffffffffff19168152602001620005f2846200087060201b60201c565b815250905092915050565b60008060009054906101000a900473ffffffffffffffffffffffffffffffffffffffff169050816000806101000a81548173ffffffffffffffffffffffffffffffffffffffff021916908373ffffffffffffffffffffffffffffffffffffffff1602179055508173ffffffffffffffffffffffffffffffffffffffff168173ffffffffffffffffffffffffffffffffffffffff167f8be0079c531659141344cd1fd0a4f28419497f9722a3daafe3b4186f6b6457e060405160405180910390a35050565b60005b81518110156200086c576000828281518110620006e657620006e562000e18565b5b602002602001015160200151905062000705816200089260201b60201c565b1562000712575062000856565b82828151811062000728576200072762000e18565b5b602002602001015160036000836fffffffffffffffffffffffffffffffff19166fffffffffffffffffffffffffffffffff191681526020019081526020016000206000820151816000015560208201518160010160006101000a8154816fffffffffffffffffffffffffffffffff021916908360801c02179055506040820151816002015590505060048190806001815401808255809150506001900390600052602060002090600291828204019190066010029091909190916101000a8154816fffffffffffffffffffffffffffffffff021916908360801c0217905550806fffffffffffffffffffffffffffffffff19167fb2fa04fb2e018cd3c3ce08eebdfc1d237122791afaeedcb401848b9171d9c32d426040516200084c919062000e58565b60405180910390a2505b8080620008639062000ea4565b915050620006c4565b5050565b6200087a62000946565b60405180602001604052808315158152509050919050565b60008060801b6fffffffffffffffffffffffffffffffff191660036000846fffffffffffffffffffffffffffffffff19166fffffffffffffffffffffffffffffffff1916815260200190815260200160002060010160009054906101000a900460801b6fffffffffffffffffffffffffffffffff191614159050919050565b604051806040016040528060006fffffffffffffffffffffffffffffffff191681526020016200094062000946565b81525090565b60405180602001604052806000151581525090565b6000604051905090565b600080fd5b600080fd5b600073ffffffffffffffffffffffffffffffffffffffff82169050919050565b60006200099c826200096f565b9050919050565b620009ae816200098f565b8114620009ba57600080fd5b50565b600081519050620009ce81620009a3565b92915050565b60007fffffffffffffffffffffffffffffffff0000000000000000000000000000000082169050919050565b62000a0b81620009d4565b811462000a1757600080fd5b50565b60008151905062000a2b8162000a00565b92915050565b6000819050919050565b62000a468162000a31565b811462000a5257600080fd5b50565b60008151905062000a668162000a3b565b92915050565b60008115159050919050565b62000a838162000a6c565b811462000a8f57600080fd5b50565b60008151905062000aa38162000a78565b92915050565b600080fd5b6000601f19601f8301169050919050565b7f4e487b7100000000000000000000000000000000000000000000000000000000600052604160045260246000fd5b62000af98262000aae565b810181811067ffffffffffffffff8211171562000b1b5762000b1a62000abf565b5b80604052505050565b600062000b306200095b565b905062000b3e828262000aee565b919050565b600067ffffffffffffffff82111562000b615762000b6062000abf565b5b602082029050602081019050919050565b600080fd5b600080fd5b60006060828403121562000b955762000b9462000b77565b5b62000ba1606062000b24565b9050600062000bb38482850162000a55565b600083015250602062000bc98482850162000a1a565b602083015250604062000bdf8482850162000a55565b60408301525092915050565b600062000c0262000bfc8462000b43565b62000b24565b9050808382526020820190506060840283018581111562000c285762000c2762000b72565b5b835b8181101562000c55578062000c40888262000b7c565b84526020840193505060608101905062000c2a565b5050509392505050565b600082601f83011262000c775762000c7662000aa9565b5b815162000c8984826020860162000beb565b91505092915050565b600080600080600060a0868803121562000cb15762000cb062000965565b5b600062000cc188828901620009bd565b955050602062000cd48882890162000a1a565b945050604062000ce78882890162000a55565b935050606062000cfa8882890162000a92565b925050608086015167ffffffffffffffff81111562000d1e5762000d1d6200096a565b5b62000d2c8882890162000c5f565b9150509295509295909350565b600081519050919050565b600082825260208201905092915050565b60005b8381101562000d7557808201518184015260208101905062000d58565b60008484015250505050565b600062000d8e8262000d39565b62000d9a818562000d44565b935062000dac81856020860162000d55565b62000db78162000aae565b840191505092915050565b6000602082019050818103600083015262000dde818462000d81565b905092915050565b60006020828403121562000dff5762000dfe62000965565b5b600062000e0f84828501620009bd565b91505092915050565b7f4e487b7100000000000000000000000000000000000000000000000000000000600052603260045260246000fd5b62000e528162000a31565b82525050565b600060208201905062000e6f600083018462000e47565b92915050565b7f4e487b7100000000000000000000000000000000000000000000000000000000600052601160045260246000fd5b600062000eb18262000a31565b91507fffffffffffffffffffffffffffffffffffffffffffffffffffffffffffffffff820362000ee65762000ee562000e75565b5b600182019050919050565b60805160a05160c05160e0516101005161012051610140516101605161464862000f6c6000396000818161030501526108fe0152600081816105ff01526109820152600081816105de0152610a850152600061192f01526000611293015260006111df015260006111310152600061136801526146486000f3fe608060405234801561001057600080fd5b50600436106101005760003560e01c8063a183dc2711610097578063c9512d9911610066578063c9512d991461027b578063ca7a1a3614610299578063f2fde38b146102cb578063f7fe2e28146102e757610100565b8063a183dc27146101ef578063a30caa5f1461020d578063c02b8b2c1461023f578063c187bbc11461025d57610100565b8063715018a6116100d3578063715018a61461018d57806379502c55146101975780638da5cb5b146101b55780639a9e4b42146101d357610100565b806344580952146101055780634691630114610123578063554b423c14610141578063606b4fc714610171575b600080fd5b61010d610303565b60405161011a9190611bfa565b60405180910390f35b61012b610327565b6040516101389190611c94565b60405180910390f35b61015b60048036038101906101569190611d01565b61033f565b6040516101689190611e84565b60405180910390f35b61018b600480360381019061018691906120c5565b6105a9565b005b6101956105bd565b005b61019f6105d1565b6040516101ac9190612159565b60405180910390f35b6101bd610628565b6040516101ca9190612183565b60405180910390f35b6101ed60048036038101906101e89190612253565b610651565b005b6101f7610980565b60405161020491906122be565b60405180910390f35b610227600480360381019061022291906122d9565b6109a4565b60405161023693929190612328565b60405180910390f35b6102476109f5565b604051610254919061240e565b60405180910390f35b610265610a83565b6040516102729190612430565b60405180910390f35b610283610aa7565b6040516102909190611bfa565b60405180910390f35b6102b360048036038101906102ae919061244b565b610aac565b6040516102c293929190612478565b60405180910390f35b6102e560048036038101906102e09190611d01565b610ae3565b005b61030160048036038101906102fc9190612572565b610b66565b005b7f000000000000000000000000000000000000000000000000000000000000000081565b733cd5334eb64ebbd4003b72022cc25465f1bfcee681565b60606000600480549050905060008167ffffffffffffffff81111561036757610366611ebc565b5b6040519080825280602002602001820160405280156103a057816020015b61038d6119d9565b8152602001906001900390816103855790505b50905060005b8281101561059e576000600260008773ffffffffffffffffffffffffffffffffffffffff1673ffffffffffffffffffffffffffffffffffffffff168152602001908152602001600020600060048481548110610405576104046125bb565b5b90600052602060002090600291828204019190066010029054906101000a900460801b6fffffffffffffffffffffffffffffffff19166fffffffffffffffffffffffffffffffff191681526020019081526020016000206040518060600160405290816000820160009054906101000a900460801b6fffffffffffffffffffffffffffffffff19166fffffffffffffffffffffffffffffffff191681526020016000820160109054906101000a900460ff16151515158152602001600182015481525050905042816040015110156104e95760008160200190151590811515815250505b808383815181106104fd576104fc6125bb565b5b60200260200101819052506004828154811061051c5761051b6125bb565b5b90600052602060002090600291828204019190066010029054906101000a900460801b838381518110610552576105516125bb565b5b6020026020010151600001906fffffffffffffffffffffffffffffffff191690816fffffffffffffffffffffffffffffffff19168152505050808061059690612619565b9150506103a6565b508092505050919050565b6105b1610e0c565b6105ba81610e8a565b50565b6105c5610e0c565b6105cf6000611023565b565b6105d9611a0f565b6106237f00000000000000000000000000000000000000000000000000000000000000007f00000000000000000000000000000000000000000000000000000000000000006110e7565b905090565b60008060009054906101000a900473ffffffffffffffffffffffffffffffffffffffff16905090565b600073ffffffffffffffffffffffffffffffffffffffff168273ffffffffffffffffffffffffffffffffffffffff16036106b7576040517fe6c4247b00000000000000000000000000000000000000000000000000000000815260040160405180910390fd5b6000600167ffffffffffffffff8111156106d4576106d3611ebc565b5b60405190808252806020026020018201604052801561070d57816020015b6106fa611a42565b8152602001906001900390816106f25790505b50905061071a6000611127565b8160008151811061072e5761072d6125bb565b5b60200260200101819052506000600480549050905060008167ffffffffffffffff81111561075f5761075e611ebc565b5b60405190808252806020026020018201604052801561079857816020015b610785611a90565b81526020019060019003908161077d5790505b50905060005b8281101561081a576107e9600482815481106107bd576107bc6125bb565b5b90600052602060002090600291828204019190066010029054906101000a900460801b600160006111d5565b8282815181106107fc576107fb6125bb565b5b6020026020010181905250808061081290612619565b91505061079e565b50600061085085858461084b8a6040516020016108379190612183565b604051602081830303815290604052611289565b611337565b9050600061086860008361141c90919063ffffffff16565b9050600060016000838152602001908152602001600020905042816001015411610946576108b98160000160009054906101000a900473ffffffffffffffffffffffffffffffffffffffff16611500565b878160000160006101000a81548173ffffffffffffffffffffffffffffffffffffffff021916908373ffffffffffffffffffffffffffffffffffffffff1602179055507f0000000000000000000000000000000000000000000000000000000000000000426109289190612661565b816001018190555061093b88848461161b565b50505050505061097c565b6109758160000160009054906101000a900473ffffffffffffffffffffffffffffffffffffffff16848461161b565b5050505050505b5050565b7f000000000000000000000000000000000000000000000000000000000000000081565b6002602052816000526040600020602052806000526040600020600091509150508060000160009054906101000a900460801b908060000160109054906101000a900460ff16908060010154905083565b60606004805480602002602001604051908101604052809291908181526020018280548015610a7957602002820191906000526020600020906000905b82829054906101000a900460801b6fffffffffffffffffffffffffffffffff191681526020019060100190602082600f01049283019260010382029150808411610a325790505b5050505050905090565b7f000000000000000000000000000000000000000000000000000000000000000081565b600281565b60036020528060005260406000206000915090508060000154908060010160009054906101000a900460801b908060020154905083565b610aeb610e0c565b600073ffffffffffffffffffffffffffffffffffffffff168173ffffffffffffffffffffffffffffffffffffffff1603610b5a576040517f08c379a0000000000000000000000000000000000000000000000000000000008152600401610b5190612718565b60405180910390fd5b610b6381611023565b50565b610b6e610e0c565b60005b8151811015610e08576000600480549050905060005b81811015610df357838381518110610ba257610ba16125bb565b5b60200260200101516fffffffffffffffffffffffffffffffff191660048281548110610bd157610bd06125bb565b5b90600052602060002090600291828204019190066010029054906101000a900460801b6fffffffffffffffffffffffffffffffff191603610de0576004600183610c1b9190612738565b81548110610c2c57610c2b6125bb565b5b90600052602060002090600291828204019190066010029054906101000a900460801b60048281548110610c6357610c626125bb565b5b90600052602060002090600291828204019190066010026101000a8154816fffffffffffffffffffffffffffffffff021916908360801c02179055506004805480610cb157610cb061276c565b5b60019003818190600052602060002090600291828204019190066010026101000a8154906fffffffffffffffffffffffffffffffff0219169055905560036000858581518110610d0457610d036125bb565b5b60200260200101516fffffffffffffffffffffffffffffffff19166fffffffffffffffffffffffffffffffff191681526020019081526020016000206000808201600090556001820160006101000a8154906fffffffffffffffffffffffffffffffff021916905560028201600090555050838381518110610d8957610d886125bb565b5b60200260200101516fffffffffffffffffffffffffffffffff19167ffef4feffebebcf904cb9612e4fb69a9e411e2da9569cfcc35a50eac4a2e8cf0142604051610dd39190611bfa565b60405180910390a2610df3565b8080610deb90612619565b915050610b87565b50508080610e0090612619565b915050610b71565b5050565b610e1461187e565b73ffffffffffffffffffffffffffffffffffffffff16610e32610628565b73ffffffffffffffffffffffffffffffffffffffff1614610e88576040517f08c379a0000000000000000000000000000000000000000000000000000000008152600401610e7f906127e7565b60405180910390fd5b565b60005b815181101561101f576000828281518110610eab57610eaa6125bb565b5b6020026020010151602001519050610ec281611886565b15610ecd575061100c565b828281518110610ee057610edf6125bb565b5b602002602001015160036000836fffffffffffffffffffffffffffffffff19166fffffffffffffffffffffffffffffffff191681526020019081526020016000206000820151816000015560208201518160010160006101000a8154816fffffffffffffffffffffffffffffffff021916908360801c02179055506040820151816002015590505060048190806001815401808255809150506001900390600052602060002090600291828204019190066010029091909190916101000a8154816fffffffffffffffffffffffffffffffff021916908360801c0217905550806fffffffffffffffffffffffffffffffff19167fb2fa04fb2e018cd3c3ce08eebdfc1d237122791afaeedcb401848b9171d9c32d426040516110029190611bfa565b60405180910390a2505b808061101790612619565b915050610e8d565b5050565b60008060009054906101000a900473ffffffffffffffffffffffffffffffffffffffff169050816000806101000a81548173ffffffffffffffffffffffffffffffffffffffff021916908373ffffffffffffffffffffffffffffffffffffffff1602179055508173ffffffffffffffffffffffffffffffffffffffff168173ffffffffffffffffffffffffffffffffffffffff167f8be0079c531659141344cd1fd0a4f28419497f9722a3daafe3b4186f6b6457e060405160405180910390a35050565b6110ef611a0f565b6040518060400160405280846fffffffffffffffffffffffffffffffff1916815260200161111c84611905565b815250905092915050565b61112f611a42565b7f000000000000000000000000000000000000000000000000000000000000000073ffffffffffffffffffffffffffffffffffffffff16633a0ba6ff836040518263ffffffff1660e01b8152600401611188919061287e565b600060405180830381865afa1580156111a5573d6000803e3d6000fd5b505050506040513d6000823e3d601f19601f820116820180604052508101906111ce9190612a55565b9050919050565b6111dd611a90565b7f000000000000000000000000000000000000000000000000000000000000000073ffffffffffffffffffffffffffffffffffffffff1663ee5decf28585856040518463ffffffff1660e01b815260040161123a93929190612a9e565b600060405180830381865afa158015611257573d6000803e3d6000fd5b505050506040513d6000823e3d601f19601f820116820180604052508101906112809190612bdf565b90509392505050565b611291611b09565b7f000000000000000000000000000000000000000000000000000000000000000073ffffffffffffffffffffffffffffffffffffffff16636835f32c836040518263ffffffff1660e01b81526004016112ea9190612c7d565b600060405180830381865afa158015611307573d6000803e3d6000fd5b505050506040513d6000823e3d601f19601f820116820180604052508101906113309190612d3b565b9050919050565b61133f611b2c565b6000858060200190518101906113559190613381565b90506000611364868686611925565b90507f000000000000000000000000000000000000000000000000000000000000000073ffffffffffffffffffffffffffffffffffffffff166312b037ff83836113ac6105d1565b6040518463ffffffff1660e01b81526004016113ca93929190613c38565b600060405180830381865afa1580156113e7573d6000803e3d6000fd5b505050506040513d6000823e3d601f19601f8201168201806040525081019061141091906140e3565b92505050949350505050565b600080600090505b8360600151518110156114bc5782600581111561144457611443612807565b5b8460600151828151811061145b5761145a6125bb565b5b602002602001015160000151600581111561147957611478612807565b5b036114a95783606001518181518110611495576114946125bb565b5b6020026020010151604001519150506114fa565b80806114b490612619565b915050611424565b50816040517f267ac2cf0000000000000000000000000000000000000000000000000000000081526004016114f1919061287e565b60405180910390fd5b92915050565b6000600480549050905060005b8181101561161657600260008473ffffffffffffffffffffffffffffffffffffffff1673ffffffffffffffffffffffffffffffffffffffff16815260200190815260200160002060006004838154811061156a576115696125bb565b5b90600052602060002090600291828204019190066010029054906101000a900460801b6fffffffffffffffffffffffffffffffff19166fffffffffffffffffffffffffffffffff19168152602001908152602001600020600080820160006101000a8154906fffffffffffffffffffffffffffffffff02191690556000820160106101000a81549060ff021916905560018201600090555050808061160e90612619565b91505061150d565b505050565b60005b82608001515181101561187857600083608001518281518110611644576116436125bb565b5b60200260200101519050600081602001519050600060036000836fffffffffffffffffffffffffffffffff19166fffffffffffffffffffffffffffffffff19168152602001908152602001600020604051806060016040529081600082015481526020016001820160009054906101000a900460801b6fffffffffffffffffffffffffffffffff19166fffffffffffffffffffffffffffffffff1916815260200160028201548152505090506000600260008973ffffffffffffffffffffffffffffffffffffffff1673ffffffffffffffffffffffffffffffffffffffff1681526020019081526020016000206000846fffffffffffffffffffffffffffffffff19166fffffffffffffffffffffffffffffffff191681526020019081526020016000209050600082604001518360000151426117819190612738565b61178b919061415b565b83604001514261179b9190612661565b6117a59190612738565b905082602001518260000160006101000a8154816fffffffffffffffffffffffffffffffff021916908360801c021790555060018260000160106101000a81548160ff021916908315150217905550808260010181905550836fffffffffffffffffffffffffffffffff19168973ffffffffffffffffffffffffffffffffffffffff16887f0e9c826dc2832f02c4183d4ef5ae84466837894e42b97c1a7be69e825fa2138d846040516118589190611bfa565b60405180910390a45050505050808061187090612619565b91505061161e565b50505050565b600033905090565b60008060801b6fffffffffffffffffffffffffffffffff191660036000846fffffffffffffffffffffffffffffffff19166fffffffffffffffffffffffffffffffff1916815260200190815260200160002060010160009054906101000a900460801b6fffffffffffffffffffffffffffffffff191614159050919050565b61190d611b8b565b60405180602001604052808315158152509050919050565b61192d611ba0565b7f000000000000000000000000000000000000000000000000000000000000000073ffffffffffffffffffffffffffffffffffffffff1663992403368585856040518463ffffffff1660e01b815260040161198a939291906142ef565b600060405180830381865afa1580156119a7573d6000803e3d6000fd5b505050506040513d6000823e3d601f19601f820116820180604052508101906119d091906145c9565b90509392505050565b604051806060016040528060006fffffffffffffffffffffffffffffffff19168152602001600015158152602001600081525090565b604051806040016040528060006fffffffffffffffffffffffffffffffff19168152602001611a3c611b8b565b81525090565b6040518060c0016040528060006005811115611a6157611a60612807565b5b815260200160008152602001600015158152602001600015158152602001600015158152602001606081525090565b6040518060e0016040528060006004811115611aaf57611aae612807565b5b815260200160006fffffffffffffffffffffffffffffffff1916815260200160006fffffffffffffffffffffffffffffffff1916815260200160008152602001600015158152602001600015158152602001606081525090565b604051806060016040528060608152602001600015158152602001606081525090565b6040518060c0016040528060006fffffffffffffffffffffffffffffffff1916815260200160006fffffffffffffffffffffffffffffffff19168152602001600080191681526020016060815260200160608152602001606081525090565b60405180602001604052806000151581525090565b604051806080016040528060006fffffffffffffffffffffffffffffffff191681526020016060815260200160608152602001611bdb611b09565b81525090565b6000819050919050565b611bf481611be1565b82525050565b6000602082019050611c0f6000830184611beb565b92915050565b600073ffffffffffffffffffffffffffffffffffffffff82169050919050565b6000819050919050565b6000611c5a611c55611c5084611c15565b611c35565b611c15565b9050919050565b6000611c6c82611c3f565b9050919050565b6000611c7e82611c61565b9050919050565b611c8e81611c73565b82525050565b6000602082019050611ca96000830184611c85565b92915050565b6000604051905090565b600080fd5b600080fd5b6000611cce82611c15565b9050919050565b611cde81611cc3565b8114611ce957600080fd5b50565b600081359050611cfb81611cd5565b92915050565b600060208284031215611d1757611d16611cb9565b5b6000611d2584828501611cec565b91505092915050565b600081519050919050565b600082825260208201905092915050565b6000819050602082019050919050565b60007fffffffffffffffffffffffffffffffff0000000000000000000000000000000082169050919050565b611d8f81611d5a565b82525050565b60008115159050919050565b611daa81611d95565b82525050565b611db981611be1565b82525050565b606082016000820151611dd56000850182611d86565b506020820151611de86020850182611da1565b506040820151611dfb6040850182611db0565b50505050565b6000611e0d8383611dbf565b60608301905092915050565b6000602082019050919050565b6000611e3182611d2e565b611e3b8185611d39565b9350611e4683611d4a565b8060005b83811015611e77578151611e5e8882611e01565b9750611e6983611e19565b925050600181019050611e4a565b5085935050505092915050565b60006020820190508181036000830152611e9e8184611e26565b905092915050565b600080fd5b6000601f19601f8301169050919050565b7f4e487b7100000000000000000000000000000000000000000000000000000000600052604160045260246000fd5b611ef482611eab565b810181811067ffffffffffffffff82111715611f1357611f12611ebc565b5b80604052505050565b6000611f26611caf565b9050611f328282611eeb565b919050565b600067ffffffffffffffff821115611f5257611f51611ebc565b5b602082029050602081019050919050565b600080fd5b600080fd5b600080fd5b611f7b81611be1565b8114611f8657600080fd5b50565b600081359050611f9881611f72565b92915050565b611fa781611d5a565b8114611fb257600080fd5b50565b600081359050611fc481611f9e565b92915050565b600060608284031215611fe057611fdf611f68565b5b611fea6060611f1c565b90506000611ffa84828501611f89565b600083015250602061200e84828501611fb5565b602083015250604061202284828501611f89565b60408301525092915050565b600061204161203c84611f37565b611f1c565b9050808382526020820190506060840283018581111561206457612063611f63565b5b835b8181101561208d57806120798882611fca565b845260208401935050606081019050612066565b5050509392505050565b600082601f8301126120ac576120ab611ea6565b5b81356120bc84826020860161202e565b91505092915050565b6000602082840312156120db576120da611cb9565b5b600082013567ffffffffffffffff8111156120f9576120f8611cbe565b5b61210584828501612097565b91505092915050565b6020820160008201516121246000850182611da1565b50505050565b6040820160008201516121406000850182611d86565b506020820151612153602085018261210e565b50505050565b600060408201905061216e600083018461212a565b92915050565b61217d81611cc3565b82525050565b60006020820190506121986000830184612174565b92915050565b600080fd5b600067ffffffffffffffff8211156121be576121bd611ebc565b5b6121c782611eab565b9050602081019050919050565b82818337600083830152505050565b60006121f66121f1846121a3565b611f1c565b9050828152602081018484840111156122125761221161219e565b5b61221d8482856121d4565b509392505050565b600082601f83011261223a57612239611ea6565b5b813561224a8482602086016121e3565b91505092915050565b6000806040838503121561226a57612269611cb9565b5b600061227885828601611cec565b925050602083013567ffffffffffffffff81111561229957612298611cbe565b5b6122a585828601612225565b9150509250929050565b6122b881611d95565b82525050565b60006020820190506122d360008301846122af565b92915050565b600080604083850312156122f0576122ef611cb9565b5b60006122fe85828601611cec565b925050602061230f85828601611fb5565b9150509250929050565b61232281611d5a565b82525050565b600060608201905061233d6000830186612319565b61234a60208301856122af565b6123576040830184611beb565b949350505050565b600081519050919050565b600082825260208201905092915050565b6000819050602082019050919050565b60006123978383611d86565b60208301905092915050565b6000602082019050919050565b60006123bb8261235f565b6123c5818561236a565b93506123d08361237b565b8060005b838110156124015781516123e8888261238b565b97506123f3836123a3565b9250506001810190506123d4565b5085935050505092915050565b6000602082019050818103600083015261242881846123b0565b905092915050565b60006020820190506124456000830184612319565b92915050565b60006020828403121561246157612460611cb9565b5b600061246f84828501611fb5565b91505092915050565b600060608201905061248d6000830186611beb565b61249a6020830185612319565b6124a76040830184611beb565b949350505050565b600067ffffffffffffffff8211156124ca576124c9611ebc565b5b602082029050602081019050919050565b60006124ee6124e9846124af565b611f1c565b9050808382526020820190506020840283018581111561251157612510611f63565b5b835b8181101561253a57806125268882611fb5565b845260208401935050602081019050612513565b5050509392505050565b600082601f83011261255957612558611ea6565b5b81356125698482602086016124db565b91505092915050565b60006020828403121561258857612587611cb9565b5b600082013567ffffffffffffffff8111156125a6576125a5611cbe565b5b6125b284828501612544565b91505092915050565b7f4e487b7100000000000000000000000000000000000000000000000000000000600052603260045260246000fd5b7f4e487b7100000000000000000000000000000000000000000000000000000000600052601160045260246000fd5b600061262482611be1565b91507fffffffffffffffffffffffffffffffffffffffffffffffffffffffffffffffff8203612656576126556125ea565b5b600182019050919050565b600061266c82611be1565b915061267783611be1565b925082820190508082111561268f5761268e6125ea565b5b92915050565b600082825260208201905092915050565b7f4f776e61626c653a206e6577206f776e657220697320746865207a65726f206160008201527f6464726573730000000000000000000000000000000000000000000000000000602082015250565b6000612702602683612695565b915061270d826126a6565b604082019050919050565b60006020820190508181036000830152612731816126f5565b9050919050565b600061274382611be1565b915061274e83611be1565b9250828203905081811115612766576127656125ea565b5b92915050565b7f4e487b7100000000000000000000000000000000000000000000000000000000600052603160045260246000fd5b7f4f776e61626c653a2063616c6c6572206973206e6f7420746865206f776e6572600082015250565b60006127d1602083612695565b91506127dc8261279b565b602082019050919050565b60006020820190508181036000830152612800816127c4565b9050919050565b7f4e487b7100000000000000000000000000000000000000000000000000000000600052602160045260246000fd5b6006811061284757612846612807565b5b50565b600081905061285882612836565b919050565b60006128688261284a565b9050919050565b6128788161285d565b82525050565b6000602082019050612893600083018461286f565b92915050565b600681106128a657600080fd5b50565b6000815190506128b881612899565b92915050565b6000815190506128cd81611f72565b92915050565b6128dc81611d95565b81146128e757600080fd5b50565b6000815190506128f9816128d3565b92915050565b60005b8381101561291d578082015181840152602081019050612902565b60008484015250505050565b600061293c612937846121a3565b611f1c565b9050828152602081018484840111156129585761295761219e565b5b6129638482856128ff565b509392505050565b600082601f8301126129805761297f611ea6565b5b8151612990848260208601612929565b91505092915050565b600060c082840312156129af576129ae611f68565b5b6129b960c0611f1c565b905060006129c9848285016128a9565b60008301525060206129dd848285016128be565b60208301525060406129f1848285016128ea565b6040830152506060612a05848285016128ea565b6060830152506080612a19848285016128ea565b60808301525060a082015167ffffffffffffffff811115612a3d57612a3c611f6d565b5b612a498482850161296b565b60a08301525092915050565b600060208284031215612a6b57612a6a611cb9565b5b600082015167ffffffffffffffff811115612a8957612a88611cbe565b5b612a9584828501612999565b91505092915050565b6000606082019050612ab36000830186612319565b612ac060208301856122af565b612acd60408301846122af565b949350505050565b60058110612ae257600080fd5b50565b600081519050612af481612ad5565b92915050565b600081519050612b0981611f9e565b92915050565b600060e08284031215612b2557612b24611f68565b5b612b2f60e0611f1c565b90506000612b3f84828501612ae5565b6000830152506020612b5384828501612afa565b6020830152506040612b6784828501612afa565b6040830152506060612b7b848285016128be565b6060830152506080612b8f848285016128ea565b60808301525060a0612ba3848285016128ea565b60a08301525060c082015167ffffffffffffffff811115612bc757612bc6611f6d565b5b612bd38482850161296b565b60c08301525092915050565b600060208284031215612bf557612bf4611cb9565b5b600082015167ffffffffffffffff811115612c1357612c12611cbe565b5b612c1f84828501612b0f565b91505092915050565b600081519050919050565b600082825260208201905092915050565b6000612c4f82612c28565b612c598185612c33565b9350612c698185602086016128ff565b612c7281611eab565b840191505092915050565b60006020820190508181036000830152612c978184612c44565b905092915050565b600060608284031215612cb557612cb4611f68565b5b612cbf6060611f1c565b9050600082015167ffffffffffffffff811115612cdf57612cde611f6d565b5b612ceb8482850161296b565b6000830152506020612cff848285016128ea565b602083015250604082015167ffffffffffffffff811115612d2357612d22611f6d565b5b612d2f8482850161296b565b60408301525092915050565b600060208284031215612d5157612d50611cb9565b5b600082015167ffffffffffffffff811115612d6f57612d6e611cbe565b5b612d7b84828501612c9f565b91505092915050565b6000819050919050565b612d9781612d84565b8114612da257600080fd5b50565b600081519050612db481612d8e565b92915050565b600067ffffffffffffffff821115612dd557612dd4611ebc565b5b602082029050602081019050919050565b600067ffffffffffffffff821115612e0157612e00611ebc565b5b602082029050602081019050919050565b600060a08284031215612e2857612e27611f68565b5b612e3260a0611f1c565b90506000612e42848285016128a9565b6000830152506020612e56848285016128ea565b6020830152506040612e6a848285016128ea565b6040830152506060612e7e848285016128be565b606083015250608082015167ffffffffffffffff811115612ea257612ea1611f6d565b5b612eae8482850161296b565b60808301525092915050565b6000612ecd612ec884612de6565b611f1c565b90508083825260208201905060208402830185811115612ef057612eef611f63565b5b835b81811015612f3757805167ffffffffffffffff811115612f1557612f14611ea6565b5b808601612f228982612e12565b85526020850194505050602081019050612ef2565b5050509392505050565b600082601f830112612f5657612f55611ea6565b5b8151612f66848260208601612eba565b91505092915050565b600067ffffffffffffffff821115612f8a57612f89611ebc565b5b602082029050602081019050919050565b600060c08284031215612fb157612fb0611f68565b5b612fbb60c0611f1c565b90506000612fcb84828501612ae5565b6000830152506020612fdf84828501612afa565b6020830152506040612ff384828501612afa565b6040830152506060613007848285016128ea565b606083015250608061301b848285016128be565b60808301525060a082015167ffffffffffffffff81111561303f5761303e611f6d565b5b61304b8482850161296b565b60a08301525092915050565b600061306a61306584612f6f565b611f1c565b9050808382526020820190506020840283018581111561308d5761308c611f63565b5b835b818110156130d457805167ffffffffffffffff8111156130b2576130b1611ea6565b5b8086016130bf8982612f9b565b8552602085019450505060208101905061308f565b5050509392505050565b600082601f8301126130f3576130f2611ea6565b5b8151613103848260208601613057565b91505092915050565b600060a0828403121561312257613121611f68565b5b61312c60a0611f1c565b9050600082015167ffffffffffffffff81111561314c5761314b611f6d565b5b61315884828501612f41565b600083015250602082015167ffffffffffffffff81111561317c5761317b611f6d565b5b613188848285016130de565b602083015250604061319c84828501612da5565b604083015250606082015167ffffffffffffffff8111156131c0576131bf611f6d565b5b6131cc8482850161296b565b606083015250608082015167ffffffffffffffff8111156131f0576131ef611f6d565b5b6131fc8482850161296b565b60808301525092915050565b600061321b61321684612dba565b611f1c565b9050808382526020820190506020840283018581111561323e5761323d611f63565b5b835b8181101561328557805167ffffffffffffffff81111561326357613262611ea6565b5b808601613270898261310c565b85526020850194505050602081019050613240565b5050509392505050565b600082601f8301126132a4576132a3611ea6565b5b81516132b4848260208601613208565b91505092915050565b600060a082840312156132d3576132d2611f68565b5b6132dd60a0611f1c565b905060006132ed84828501612afa565b600083015250602061330184828501612afa565b602083015250604061331584828501612da5565b604083015250606082015167ffffffffffffffff81111561333957613338611f6d565b5b6133458482850161296b565b606083015250608082015167ffffffffffffffff81111561336957613368611f6d565b5b6133758482850161328f565b60808301525092915050565b60006020828403121561339757613396611cb9565b5b600082015167ffffffffffffffff8111156133b5576133b4611cbe565b5b6133c1848285016132bd565b91505092915050565b6133d381612d84565b82525050565b600082825260208201905092915050565b60006133f582612c28565b6133ff81856133d9565b935061340f8185602086016128ff565b61341881611eab565b840191505092915050565b600081519050919050565b600082825260208201905092915050565b6000819050602082019050919050565b600081519050919050565b600082825260208201905092915050565b6000819050602082019050919050565b6134848161285d565b82525050565b600060a0830160008301516134a2600086018261347b565b5060208301516134b56020860182611da1565b5060408301516134c86040860182611da1565b5060608301516134db6060860182611db0565b50608083015184820360808601526134f382826133ea565b9150508091505092915050565b600061350c838361348a565b905092915050565b6000602082019050919050565b600061352c8261344f565b613536818561345a565b9350836020820285016135488561346b565b8060005b8581101561358457848403895281516135658582613500565b945061357083613514565b925060208a0199505060018101905061354c565b50829750879550505050505092915050565b600081519050919050565b600082825260208201905092915050565b6000819050602082019050919050565b600581106135d3576135d2612807565b5b50565b60008190506135e4826135c2565b919050565b60006135f4826135d6565b9050919050565b613604816135e9565b82525050565b600060c08301600083015161362260008601826135fb565b5060208301516136356020860182611d86565b5060408301516136486040860182611d86565b50606083015161365b6060860182611da1565b50608083015161366e6080860182611db0565b5060a083015184820360a086015261368682826133ea565b9150508091505092915050565b600061369f838361360a565b905092915050565b6000602082019050919050565b60006136bf82613596565b6136c981856135a1565b9350836020820285016136db856135b2565b8060005b8581101561371757848403895281516136f88582613693565b9450613703836136a7565b925060208a019950506001810190506136df565b50829750879550505050505092915050565b600060a08301600083015184820360008601526137468282613521565b9150506020830151848203602086015261376082826136b4565b915050604083015161377560408601826133ca565b506060830151848203606086015261378d82826133ea565b915050608083015184820360808601526137a782826133ea565b9150508091505092915050565b60006137c08383613729565b905092915050565b6000602082019050919050565b60006137e082613423565b6137ea818561342e565b9350836020820285016137fc8561343f565b8060005b85811015613838578484038952815161381985826137b4565b9450613824836137c8565b925060208a01995050600181019050613800565b50829750879550505050505092915050565b600060a0830160008301516138626000860182611d86565b5060208301516138756020860182611d86565b50604083015161388860408601826133ca565b50606083015184820360608601526138a082826133ea565b915050608083015184820360808601526138ba82826137d5565b9150508091505092915050565b600081519050919050565b600082825260208201905092915050565b6000819050602082019050919050565b600060c08301600083015161390b600086018261347b565b50602083015161391e6020860182611db0565b5060408301516139316040860182611da1565b5060608301516139446060860182611da1565b5060808301516139576080860182611da1565b5060a083015184820360a086015261396f82826133ea565b9150508091505092915050565b600061398883836138f3565b905092915050565b6000602082019050919050565b60006139a8826138c7565b6139b281856138d2565b9350836020820285016139c4856138e3565b8060005b85811015613a0057848403895281516139e1858261397c565b94506139ec83613990565b925060208a019950506001810190506139c8565b50829750879550505050505092915050565b600081519050919050565b600082825260208201905092915050565b6000819050602082019050919050565b600060e083016000830151613a5660008601826135fb565b506020830151613a696020860182611d86565b506040830151613a7c6040860182611d86565b506060830151613a8f6060860182611db0565b506080830151613aa26080860182611da1565b5060a0830151613ab560a0860182611da1565b5060c083015184820360c0860152613acd82826133ea565b9150508091505092915050565b6000613ae68383613a3e565b905092915050565b6000602082019050919050565b6000613b0682613a12565b613b108185613a1d565b935083602082028501613b2285613a2e565b8060005b85811015613b5e5784840389528151613b3f8582613ada565b9450613b4a83613aee565b925060208a01995050600181019050613b26565b50829750879550505050505092915050565b60006060830160008301518482036000860152613b8d82826133ea565b9150506020830151613ba26020860182611da1565b5060408301518482036040860152613bba82826133ea565b9150508091505092915050565b6000608083016000830151613bdf6000860182611d86565b5060208301518482036020860152613bf7828261399d565b91505060408301518482036040860152613c118282613afb565b91505060608301518482036060860152613c2b8282613b70565b9150508091505092915050565b60006080820190508181036000830152613c52818661384a565b90508181036020830152613c668185613bc7565b9050613c75604083018461212a565b949350505050565b600067ffffffffffffffff821115613c9857613c97611ebc565b5b602082029050602081019050919050565b600060a08284031215613cbf57613cbe611f68565b5b613cc960a0611f1c565b90506000613cd9848285016128a9565b6000830152506020613ced848285016128ea565b6020830152506040613d01848285016128be565b604083015250606082015167ffffffffffffffff811115613d2557613d24611f6d565b5b613d318482850161296b565b606083015250608082015167ffffffffffffffff811115613d5557613d54611f6d565b5b613d618482850161296b565b60808301525092915050565b6000613d80613d7b84613c7d565b611f1c565b90508083825260208201905060208402830185811115613da357613da2611f63565b5b835b81811015613dea57805167ffffffffffffffff811115613dc857613dc7611ea6565b5b808601613dd58982613ca9565b85526020850194505050602081019050613da5565b5050509392505050565b600082601f830112613e0957613e08611ea6565b5b8151613e19848260208601613d6d565b91505092915050565b600067ffffffffffffffff821115613e3d57613e3c611ebc565b5b602082029050602081019050919050565b600060e08284031215613e6457613e63611f68565b5b613e6e60e0611f1c565b90506000613e7e84828501612ae5565b6000830152506020613e9284828501612afa565b6020830152506040613ea684828501612afa565b6040830152506060613eba848285016128be565b606083015250608082015167ffffffffffffffff811115613ede57613edd611f6d565b5b613eea8482850161296b565b60808301525060a0613efe848285016128be565b60a08301525060c082015167ffffffffffffffff811115613f2257613f21611f6d565b5b613f2e8482850161296b565b60c08301525092915050565b6000613f4d613f4884613e22565b611f1c565b90508083825260208201905060208402830185811115613f7057613f6f611f63565b5b835b81811015613fb757805167ffffffffffffffff811115613f9557613f94611ea6565b5b808601613fa28982613e4e565b85526020850194505050602081019050613f72565b5050509392505050565b600082601f830112613fd657613fd5611ea6565b5b8151613fe6848260208601613f3a565b91505092915050565b600060c0828403121561400557614004611f68565b5b61400f60c0611f1c565b9050600061401f84828501612afa565b600083015250602061403384828501612afa565b602083015250604061404784828501612da5565b604083015250606082015167ffffffffffffffff81111561406b5761406a611f6d565b5b61407784828501613df4565b606083015250608082015167ffffffffffffffff81111561409b5761409a611f6d565b5b6140a784828501613fc1565b60808301525060a082015167ffffffffffffffff8111156140cb576140ca611f6d565b5b6140d78482850161296b565b60a08301525092915050565b6000602082840312156140f9576140f8611cb9565b5b600082015167ffffffffffffffff81111561411757614116611cbe565b5b61412384828501613fef565b91505092915050565b7f4e487b7100000000000000000000000000000000000000000000000000000000600052601260045260246000fd5b600061416682611be1565b915061417183611be1565b9250826141815761418061412c565b5b828206905092915050565b600082825260208201905092915050565b60006141a8826138c7565b6141b2818561418c565b9350836020820285016141c4856138e3565b8060005b8581101561420057848403895281516141e1858261397c565b94506141ec83613990565b925060208a019950506001810190506141c8565b50829750879550505050505092915050565b600082825260208201905092915050565b600061422e82613a12565b6142388185614212565b93508360208202850161424a85613a2e565b8060005b8581101561428657848403895281516142678582613ada565b945061427283613aee565b925060208a0199505060018101905061424e565b50829750879550505050505092915050565b600060608301600083015184820360008601526142b582826133ea565b91505060208301516142ca6020860182611da1565b50604083015184820360408601526142e282826133ea565b9150508091505092915050565b60006060820190508181036000830152614309818661419d565b9050818103602083015261431d8185614223565b905081810360408301526143318184614298565b9050949350505050565b600067ffffffffffffffff82111561435657614355611ebc565b5b602082029050602081019050919050565b600061437a6143758461433b565b611f1c565b9050808382526020820190506020840283018581111561439d5761439c611f63565b5b835b818110156143e457805167ffffffffffffffff8111156143c2576143c1611ea6565b5b8086016143cf8982612999565b8552602085019450505060208101905061439f565b5050509392505050565b600082601f83011261440357614402611ea6565b5b8151614413848260208601614367565b91505092915050565b600067ffffffffffffffff82111561443757614436611ebc565b5b602082029050602081019050919050565b600061445b6144568461441c565b611f1c565b9050808382526020820190506020840283018581111561447e5761447d611f63565b5b835b818110156144c557805167ffffffffffffffff8111156144a3576144a2611ea6565b5b8086016144b08982612b0f565b85526020850194505050602081019050614480565b5050509392505050565b600082601f8301126144e4576144e3611ea6565b5b81516144f4848260208601614448565b91505092915050565b60006080828403121561451357614512611f68565b5b61451d6080611f1c565b9050600061452d84828501612afa565b600083015250602082015167ffffffffffffffff81111561455157614550611f6d565b5b61455d848285016143ee565b602083015250604082015167ffffffffffffffff81111561458157614580611f6d565b5b61458d848285016144cf565b604083015250606082015167ffffffffffffffff8111156145b1576145b0611f6d565b5b6145bd84828501612c9f565b60608301525092915050565b6000602082840312156145df576145de611cb9565b5b600082015167ffffffffffffffff8111156145fd576145fc611cbe565b5b614609848285016144fd565b9150509291505056fea26469706673582212206b0582c123962d84d01ad6d3c17afe7aec5e92322848a40308369db2bb97ec4c64736f6c63430008140033",
    "linkReferences": {}
  },
  "methodIdentifiers": {
    "ADDRESSES_PROVIDER_V2()": "46916301",
    "APP_ID()": "c187bbc1",
    "IS_IMPERSONATION_MODE()": "a183dc27",
    "REFRESH_DURATION()": "44580952",
    "SISMO_CONNECT_LIB_VERSION()": "c9512d99",
    "addDataGroups((uint256,bytes16,uint256)[])": "606b4fc7",
    "bindCredential(address,bytes)": "9a9e4b42",
    "config()": "79502c55",
    "deleteDataGroups(bytes16[])": "f7fe2e28",
    "getCredentialInfo(address,bytes16)": "a30caa5f",
    "getCredentialInfoList(address)": "554b423c",
    "getGroupIds()": "c02b8b2c",
    "getGroupSetup(bytes16)": "ca7a1a36",
    "owner()": "8da5cb5b",
    "renounceOwnership()": "715018a6",
    "transferOwnership(address)": "f2fde38b"
  },
  "id": 35
}