{
  "abi": [
    {
      "inputs": [
        {
          "internalType": "bytes16",
          "name": "appId",
          "type": "bytes16"
        },
        {
          "internalType": "uint256",
          "name": "duration",
          "type": "uint256"
        },
        {
          "internalType": "bool",
          "name": "isImpersonationMode",
          "type": "bool"
        },
        {
          "components": [
            {
              "internalType": "uint256",
              "name": "startAt",
              "type": "uint256"
            },
            {
              "internalType": "bytes16",
              "name": "groupId",
              "type": "bytes16"
            },
            {
              "internalType": "uint256",
              "name": "duration",
              "type": "uint256"
            }
          ],
          "internalType": "struct DataTypes.GroupSetup[]",
          "name": "groups",
          "type": "tuple[]"
        }
      ],
      "stateMutability": "nonpayable",
      "type": "constructor"
    },
    {
      "inputs": [
        {
          "internalType": "enum AuthType",
          "name": "authType",
          "type": "uint8"
        }
      ],
      "name": "AuthTypeNotFoundInVerifiedResult",
      "type": "error"
    },
    {
      "inputs": [],
      "name": "InvalidAddress",
      "type": "error"
    },
    {
      "anonymous": false,
      "inputs": [
        {
          "indexed": true,
          "internalType": "address",
          "name": "previousOwner",
          "type": "address"
        },
        {
          "indexed": true,
          "internalType": "address",
          "name": "newOwner",
          "type": "address"
        }
      ],
      "name": "OwnershipTransferred",
      "type": "event"
    },
    {
      "inputs": [],
      "name": "ADDRESSES_PROVIDER_V2",
      "outputs": [
        {
          "internalType": "contract IAddressesProvider",
          "name": "",
          "type": "address"
        }
      ],
      "stateMutability": "view",
      "type": "function"
    },
    {
      "inputs": [],
      "name": "APP_ID",
      "outputs": [
        {
          "internalType": "bytes16",
          "name": "",
          "type": "bytes16"
        }
      ],
      "stateMutability": "view",
      "type": "function"
    },
    {
      "inputs": [],
      "name": "IS_IMPERSONATION_MODE",
      "outputs": [
        {
          "internalType": "bool",
          "name": "",
          "type": "bool"
        }
      ],
      "stateMutability": "view",
      "type": "function"
    },
    {
      "inputs": [],
      "name": "REFRESH_DURATION",
      "outputs": [
        {
          "internalType": "uint256",
          "name": "",
          "type": "uint256"
        }
      ],
      "stateMutability": "view",
      "type": "function"
    },
    {
      "inputs": [],
      "name": "SISMO_CONNECT_LIB_VERSION",
      "outputs": [
        {
          "internalType": "uint256",
          "name": "",
          "type": "uint256"
        }
      ],
      "stateMutability": "view",
      "type": "function"
    },
    {
      "inputs": [
        {
          "components": [
            {
              "internalType": "uint256",
              "name": "startAt",
              "type": "uint256"
            },
            {
              "internalType": "bytes16",
              "name": "groupId",
              "type": "bytes16"
            },
            {
              "internalType": "uint256",
              "name": "duration",
              "type": "uint256"
            }
          ],
          "internalType": "struct DataTypes.GroupSetup[]",
          "name": "_groups",
          "type": "tuple[]"
        }
      ],
      "name": "addDataGroups",
      "outputs": [],
      "stateMutability": "nonpayable",
      "type": "function"
    },
    {
      "inputs": [
        {
          "internalType": "address",
          "name": "account",
          "type": "address"
        },
        {
          "internalType": "bytes",
          "name": "proof",
          "type": "bytes"
        }
      ],
      "name": "bindCredential",
      "outputs": [],
      "stateMutability": "nonpayable",
      "type": "function"
    },
    {
      "inputs": [],
      "name": "config",
      "outputs": [
        {
          "components": [
            {
              "internalType": "bytes16",
              "name": "appId",
              "type": "bytes16"
            },
            {
              "components": [
                {
                  "internalType": "bool",
                  "name": "isImpersonationMode",
                  "type": "bool"
                }
              ],
              "internalType": "struct VaultConfig",
              "name": "vault",
              "type": "tuple"
            }
          ],
          "internalType": "struct SismoConnectConfig",
          "name": "",
          "type": "tuple"
        }
      ],
      "stateMutability": "view",
      "type": "function"
    },
    {
      "inputs": [
        {
          "internalType": "bytes16[]",
          "name": "groupIds",
          "type": "bytes16[]"
        }
      ],
      "name": "deleteDataGroups",
      "outputs": [],
      "stateMutability": "nonpayable",
      "type": "function"
    },
    {
      "inputs": [
        {
          "internalType": "address",
          "name": "",
          "type": "address"
        },
        {
          "internalType": "bytes16",
          "name": "",
          "type": "bytes16"
        }
      ],
      "name": "getCredentialInfo",
      "outputs": [
        {
          "internalType": "bytes16",
          "name": "groupId",
          "type": "bytes16"
        },
        {
          "internalType": "bool",
          "name": "value",
          "type": "bool"
        },
        {
          "internalType": "uint256",
          "name": "expiredAt",
          "type": "uint256"
        }
      ],
      "stateMutability": "view",
      "type": "function"
    },
    {
      "inputs": [
        {
          "internalType": "address",
          "name": "account",
          "type": "address"
        }
      ],
      "name": "getCredentialInfoList",
      "outputs": [
        {
          "components": [
            {
              "internalType": "bytes16",
              "name": "groupId",
              "type": "bytes16"
            },
            {
              "internalType": "bool",
              "name": "value",
              "type": "bool"
            },
            {
              "internalType": "uint256",
              "name": "expiredAt",
              "type": "uint256"
            }
          ],
          "internalType": "struct DataTypes.CredentialInfo[]",
          "name": "",
          "type": "tuple[]"
        }
      ],
      "stateMutability": "view",
      "type": "function"
    },
    {
      "inputs": [],
      "name": "getGroupIds",
      "outputs": [
        {
          "internalType": "bytes16[]",
          "name": "",
          "type": "bytes16[]"
        }
      ],
      "stateMutability": "view",
      "type": "function"
    },
    {
      "inputs": [
        {
          "internalType": "bytes16",
          "name": "",
          "type": "bytes16"
        }
      ],
      "name": "getGroupSetup",
      "outputs": [
        {
          "internalType": "uint256",
          "name": "startAt",
          "type": "uint256"
        },
        {
          "internalType": "bytes16",
          "name": "groupId",
          "type": "bytes16"
        },
        {
          "internalType": "uint256",
          "name": "duration",
          "type": "uint256"
        }
      ],
      "stateMutability": "view",
      "type": "function"
    },
    {
      "inputs": [],
      "name": "owner",
      "outputs": [
        {
          "internalType": "address",
          "name": "",
          "type": "address"
        }
      ],
      "stateMutability": "view",
      "type": "function"
    },
    {
      "inputs": [],
      "name": "renounceOwnership",
      "outputs": [],
      "stateMutability": "nonpayable",
      "type": "function"
    },
    {
      "inputs": [
        {
          "internalType": "address",
          "name": "newOwner",
          "type": "address"
        }
      ],
      "name": "transferOwnership",
      "outputs": [],
      "stateMutability": "nonpayable",
      "type": "function"
    }
  ],
  "bytecode": {
    "object": "0x6101806040523480156200001257600080fd5b506040516200553238038062005532833981810160405281019062000038919062000c41565b6200004a8483620005bf60201b60201c565b80600001516fffffffffffffffffffffffffffffffff1916610120816fffffffffffffffffffffffffffffffff191681525050806020015160000151151561014081151581525050733cd5334eb64ebbd4003b72022cc25465f1bfcee673ffffffffffffffffffffffffffffffffffffffff1663693ec85e6040518060400160405280601981526020017f7369736d6f436f6e6e65637456657269666965722d76312e32000000000000008152506040518263ffffffff1660e01b815260040162000116919062000d5b565b602060405180830381865afa15801562000134573d6000803e3d6000fd5b505050506040513d601f19601f820116820180604052508101906200015a919062000de4565b73ffffffffffffffffffffffffffffffffffffffff1660808173ffffffffffffffffffffffffffffffffffffffff1681525050733cd5334eb64ebbd4003b72022cc25465f1bfcee673ffffffffffffffffffffffffffffffffffffffff1663693ec85e6040518060400160405280601781526020017f61757468526571756573744275696c6465722d76312e310000000000000000008152506040518263ffffffff1660e01b815260040162000211919062000d5b565b602060405180830381865afa1580156200022f573d6000803e3d6000fd5b505050506040513d601f19601f8201168201806040525081019062000255919062000de4565b73ffffffffffffffffffffffffffffffffffffffff1660a08173ffffffffffffffffffffffffffffffffffffffff1681525050733cd5334eb64ebbd4003b72022cc25465f1bfcee673ffffffffffffffffffffffffffffffffffffffff1663693ec85e6040518060400160405280601881526020017f636c61696d526571756573744275696c6465722d76312e3100000000000000008152506040518263ffffffff1660e01b81526004016200030c919062000d5b565b602060405180830381865afa1580156200032a573d6000803e3d6000fd5b505050506040513d601f19601f8201168201806040525081019062000350919062000de4565b73ffffffffffffffffffffffffffffffffffffffff1660c08173ffffffffffffffffffffffffffffffffffffffff1681525050733cd5334eb64ebbd4003b72022cc25465f1bfcee673ffffffffffffffffffffffffffffffffffffffff1663693ec85e6040518060400160405280601581526020017f7369676e61747572654275696c6465722d76312e3100000000000000000000008152506040518263ffffffff1660e01b815260040162000407919062000d5b565b602060405180830381865afa15801562000425573d6000803e3d6000fd5b505050506040513d601f19601f820116820180604052508101906200044b919062000de4565b73ffffffffffffffffffffffffffffffffffffffff1660e08173ffffffffffffffffffffffffffffffffffffffff1681525050733cd5334eb64ebbd4003b72022cc25465f1bfcee673ffffffffffffffffffffffffffffffffffffffff1663693ec85e6040518060400160405280601381526020017f726571756573744275696c6465722d76312e31000000000000000000000000008152506040518263ffffffff1660e01b815260040162000502919062000d5b565b602060405180830381865afa15801562000520573d6000803e3d6000fd5b505050506040513d601f19601f8201168201806040525081019062000546919062000de4565b73ffffffffffffffffffffffffffffffffffffffff166101008173ffffffffffffffffffffffffffffffffffffffff1681525050506200059b6200058f6200060960201b60201c565b6200061160201b60201c565b826101608181525050620005b581620006d560201b60201c565b5050505062000eef565b620005c962000925565b6040518060400160405280846fffffffffffffffffffffffffffffffff19168152602001620005fe846200088460201b60201c565b815250905092915050565b600033905090565b60008060009054906101000a900473ffffffffffffffffffffffffffffffffffffffff169050816000806101000a81548173ffffffffffffffffffffffffffffffffffffffff021916908373ffffffffffffffffffffffffffffffffffffffff1602179055508173ffffffffffffffffffffffffffffffffffffffff168173ffffffffffffffffffffffffffffffffffffffff167f8be0079c531659141344cd1fd0a4f28419497f9722a3daafe3b4186f6b6457e060405160405180910390a35050565b60005b815181101562000880576000828281518110620006fa57620006f962000e16565b5b60200260200101516020015190506200071981620008a660201b60201c565b156200072657506200086a565b8282815181106200073c576200073b62000e16565b5b602002602001015160036000836fffffffffffffffffffffffffffffffff19166fffffffffffffffffffffffffffffffff191681526020019081526020016000206000820151816000015560208201518160010160006101000a8154816fffffffffffffffffffffffffffffffff021916908360801c02179055506040820151816002015590505060048190806001815401808255809150506001900390600052602060002090600291828204019190066010029091909190916101000a8154816fffffffffffffffffffffffffffffffff021916908360801c0217905550806fffffffffffffffffffffffffffffffff19167fb2fa04fb2e018cd3c3ce08eebdfc1d237122791afaeedcb401848b9171d9c32d4260405162000860919062000e56565b60405180910390a2505b8080620008779062000ea2565b915050620006d8565b5050565b6200088e6200095a565b60405180602001604052808315158152509050919050565b60008060801b6fffffffffffffffffffffffffffffffff191660036000846fffffffffffffffffffffffffffffffff19166fffffffffffffffffffffffffffffffff1916815260200190815260200160002060010160009054906101000a900460801b6fffffffffffffffffffffffffffffffff191614159050919050565b604051806040016040528060006fffffffffffffffffffffffffffffffff19168152602001620009546200095a565b81525090565b60405180602001604052806000151581525090565b6000604051905090565b600080fd5b600080fd5b60007fffffffffffffffffffffffffffffffff0000000000000000000000000000000082169050919050565b620009ba8162000983565b8114620009c657600080fd5b50565b600081519050620009da81620009af565b92915050565b6000819050919050565b620009f581620009e0565b811462000a0157600080fd5b50565b60008151905062000a1581620009ea565b92915050565b60008115159050919050565b62000a328162000a1b565b811462000a3e57600080fd5b50565b60008151905062000a528162000a27565b92915050565b600080fd5b6000601f19601f8301169050919050565b7f4e487b7100000000000000000000000000000000000000000000000000000000600052604160045260246000fd5b62000aa88262000a5d565b810181811067ffffffffffffffff8211171562000aca5762000ac962000a6e565b5b80604052505050565b600062000adf6200096f565b905062000aed828262000a9d565b919050565b600067ffffffffffffffff82111562000b105762000b0f62000a6e565b5b602082029050602081019050919050565b600080fd5b600080fd5b60006060828403121562000b445762000b4362000b26565b5b62000b50606062000ad3565b9050600062000b628482850162000a04565b600083015250602062000b7884828501620009c9565b602083015250604062000b8e8482850162000a04565b60408301525092915050565b600062000bb162000bab8462000af2565b62000ad3565b9050808382526020820190506060840283018581111562000bd75762000bd662000b21565b5b835b8181101562000c04578062000bef888262000b2b565b84526020840193505060608101905062000bd9565b5050509392505050565b600082601f83011262000c265762000c2562000a58565b5b815162000c3884826020860162000b9a565b91505092915050565b6000806000806080858703121562000c5e5762000c5d62000979565b5b600062000c6e87828801620009c9565b945050602062000c818782880162000a04565b935050604062000c948782880162000a41565b925050606085015167ffffffffffffffff81111562000cb85762000cb76200097e565b5b62000cc68782880162000c0e565b91505092959194509250565b600081519050919050565b600082825260208201905092915050565b60005b8381101562000d0e57808201518184015260208101905062000cf1565b60008484015250505050565b600062000d278262000cd2565b62000d33818562000cdd565b935062000d4581856020860162000cee565b62000d508162000a5d565b840191505092915050565b6000602082019050818103600083015262000d77818462000d1a565b905092915050565b600073ffffffffffffffffffffffffffffffffffffffff82169050919050565b600062000dac8262000d7f565b9050919050565b62000dbe8162000d9f565b811462000dca57600080fd5b50565b60008151905062000dde8162000db3565b92915050565b60006020828403121562000dfd5762000dfc62000979565b5b600062000e0d8482850162000dcd565b91505092915050565b7f4e487b7100000000000000000000000000000000000000000000000000000000600052603260045260246000fd5b62000e5081620009e0565b82525050565b600060208201905062000e6d600083018462000e45565b92915050565b7f4e487b7100000000000000000000000000000000000000000000000000000000600052601160045260246000fd5b600062000eaf82620009e0565b91507fffffffffffffffffffffffffffffffffffffffffffffffffffffffffffffffff820362000ee45762000ee362000e73565b5b600182019050919050565b60805160a05160c05160e051610100516101205161014051610160516145c862000f6a60003960008181610305015261087c01526000818161057d015261090001526000818161055c0152610a03015260006118af015260006112110152600061115d015260006110af015260006112e601526145c86000f3fe608060405234801561001057600080fd5b50600436106101005760003560e01c8063a183dc2711610097578063c9512d9911610066578063c9512d991461027b578063ca7a1a3614610299578063f2fde38b146102cb578063f7fe2e28146102e757610100565b8063a183dc27146101ef578063a30caa5f1461020d578063c02b8b2c1461023f578063c187bbc11461025d57610100565b8063715018a6116100d3578063715018a61461018d57806379502c55146101975780638da5cb5b146101b55780639a9e4b42146101d357610100565b806344580952146101055780634691630114610123578063554b423c14610141578063606b4fc714610171575b600080fd5b61010d610303565b60405161011a9190611b7a565b60405180910390f35b61012b610327565b6040516101389190611c14565b60405180910390f35b61015b60048036038101906101569190611c81565b61033f565b6040516101689190611e04565b60405180910390f35b61018b60048036038101906101869190612045565b610527565b005b61019561053b565b005b61019f61054f565b6040516101ac91906120d9565b60405180910390f35b6101bd6105a6565b6040516101ca9190612103565b60405180910390f35b6101ed60048036038101906101e891906121d3565b6105cf565b005b6101f76108fe565b604051610204919061223e565b60405180910390f35b61022760048036038101906102229190612259565b610922565b604051610236939291906122a8565b60405180910390f35b610247610973565b604051610254919061238e565b60405180910390f35b610265610a01565b60405161027291906123b0565b60405180910390f35b610283610a25565b6040516102909190611b7a565b60405180910390f35b6102b360048036038101906102ae91906123cb565b610a2a565b6040516102c2939291906123f8565b60405180910390f35b6102e560048036038101906102e09190611c81565b610a61565b005b61030160048036038101906102fc91906124f2565b610ae4565b005b7f000000000000000000000000000000000000000000000000000000000000000081565b733cd5334eb64ebbd4003b72022cc25465f1bfcee681565b60606000600480549050905060008167ffffffffffffffff81111561036757610366611e3c565b5b6040519080825280602002602001820160405280156103a057816020015b61038d611959565b8152602001906001900390816103855790505b50905060005b8281101561051c576000600260008773ffffffffffffffffffffffffffffffffffffffff1673ffffffffffffffffffffffffffffffffffffffff1681526020019081526020016000206000600484815481106104055761040461253b565b5b90600052602060002090600291828204019190066010029054906101000a900460801b6fffffffffffffffffffffffffffffffff19166fffffffffffffffffffffffffffffffff191681526020019081526020016000206040518060600160405290816000820160009054906101000a900460801b6fffffffffffffffffffffffffffffffff19166fffffffffffffffffffffffffffffffff191681526020016000820160109054906101000a900460ff16151515158152602001600182015481525050905042816040015110156104e95760008160200190151590811515815250505b808383815181106104fd576104fc61253b565b5b602002602001018190525050808061051490612599565b9150506103a6565b508092505050919050565b61052f610d8a565b61053881610e08565b50565b610543610d8a565b61054d6000610fa1565b565b61055761198f565b6105a17f00000000000000000000000000000000000000000000000000000000000000007f0000000000000000000000000000000000000000000000000000000000000000611065565b905090565b60008060009054906101000a900473ffffffffffffffffffffffffffffffffffffffff16905090565b600073ffffffffffffffffffffffffffffffffffffffff168273ffffffffffffffffffffffffffffffffffffffff1603610635576040517fe6c4247b00000000000000000000000000000000000000000000000000000000815260040160405180910390fd5b6000600167ffffffffffffffff81111561065257610651611e3c565b5b60405190808252806020026020018201604052801561068b57816020015b6106786119c2565b8152602001906001900390816106705790505b50905061069860006110a5565b816000815181106106ac576106ab61253b565b5b60200260200101819052506000600480549050905060008167ffffffffffffffff8111156106dd576106dc611e3c565b5b60405190808252806020026020018201604052801561071657816020015b610703611a10565b8152602001906001900390816106fb5790505b50905060005b82811015610798576107676004828154811061073b5761073a61253b565b5b90600052602060002090600291828204019190066010029054906101000a900460801b60016000611153565b82828151811061077a5761077961253b565b5b6020026020010181905250808061079090612599565b91505061071c565b5060006107ce8585846107c98a6040516020016107b59190612103565b604051602081830303815290604052611207565b6112b5565b905060006107e660008361139c90919063ffffffff16565b90506000600160008381526020019081526020016000209050428160010154116108c4576108378160000160009054906101000a900473ffffffffffffffffffffffffffffffffffffffff16611480565b878160000160006101000a81548173ffffffffffffffffffffffffffffffffffffffff021916908373ffffffffffffffffffffffffffffffffffffffff1602179055507f0000000000000000000000000000000000000000000000000000000000000000426108a691906125e1565b81600101819055506108b988848461159b565b5050505050506108fa565b6108f38160000160009054906101000a900473ffffffffffffffffffffffffffffffffffffffff16848461159b565b5050505050505b5050565b7f000000000000000000000000000000000000000000000000000000000000000081565b6002602052816000526040600020602052806000526040600020600091509150508060000160009054906101000a900460801b908060000160109054906101000a900460ff16908060010154905083565b606060048054806020026020016040519081016040528092919081815260200182805480156109f757602002820191906000526020600020906000905b82829054906101000a900460801b6fffffffffffffffffffffffffffffffff191681526020019060100190602082600f010492830192600103820291508084116109b05790505b5050505050905090565b7f000000000000000000000000000000000000000000000000000000000000000081565b600281565b60036020528060005260406000206000915090508060000154908060010160009054906101000a900460801b908060020154905083565b610a69610d8a565b600073ffffffffffffffffffffffffffffffffffffffff168173ffffffffffffffffffffffffffffffffffffffff1603610ad8576040517f08c379a0000000000000000000000000000000000000000000000000000000008152600401610acf90612698565b60405180910390fd5b610ae181610fa1565b50565b610aec610d8a565b60005b8151811015610d86576000600480549050905060005b81811015610d7157838381518110610b2057610b1f61253b565b5b60200260200101516fffffffffffffffffffffffffffffffff191660048281548110610b4f57610b4e61253b565b5b90600052602060002090600291828204019190066010029054906101000a900460801b6fffffffffffffffffffffffffffffffff191603610d5e576004600183610b9991906126b8565b81548110610baa57610ba961253b565b5b90600052602060002090600291828204019190066010029054906101000a900460801b60048281548110610be157610be061253b565b5b90600052602060002090600291828204019190066010026101000a8154816fffffffffffffffffffffffffffffffff021916908360801c02179055506004805480610c2f57610c2e6126ec565b5b60019003818190600052602060002090600291828204019190066010026101000a8154906fffffffffffffffffffffffffffffffff0219169055905560036000858581518110610c8257610c8161253b565b5b60200260200101516fffffffffffffffffffffffffffffffff19166fffffffffffffffffffffffffffffffff191681526020019081526020016000206000808201600090556001820160006101000a8154906fffffffffffffffffffffffffffffffff021916905560028201600090555050838381518110610d0757610d0661253b565b5b60200260200101516fffffffffffffffffffffffffffffffff19167ffef4feffebebcf904cb9612e4fb69a9e411e2da9569cfcc35a50eac4a2e8cf0142604051610d519190611b7a565b60405180910390a2610d71565b8080610d6990612599565b915050610b05565b50508080610d7e90612599565b915050610aef565b5050565b610d926117fe565b73ffffffffffffffffffffffffffffffffffffffff16610db06105a6565b73ffffffffffffffffffffffffffffffffffffffff1614610e06576040517f08c379a0000000000000000000000000000000000000000000000000000000008152600401610dfd90612767565b60405180910390fd5b565b60005b8151811015610f9d576000828281518110610e2957610e2861253b565b5b6020026020010151602001519050610e4081611806565b15610e4b5750610f8a565b828281518110610e5e57610e5d61253b565b5b602002602001015160036000836fffffffffffffffffffffffffffffffff19166fffffffffffffffffffffffffffffffff191681526020019081526020016000206000820151816000015560208201518160010160006101000a8154816fffffffffffffffffffffffffffffffff021916908360801c02179055506040820151816002015590505060048190806001815401808255809150506001900390600052602060002090600291828204019190066010029091909190916101000a8154816fffffffffffffffffffffffffffffffff021916908360801c0217905550806fffffffffffffffffffffffffffffffff19167fb2fa04fb2e018cd3c3ce08eebdfc1d237122791afaeedcb401848b9171d9c32d42604051610f809190611b7a565b60405180910390a2505b8080610f9590612599565b915050610e0b565b5050565b60008060009054906101000a900473ffffffffffffffffffffffffffffffffffffffff169050816000806101000a81548173ffffffffffffffffffffffffffffffffffffffff021916908373ffffffffffffffffffffffffffffffffffffffff1602179055508173ffffffffffffffffffffffffffffffffffffffff168173ffffffffffffffffffffffffffffffffffffffff167f8be0079c531659141344cd1fd0a4f28419497f9722a3daafe3b4186f6b6457e060405160405180910390a35050565b61106d61198f565b6040518060400160405280846fffffffffffffffffffffffffffffffff1916815260200161109a84611885565b815250905092915050565b6110ad6119c2565b7f000000000000000000000000000000000000000000000000000000000000000073ffffffffffffffffffffffffffffffffffffffff16633a0ba6ff836040518263ffffffff1660e01b815260040161110691906127fe565b600060405180830381865afa158015611123573d6000803e3d6000fd5b505050506040513d6000823e3d601f19601f8201168201806040525081019061114c91906129d5565b9050919050565b61115b611a10565b7f000000000000000000000000000000000000000000000000000000000000000073ffffffffffffffffffffffffffffffffffffffff1663ee5decf28585856040518463ffffffff1660e01b81526004016111b893929190612a1e565b600060405180830381865afa1580156111d5573d6000803e3d6000fd5b505050506040513d6000823e3d601f19601f820116820180604052508101906111fe9190612b5f565b90509392505050565b61120f611a89565b7f000000000000000000000000000000000000000000000000000000000000000073ffffffffffffffffffffffffffffffffffffffff16636835f32c836040518263ffffffff1660e01b81526004016112689190612bfd565b600060405180830381865afa158015611285573d6000803e3d6000fd5b505050506040513d6000823e3d601f19601f820116820180604052508101906112ae9190612cbb565b9050919050565b6112bd611aac565b6000858060200190518101906112d39190613301565b905060006112e28686866118a5565b90507f000000000000000000000000000000000000000000000000000000000000000073ffffffffffffffffffffffffffffffffffffffff166312b037ff838361132a61054f565b6040518463ffffffff1660e01b815260040161134893929190613bb8565b6000604051808303816000875af1158015611367573d6000803e3d6000fd5b505050506040513d6000823e3d601f19601f820116820180604052508101906113909190614063565b92505050949350505050565b600080600090505b83606001515181101561143c578260058111156113c4576113c3612787565b5b846060015182815181106113db576113da61253b565b5b60200260200101516000015160058111156113f9576113f8612787565b5b0361142957836060015181815181106114155761141461253b565b5b60200260200101516040015191505061147a565b808061143490612599565b9150506113a4565b50816040517f267ac2cf00000000000000000000000000000000000000000000000000000000815260040161147191906127fe565b60405180910390fd5b92915050565b6000600480549050905060005b8181101561159657600260008473ffffffffffffffffffffffffffffffffffffffff1673ffffffffffffffffffffffffffffffffffffffff1681526020019081526020016000206000600483815481106114ea576114e961253b565b5b90600052602060002090600291828204019190066010029054906101000a900460801b6fffffffffffffffffffffffffffffffff19166fffffffffffffffffffffffffffffffff19168152602001908152602001600020600080820160006101000a8154906fffffffffffffffffffffffffffffffff02191690556000820160106101000a81549060ff021916905560018201600090555050808061158e90612599565b91505061148d565b505050565b60005b8260800151518110156117f8576000836080015182815181106115c4576115c361253b565b5b60200260200101519050600081602001519050600060036000836fffffffffffffffffffffffffffffffff19166fffffffffffffffffffffffffffffffff19168152602001908152602001600020604051806060016040529081600082015481526020016001820160009054906101000a900460801b6fffffffffffffffffffffffffffffffff19166fffffffffffffffffffffffffffffffff1916815260200160028201548152505090506000600260008973ffffffffffffffffffffffffffffffffffffffff1673ffffffffffffffffffffffffffffffffffffffff1681526020019081526020016000206000846fffffffffffffffffffffffffffffffff19166fffffffffffffffffffffffffffffffff1916815260200190815260200160002090506000826040015183600001514261170191906126b8565b61170b91906140db565b83604001514261171b91906125e1565b61172591906126b8565b905082602001518260000160006101000a8154816fffffffffffffffffffffffffffffffff021916908360801c021790555060018260000160106101000a81548160ff021916908315150217905550808260010181905550836fffffffffffffffffffffffffffffffff19168973ffffffffffffffffffffffffffffffffffffffff16887f0e9c826dc2832f02c4183d4ef5ae84466837894e42b97c1a7be69e825fa2138d846040516117d89190611b7a565b60405180910390a4505050505080806117f090612599565b91505061159e565b50505050565b600033905090565b60008060801b6fffffffffffffffffffffffffffffffff191660036000846fffffffffffffffffffffffffffffffff19166fffffffffffffffffffffffffffffffff1916815260200190815260200160002060010160009054906101000a900460801b6fffffffffffffffffffffffffffffffff191614159050919050565b61188d611b0b565b60405180602001604052808315158152509050919050565b6118ad611b20565b7f000000000000000000000000000000000000000000000000000000000000000073ffffffffffffffffffffffffffffffffffffffff1663992403368585856040518463ffffffff1660e01b815260040161190a9392919061426f565b600060405180830381865afa158015611927573d6000803e3d6000fd5b505050506040513d6000823e3d601f19601f820116820180604052508101906119509190614549565b90509392505050565b604051806060016040528060006fffffffffffffffffffffffffffffffff19168152602001600015158152602001600081525090565b604051806040016040528060006fffffffffffffffffffffffffffffffff191681526020016119bc611b0b565b81525090565b6040518060c00160405280600060058111156119e1576119e0612787565b5b815260200160008152602001600015158152602001600015158152602001600015158152602001606081525090565b6040518060e0016040528060006004811115611a2f57611a2e612787565b5b815260200160006fffffffffffffffffffffffffffffffff1916815260200160006fffffffffffffffffffffffffffffffff1916815260200160008152602001600015158152602001600015158152602001606081525090565b604051806060016040528060608152602001600015158152602001606081525090565b6040518060c0016040528060006fffffffffffffffffffffffffffffffff1916815260200160006fffffffffffffffffffffffffffffffff19168152602001600080191681526020016060815260200160608152602001606081525090565b60405180602001604052806000151581525090565b604051806080016040528060006fffffffffffffffffffffffffffffffff191681526020016060815260200160608152602001611b5b611a89565b81525090565b6000819050919050565b611b7481611b61565b82525050565b6000602082019050611b8f6000830184611b6b565b92915050565b600073ffffffffffffffffffffffffffffffffffffffff82169050919050565b6000819050919050565b6000611bda611bd5611bd084611b95565b611bb5565b611b95565b9050919050565b6000611bec82611bbf565b9050919050565b6000611bfe82611be1565b9050919050565b611c0e81611bf3565b82525050565b6000602082019050611c296000830184611c05565b92915050565b6000604051905090565b600080fd5b600080fd5b6000611c4e82611b95565b9050919050565b611c5e81611c43565b8114611c6957600080fd5b50565b600081359050611c7b81611c55565b92915050565b600060208284031215611c9757611c96611c39565b5b6000611ca584828501611c6c565b91505092915050565b600081519050919050565b600082825260208201905092915050565b6000819050602082019050919050565b60007fffffffffffffffffffffffffffffffff0000000000000000000000000000000082169050919050565b611d0f81611cda565b82525050565b60008115159050919050565b611d2a81611d15565b82525050565b611d3981611b61565b82525050565b606082016000820151611d556000850182611d06565b506020820151611d686020850182611d21565b506040820151611d7b6040850182611d30565b50505050565b6000611d8d8383611d3f565b60608301905092915050565b6000602082019050919050565b6000611db182611cae565b611dbb8185611cb9565b9350611dc683611cca565b8060005b83811015611df7578151611dde8882611d81565b9750611de983611d99565b925050600181019050611dca565b5085935050505092915050565b60006020820190508181036000830152611e1e8184611da6565b905092915050565b600080fd5b6000601f19601f8301169050919050565b7f4e487b7100000000000000000000000000000000000000000000000000000000600052604160045260246000fd5b611e7482611e2b565b810181811067ffffffffffffffff82111715611e9357611e92611e3c565b5b80604052505050565b6000611ea6611c2f565b9050611eb28282611e6b565b919050565b600067ffffffffffffffff821115611ed257611ed1611e3c565b5b602082029050602081019050919050565b600080fd5b600080fd5b600080fd5b611efb81611b61565b8114611f0657600080fd5b50565b600081359050611f1881611ef2565b92915050565b611f2781611cda565b8114611f3257600080fd5b50565b600081359050611f4481611f1e565b92915050565b600060608284031215611f6057611f5f611ee8565b5b611f6a6060611e9c565b90506000611f7a84828501611f09565b6000830152506020611f8e84828501611f35565b6020830152506040611fa284828501611f09565b60408301525092915050565b6000611fc1611fbc84611eb7565b611e9c565b90508083825260208201905060608402830185811115611fe457611fe3611ee3565b5b835b8181101561200d5780611ff98882611f4a565b845260208401935050606081019050611fe6565b5050509392505050565b600082601f83011261202c5761202b611e26565b5b813561203c848260208601611fae565b91505092915050565b60006020828403121561205b5761205a611c39565b5b600082013567ffffffffffffffff81111561207957612078611c3e565b5b61208584828501612017565b91505092915050565b6020820160008201516120a46000850182611d21565b50505050565b6040820160008201516120c06000850182611d06565b5060208201516120d3602085018261208e565b50505050565b60006040820190506120ee60008301846120aa565b92915050565b6120fd81611c43565b82525050565b600060208201905061211860008301846120f4565b92915050565b600080fd5b600067ffffffffffffffff82111561213e5761213d611e3c565b5b61214782611e2b565b9050602081019050919050565b82818337600083830152505050565b600061217661217184612123565b611e9c565b9050828152602081018484840111156121925761219161211e565b5b61219d848285612154565b509392505050565b600082601f8301126121ba576121b9611e26565b5b81356121ca848260208601612163565b91505092915050565b600080604083850312156121ea576121e9611c39565b5b60006121f885828601611c6c565b925050602083013567ffffffffffffffff81111561221957612218611c3e565b5b612225858286016121a5565b9150509250929050565b61223881611d15565b82525050565b6000602082019050612253600083018461222f565b92915050565b600080604083850312156122705761226f611c39565b5b600061227e85828601611c6c565b925050602061228f85828601611f35565b9150509250929050565b6122a281611cda565b82525050565b60006060820190506122bd6000830186612299565b6122ca602083018561222f565b6122d76040830184611b6b565b949350505050565b600081519050919050565b600082825260208201905092915050565b6000819050602082019050919050565b60006123178383611d06565b60208301905092915050565b6000602082019050919050565b600061233b826122df565b61234581856122ea565b9350612350836122fb565b8060005b83811015612381578151612368888261230b565b975061237383612323565b925050600181019050612354565b5085935050505092915050565b600060208201905081810360008301526123a88184612330565b905092915050565b60006020820190506123c56000830184612299565b92915050565b6000602082840312156123e1576123e0611c39565b5b60006123ef84828501611f35565b91505092915050565b600060608201905061240d6000830186611b6b565b61241a6020830185612299565b6124276040830184611b6b565b949350505050565b600067ffffffffffffffff82111561244a57612449611e3c565b5b602082029050602081019050919050565b600061246e6124698461242f565b611e9c565b9050808382526020820190506020840283018581111561249157612490611ee3565b5b835b818110156124ba57806124a68882611f35565b845260208401935050602081019050612493565b5050509392505050565b600082601f8301126124d9576124d8611e26565b5b81356124e984826020860161245b565b91505092915050565b60006020828403121561250857612507611c39565b5b600082013567ffffffffffffffff81111561252657612525611c3e565b5b612532848285016124c4565b91505092915050565b7f4e487b7100000000000000000000000000000000000000000000000000000000600052603260045260246000fd5b7f4e487b7100000000000000000000000000000000000000000000000000000000600052601160045260246000fd5b60006125a482611b61565b91507fffffffffffffffffffffffffffffffffffffffffffffffffffffffffffffffff82036125d6576125d561256a565b5b600182019050919050565b60006125ec82611b61565b91506125f783611b61565b925082820190508082111561260f5761260e61256a565b5b92915050565b600082825260208201905092915050565b7f4f776e61626c653a206e6577206f776e657220697320746865207a65726f206160008201527f6464726573730000000000000000000000000000000000000000000000000000602082015250565b6000612682602683612615565b915061268d82612626565b604082019050919050565b600060208201905081810360008301526126b181612675565b9050919050565b60006126c382611b61565b91506126ce83611b61565b92508282039050818111156126e6576126e561256a565b5b92915050565b7f4e487b7100000000000000000000000000000000000000000000000000000000600052603160045260246000fd5b7f4f776e61626c653a2063616c6c6572206973206e6f7420746865206f776e6572600082015250565b6000612751602083612615565b915061275c8261271b565b602082019050919050565b6000602082019050818103600083015261278081612744565b9050919050565b7f4e487b7100000000000000000000000000000000000000000000000000000000600052602160045260246000fd5b600681106127c7576127c6612787565b5b50565b60008190506127d8826127b6565b919050565b60006127e8826127ca565b9050919050565b6127f8816127dd565b82525050565b600060208201905061281360008301846127ef565b92915050565b6006811061282657600080fd5b50565b60008151905061283881612819565b92915050565b60008151905061284d81611ef2565b92915050565b61285c81611d15565b811461286757600080fd5b50565b60008151905061287981612853565b92915050565b60005b8381101561289d578082015181840152602081019050612882565b60008484015250505050565b60006128bc6128b784612123565b611e9c565b9050828152602081018484840111156128d8576128d761211e565b5b6128e384828561287f565b509392505050565b600082601f830112612900576128ff611e26565b5b81516129108482602086016128a9565b91505092915050565b600060c0828403121561292f5761292e611ee8565b5b61293960c0611e9c565b9050600061294984828501612829565b600083015250602061295d8482850161283e565b60208301525060406129718482850161286a565b60408301525060606129858482850161286a565b60608301525060806129998482850161286a565b60808301525060a082015167ffffffffffffffff8111156129bd576129bc611eed565b5b6129c9848285016128eb565b60a08301525092915050565b6000602082840312156129eb576129ea611c39565b5b600082015167ffffffffffffffff811115612a0957612a08611c3e565b5b612a1584828501612919565b91505092915050565b6000606082019050612a336000830186612299565b612a40602083018561222f565b612a4d604083018461222f565b949350505050565b60058110612a6257600080fd5b50565b600081519050612a7481612a55565b92915050565b600081519050612a8981611f1e565b92915050565b600060e08284031215612aa557612aa4611ee8565b5b612aaf60e0611e9c565b90506000612abf84828501612a65565b6000830152506020612ad384828501612a7a565b6020830152506040612ae784828501612a7a565b6040830152506060612afb8482850161283e565b6060830152506080612b0f8482850161286a565b60808301525060a0612b238482850161286a565b60a08301525060c082015167ffffffffffffffff811115612b4757612b46611eed565b5b612b53848285016128eb565b60c08301525092915050565b600060208284031215612b7557612b74611c39565b5b600082015167ffffffffffffffff811115612b9357612b92611c3e565b5b612b9f84828501612a8f565b91505092915050565b600081519050919050565b600082825260208201905092915050565b6000612bcf82612ba8565b612bd98185612bb3565b9350612be981856020860161287f565b612bf281611e2b565b840191505092915050565b60006020820190508181036000830152612c178184612bc4565b905092915050565b600060608284031215612c3557612c34611ee8565b5b612c3f6060611e9c565b9050600082015167ffffffffffffffff811115612c5f57612c5e611eed565b5b612c6b848285016128eb565b6000830152506020612c7f8482850161286a565b602083015250604082015167ffffffffffffffff811115612ca357612ca2611eed565b5b612caf848285016128eb565b60408301525092915050565b600060208284031215612cd157612cd0611c39565b5b600082015167ffffffffffffffff811115612cef57612cee611c3e565b5b612cfb84828501612c1f565b91505092915050565b6000819050919050565b612d1781612d04565b8114612d2257600080fd5b50565b600081519050612d3481612d0e565b92915050565b600067ffffffffffffffff821115612d5557612d54611e3c565b5b602082029050602081019050919050565b600067ffffffffffffffff821115612d8157612d80611e3c565b5b602082029050602081019050919050565b600060a08284031215612da857612da7611ee8565b5b612db260a0611e9c565b90506000612dc284828501612829565b6000830152506020612dd68482850161286a565b6020830152506040612dea8482850161286a565b6040830152506060612dfe8482850161283e565b606083015250608082015167ffffffffffffffff811115612e2257612e21611eed565b5b612e2e848285016128eb565b60808301525092915050565b6000612e4d612e4884612d66565b611e9c565b90508083825260208201905060208402830185811115612e7057612e6f611ee3565b5b835b81811015612eb757805167ffffffffffffffff811115612e9557612e94611e26565b5b808601612ea28982612d92565b85526020850194505050602081019050612e72565b5050509392505050565b600082601f830112612ed657612ed5611e26565b5b8151612ee6848260208601612e3a565b91505092915050565b600067ffffffffffffffff821115612f0a57612f09611e3c565b5b602082029050602081019050919050565b600060c08284031215612f3157612f30611ee8565b5b612f3b60c0611e9c565b90506000612f4b84828501612a65565b6000830152506020612f5f84828501612a7a565b6020830152506040612f7384828501612a7a565b6040830152506060612f878482850161286a565b6060830152506080612f9b8482850161283e565b60808301525060a082015167ffffffffffffffff811115612fbf57612fbe611eed565b5b612fcb848285016128eb565b60a08301525092915050565b6000612fea612fe584612eef565b611e9c565b9050808382526020820190506020840283018581111561300d5761300c611ee3565b5b835b8181101561305457805167ffffffffffffffff81111561303257613031611e26565b5b80860161303f8982612f1b565b8552602085019450505060208101905061300f565b5050509392505050565b600082601f83011261307357613072611e26565b5b8151613083848260208601612fd7565b91505092915050565b600060a082840312156130a2576130a1611ee8565b5b6130ac60a0611e9c565b9050600082015167ffffffffffffffff8111156130cc576130cb611eed565b5b6130d884828501612ec1565b600083015250602082015167ffffffffffffffff8111156130fc576130fb611eed565b5b6131088482850161305e565b602083015250604061311c84828501612d25565b604083015250606082015167ffffffffffffffff8111156131405761313f611eed565b5b61314c848285016128eb565b606083015250608082015167ffffffffffffffff8111156131705761316f611eed565b5b61317c848285016128eb565b60808301525092915050565b600061319b61319684612d3a565b611e9c565b905080838252602082019050602084028301858111156131be576131bd611ee3565b5b835b8181101561320557805167ffffffffffffffff8111156131e3576131e2611e26565b5b8086016131f0898261308c565b855260208501945050506020810190506131c0565b5050509392505050565b600082601f83011261322457613223611e26565b5b8151613234848260208601613188565b91505092915050565b600060a0828403121561325357613252611ee8565b5b61325d60a0611e9c565b9050600061326d84828501612a7a565b600083015250602061328184828501612a7a565b602083015250604061329584828501612d25565b604083015250606082015167ffffffffffffffff8111156132b9576132b8611eed565b5b6132c5848285016128eb565b606083015250608082015167ffffffffffffffff8111156132e9576132e8611eed565b5b6132f58482850161320f565b60808301525092915050565b60006020828403121561331757613316611c39565b5b600082015167ffffffffffffffff81111561333557613334611c3e565b5b6133418482850161323d565b91505092915050565b61335381612d04565b82525050565b600082825260208201905092915050565b600061337582612ba8565b61337f8185613359565b935061338f81856020860161287f565b61339881611e2b565b840191505092915050565b600081519050919050565b600082825260208201905092915050565b6000819050602082019050919050565b600081519050919050565b600082825260208201905092915050565b6000819050602082019050919050565b613404816127dd565b82525050565b600060a08301600083015161342260008601826133fb565b5060208301516134356020860182611d21565b5060408301516134486040860182611d21565b50606083015161345b6060860182611d30565b5060808301518482036080860152613473828261336a565b9150508091505092915050565b600061348c838361340a565b905092915050565b6000602082019050919050565b60006134ac826133cf565b6134b681856133da565b9350836020820285016134c8856133eb565b8060005b8581101561350457848403895281516134e58582613480565b94506134f083613494565b925060208a019950506001810190506134cc565b50829750879550505050505092915050565b600081519050919050565b600082825260208201905092915050565b6000819050602082019050919050565b6005811061355357613552612787565b5b50565b600081905061356482613542565b919050565b600061357482613556565b9050919050565b61358481613569565b82525050565b600060c0830160008301516135a2600086018261357b565b5060208301516135b56020860182611d06565b5060408301516135c86040860182611d06565b5060608301516135db6060860182611d21565b5060808301516135ee6080860182611d30565b5060a083015184820360a0860152613606828261336a565b9150508091505092915050565b600061361f838361358a565b905092915050565b6000602082019050919050565b600061363f82613516565b6136498185613521565b93508360208202850161365b85613532565b8060005b8581101561369757848403895281516136788582613613565b945061368383613627565b925060208a0199505060018101905061365f565b50829750879550505050505092915050565b600060a08301600083015184820360008601526136c682826134a1565b915050602083015184820360208601526136e08282613634565b91505060408301516136f5604086018261334a565b506060830151848203606086015261370d828261336a565b91505060808301518482036080860152613727828261336a565b9150508091505092915050565b600061374083836136a9565b905092915050565b6000602082019050919050565b6000613760826133a3565b61376a81856133ae565b93508360208202850161377c856133bf565b8060005b858110156137b857848403895281516137998582613734565b94506137a483613748565b925060208a01995050600181019050613780565b50829750879550505050505092915050565b600060a0830160008301516137e26000860182611d06565b5060208301516137f56020860182611d06565b506040830151613808604086018261334a565b5060608301518482036060860152613820828261336a565b9150506080830151848203608086015261383a8282613755565b9150508091505092915050565b600081519050919050565b600082825260208201905092915050565b6000819050602082019050919050565b600060c08301600083015161388b60008601826133fb565b50602083015161389e6020860182611d30565b5060408301516138b16040860182611d21565b5060608301516138c46060860182611d21565b5060808301516138d76080860182611d21565b5060a083015184820360a08601526138ef828261336a565b9150508091505092915050565b60006139088383613873565b905092915050565b6000602082019050919050565b600061392882613847565b6139328185613852565b93508360208202850161394485613863565b8060005b85811015613980578484038952815161396185826138fc565b945061396c83613910565b925060208a01995050600181019050613948565b50829750879550505050505092915050565b600081519050919050565b600082825260208201905092915050565b6000819050602082019050919050565b600060e0830160008301516139d6600086018261357b565b5060208301516139e96020860182611d06565b5060408301516139fc6040860182611d06565b506060830151613a0f6060860182611d30565b506080830151613a226080860182611d21565b5060a0830151613a3560a0860182611d21565b5060c083015184820360c0860152613a4d828261336a565b9150508091505092915050565b6000613a6683836139be565b905092915050565b6000602082019050919050565b6000613a8682613992565b613a90818561399d565b935083602082028501613aa2856139ae565b8060005b85811015613ade5784840389528151613abf8582613a5a565b9450613aca83613a6e565b925060208a01995050600181019050613aa6565b50829750879550505050505092915050565b60006060830160008301518482036000860152613b0d828261336a565b9150506020830151613b226020860182611d21565b5060408301518482036040860152613b3a828261336a565b9150508091505092915050565b6000608083016000830151613b5f6000860182611d06565b5060208301518482036020860152613b77828261391d565b91505060408301518482036040860152613b918282613a7b565b91505060608301518482036060860152613bab8282613af0565b9150508091505092915050565b60006080820190508181036000830152613bd281866137ca565b90508181036020830152613be68185613b47565b9050613bf560408301846120aa565b949350505050565b600067ffffffffffffffff821115613c1857613c17611e3c565b5b602082029050602081019050919050565b600060a08284031215613c3f57613c3e611ee8565b5b613c4960a0611e9c565b90506000613c5984828501612829565b6000830152506020613c6d8482850161286a565b6020830152506040613c818482850161283e565b604083015250606082015167ffffffffffffffff811115613ca557613ca4611eed565b5b613cb1848285016128eb565b606083015250608082015167ffffffffffffffff811115613cd557613cd4611eed565b5b613ce1848285016128eb565b60808301525092915050565b6000613d00613cfb84613bfd565b611e9c565b90508083825260208201905060208402830185811115613d2357613d22611ee3565b5b835b81811015613d6a57805167ffffffffffffffff811115613d4857613d47611e26565b5b808601613d558982613c29565b85526020850194505050602081019050613d25565b5050509392505050565b600082601f830112613d8957613d88611e26565b5b8151613d99848260208601613ced565b91505092915050565b600067ffffffffffffffff821115613dbd57613dbc611e3c565b5b602082029050602081019050919050565b600060e08284031215613de457613de3611ee8565b5b613dee60e0611e9c565b90506000613dfe84828501612a65565b6000830152506020613e1284828501612a7a565b6020830152506040613e2684828501612a7a565b6040830152506060613e3a8482850161283e565b606083015250608082015167ffffffffffffffff811115613e5e57613e5d611eed565b5b613e6a848285016128eb565b60808301525060a0613e7e8482850161283e565b60a08301525060c082015167ffffffffffffffff811115613ea257613ea1611eed565b5b613eae848285016128eb565b60c08301525092915050565b6000613ecd613ec884613da2565b611e9c565b90508083825260208201905060208402830185811115613ef057613eef611ee3565b5b835b81811015613f3757805167ffffffffffffffff811115613f1557613f14611e26565b5b808601613f228982613dce565b85526020850194505050602081019050613ef2565b5050509392505050565b600082601f830112613f5657613f55611e26565b5b8151613f66848260208601613eba565b91505092915050565b600060c08284031215613f8557613f84611ee8565b5b613f8f60c0611e9c565b90506000613f9f84828501612a7a565b6000830152506020613fb384828501612a7a565b6020830152506040613fc784828501612d25565b604083015250606082015167ffffffffffffffff811115613feb57613fea611eed565b5b613ff784828501613d74565b606083015250608082015167ffffffffffffffff81111561401b5761401a611eed565b5b61402784828501613f41565b60808301525060a082015167ffffffffffffffff81111561404b5761404a611eed565b5b614057848285016128eb565b60a08301525092915050565b60006020828403121561407957614078611c39565b5b600082015167ffffffffffffffff81111561409757614096611c3e565b5b6140a384828501613f6f565b91505092915050565b7f4e487b7100000000000000000000000000000000000000000000000000000000600052601260045260246000fd5b60006140e682611b61565b91506140f183611b61565b925082614101576141006140ac565b5b828206905092915050565b600082825260208201905092915050565b600061412882613847565b614132818561410c565b93508360208202850161414485613863565b8060005b85811015614180578484038952815161416185826138fc565b945061416c83613910565b925060208a01995050600181019050614148565b50829750879550505050505092915050565b600082825260208201905092915050565b60006141ae82613992565b6141b88185614192565b9350836020820285016141ca856139ae565b8060005b8581101561420657848403895281516141e78582613a5a565b94506141f283613a6e565b925060208a019950506001810190506141ce565b50829750879550505050505092915050565b60006060830160008301518482036000860152614235828261336a565b915050602083015161424a6020860182611d21565b5060408301518482036040860152614262828261336a565b9150508091505092915050565b60006060820190508181036000830152614289818661411d565b9050818103602083015261429d81856141a3565b905081810360408301526142b18184614218565b9050949350505050565b600067ffffffffffffffff8211156142d6576142d5611e3c565b5b602082029050602081019050919050565b60006142fa6142f5846142bb565b611e9c565b9050808382526020820190506020840283018581111561431d5761431c611ee3565b5b835b8181101561436457805167ffffffffffffffff81111561434257614341611e26565b5b80860161434f8982612919565b8552602085019450505060208101905061431f565b5050509392505050565b600082601f83011261438357614382611e26565b5b81516143938482602086016142e7565b91505092915050565b600067ffffffffffffffff8211156143b7576143b6611e3c565b5b602082029050602081019050919050565b60006143db6143d68461439c565b611e9c565b905080838252602082019050602084028301858111156143fe576143fd611ee3565b5b835b8181101561444557805167ffffffffffffffff81111561442357614422611e26565b5b8086016144308982612a8f565b85526020850194505050602081019050614400565b5050509392505050565b600082601f83011261446457614463611e26565b5b81516144748482602086016143c8565b91505092915050565b60006080828403121561449357614492611ee8565b5b61449d6080611e9c565b905060006144ad84828501612a7a565b600083015250602082015167ffffffffffffffff8111156144d1576144d0611eed565b5b6144dd8482850161436e565b602083015250604082015167ffffffffffffffff81111561450157614500611eed565b5b61450d8482850161444f565b604083015250606082015167ffffffffffffffff81111561453157614530611eed565b5b61453d84828501612c1f565b60608301525092915050565b60006020828403121561455f5761455e611c39565b5b600082015167ffffffffffffffff81111561457d5761457c611c3e565b5b6145898482850161447d565b9150509291505056fea26469706673582212201f8dd8450333b9d65f2760ecfb9f97db498a06ffa33f9272368efb86cf3abd0264736f6c63430008130033",
    "linkReferences": {}
  },
  "methodIdentifiers": {
    "ADDRESSES_PROVIDER_V2()": "46916301",
    "APP_ID()": "c187bbc1",
    "IS_IMPERSONATION_MODE()": "a183dc27",
    "REFRESH_DURATION()": "44580952",
    "SISMO_CONNECT_LIB_VERSION()": "c9512d99",
    "addDataGroups((uint256,bytes16,uint256)[])": "606b4fc7",
    "bindCredential(address,bytes)": "9a9e4b42",
    "config()": "79502c55",
    "deleteDataGroups(bytes16[])": "f7fe2e28",
    "getCredentialInfo(address,bytes16)": "a30caa5f",
    "getCredentialInfoList(address)": "554b423c",
    "getGroupIds()": "c02b8b2c",
    "getGroupSetup(bytes16)": "ca7a1a36",
    "owner()": "8da5cb5b",
    "renounceOwnership()": "715018a6",
    "transferOwnership(address)": "f2fde38b"
  },
  "id": 34
}