{
  "abi": [
    {
      "inputs": [
        {
          "internalType": "address",
          "name": "owner",
          "type": "address"
        },
        {
          "internalType": "bytes16",
          "name": "appId",
          "type": "bytes16"
        },
        {
          "internalType": "uint256",
          "name": "refreshDuration",
          "type": "uint256"
        },
        {
          "internalType": "bool",
          "name": "isImpersonationMode",
          "type": "bool"
        },
        {
          "components": [
            {
              "internalType": "uint256",
              "name": "startAt",
              "type": "uint256"
            },
            {
              "internalType": "bytes16",
              "name": "groupId",
              "type": "bytes16"
            },
            {
              "internalType": "uint256",
              "name": "duration",
              "type": "uint256"
            }
          ],
          "internalType": "struct DataTypes.GroupSetup[]",
          "name": "groups",
          "type": "tuple[]"
        }
      ],
      "stateMutability": "nonpayable",
      "type": "constructor"
    },
    {
      "inputs": [
        {
          "internalType": "enum AuthType",
          "name": "authType",
          "type": "uint8"
        }
      ],
      "name": "AuthTypeNotFoundInVerifiedResult",
      "type": "error"
    },
    {
      "inputs": [],
      "name": "InvalidAddress",
      "type": "error"
    },
    {
      "anonymous": false,
      "inputs": [
        {
          "indexed": true,
          "internalType": "address",
          "name": "previousOwner",
          "type": "address"
        },
        {
          "indexed": true,
          "internalType": "address",
          "name": "newOwner",
          "type": "address"
        }
      ],
      "name": "OwnershipTransferred",
      "type": "event"
    },
    {
      "inputs": [],
      "name": "ADDRESSES_PROVIDER_V2",
      "outputs": [
        {
          "internalType": "contract IAddressesProvider",
          "name": "",
          "type": "address"
        }
      ],
      "stateMutability": "view",
      "type": "function"
    },
    {
      "inputs": [],
      "name": "APP_ID",
      "outputs": [
        {
          "internalType": "bytes16",
          "name": "",
          "type": "bytes16"
        }
      ],
      "stateMutability": "view",
      "type": "function"
    },
    {
      "inputs": [],
      "name": "IS_IMPERSONATION_MODE",
      "outputs": [
        {
          "internalType": "bool",
          "name": "",
          "type": "bool"
        }
      ],
      "stateMutability": "view",
      "type": "function"
    },
    {
      "inputs": [],
      "name": "SISMO_CONNECT_LIB_VERSION",
      "outputs": [
        {
          "internalType": "uint256",
          "name": "",
          "type": "uint256"
        }
      ],
      "stateMutability": "view",
      "type": "function"
    },
    {
      "inputs": [
        {
          "components": [
            {
              "internalType": "uint256",
              "name": "startAt",
              "type": "uint256"
            },
            {
              "internalType": "bytes16",
              "name": "groupId",
              "type": "bytes16"
            },
            {
              "internalType": "uint256",
              "name": "duration",
              "type": "uint256"
            }
          ],
          "internalType": "struct DataTypes.GroupSetup[]",
          "name": "_groups",
          "type": "tuple[]"
        }
      ],
      "name": "addDataGroups",
      "outputs": [],
      "stateMutability": "nonpayable",
      "type": "function"
    },
    {
      "inputs": [
        {
          "internalType": "address",
          "name": "account",
          "type": "address"
        },
        {
          "internalType": "bytes",
          "name": "proof",
          "type": "bytes"
        }
      ],
      "name": "bindCredential",
      "outputs": [],
      "stateMutability": "nonpayable",
      "type": "function"
    },
    {
      "inputs": [],
      "name": "config",
      "outputs": [
        {
          "components": [
            {
              "internalType": "bytes16",
              "name": "appId",
              "type": "bytes16"
            },
            {
              "components": [
                {
                  "internalType": "bool",
                  "name": "isImpersonationMode",
                  "type": "bool"
                }
              ],
              "internalType": "struct VaultConfig",
              "name": "vault",
              "type": "tuple"
            }
          ],
          "internalType": "struct SismoConnectConfig",
          "name": "",
          "type": "tuple"
        }
      ],
      "stateMutability": "view",
      "type": "function"
    },
    {
      "inputs": [
        {
          "internalType": "bytes16[]",
          "name": "groupIds",
          "type": "bytes16[]"
        }
      ],
      "name": "deleteDataGroups",
      "outputs": [],
      "stateMutability": "nonpayable",
      "type": "function"
    },
    {
      "inputs": [
        {
          "internalType": "address",
          "name": "",
          "type": "address"
        },
        {
          "internalType": "bytes16",
          "name": "",
          "type": "bytes16"
        }
      ],
      "name": "getCredentialInfo",
      "outputs": [
        {
          "internalType": "bytes16",
          "name": "groupId",
          "type": "bytes16"
        },
        {
          "internalType": "bool",
          "name": "value",
          "type": "bool"
        },
        {
          "internalType": "uint256",
          "name": "expiredAt",
          "type": "uint256"
        }
      ],
      "stateMutability": "view",
      "type": "function"
    },
    {
      "inputs": [
        {
          "internalType": "address",
          "name": "account",
          "type": "address"
        }
      ],
      "name": "getCredentialInfoList",
      "outputs": [
        {
          "components": [
            {
              "internalType": "bytes16",
              "name": "groupId",
              "type": "bytes16"
            },
            {
              "internalType": "bool",
              "name": "value",
              "type": "bool"
            },
            {
              "internalType": "uint256",
              "name": "expiredAt",
              "type": "uint256"
            }
          ],
          "internalType": "struct DataTypes.CredentialInfo[]",
          "name": "",
          "type": "tuple[]"
        }
      ],
      "stateMutability": "view",
      "type": "function"
    },
    {
      "inputs": [],
      "name": "getGroupIds",
      "outputs": [
        {
          "internalType": "bytes16[]",
          "name": "",
          "type": "bytes16[]"
        }
      ],
      "stateMutability": "view",
      "type": "function"
    },
    {
      "inputs": [
        {
          "internalType": "bytes16",
          "name": "",
          "type": "bytes16"
        }
      ],
      "name": "getGroupSetup",
      "outputs": [
        {
          "internalType": "uint256",
          "name": "startAt",
          "type": "uint256"
        },
        {
          "internalType": "bytes16",
          "name": "groupId",
          "type": "bytes16"
        },
        {
          "internalType": "uint256",
          "name": "duration",
          "type": "uint256"
        }
      ],
      "stateMutability": "view",
      "type": "function"
    },
    {
      "inputs": [],
      "name": "getRefreshDuration",
      "outputs": [
        {
          "internalType": "uint256",
          "name": "",
          "type": "uint256"
        }
      ],
      "stateMutability": "view",
      "type": "function"
    },
    {
      "inputs": [],
      "name": "owner",
      "outputs": [
        {
          "internalType": "address",
          "name": "",
          "type": "address"
        }
      ],
      "stateMutability": "view",
      "type": "function"
    },
    {
      "inputs": [],
      "name": "renounceOwnership",
      "outputs": [],
      "stateMutability": "nonpayable",
      "type": "function"
    },
    {
      "inputs": [
        {
          "internalType": "uint256",
          "name": "refreshDuration",
          "type": "uint256"
        }
      ],
      "name": "setRefreshDuration",
      "outputs": [],
      "stateMutability": "nonpayable",
      "type": "function"
    },
    {
      "inputs": [
        {
          "internalType": "address",
          "name": "newOwner",
          "type": "address"
        }
      ],
      "name": "transferOwnership",
      "outputs": [],
      "stateMutability": "nonpayable",
      "type": "function"
    }
  ],
  "bytecode": {
    "object": "0x6101606040523480156200001257600080fd5b506040516200566a3803806200566a833981810160405281019062000038919062000cdd565b846200004b8584620005bb60201b60201c565b80600001516fffffffffffffffffffffffffffffffff1916610120816fffffffffffffffffffffffffffffffff191681525050806020015160000151151561014081151581525050733cd5334eb64ebbd4003b72022cc25465f1bfcee673ffffffffffffffffffffffffffffffffffffffff1663693ec85e6040518060400160405280601981526020017f7369736d6f436f6e6e65637456657269666965722d76312e32000000000000008152506040518263ffffffff1660e01b815260040162000117919062000e0d565b602060405180830381865afa15801562000135573d6000803e3d6000fd5b505050506040513d601f19601f820116820180604052508101906200015b919062000e31565b73ffffffffffffffffffffffffffffffffffffffff1660808173ffffffffffffffffffffffffffffffffffffffff1681525050733cd5334eb64ebbd4003b72022cc25465f1bfcee673ffffffffffffffffffffffffffffffffffffffff1663693ec85e6040518060400160405280601781526020017f61757468526571756573744275696c6465722d76312e310000000000000000008152506040518263ffffffff1660e01b815260040162000212919062000e0d565b602060405180830381865afa15801562000230573d6000803e3d6000fd5b505050506040513d601f19601f8201168201806040525081019062000256919062000e31565b73ffffffffffffffffffffffffffffffffffffffff1660a08173ffffffffffffffffffffffffffffffffffffffff1681525050733cd5334eb64ebbd4003b72022cc25465f1bfcee673ffffffffffffffffffffffffffffffffffffffff1663693ec85e6040518060400160405280601881526020017f636c61696d526571756573744275696c6465722d76312e3100000000000000008152506040518263ffffffff1660e01b81526004016200030d919062000e0d565b602060405180830381865afa1580156200032b573d6000803e3d6000fd5b505050506040513d601f19601f8201168201806040525081019062000351919062000e31565b73ffffffffffffffffffffffffffffffffffffffff1660c08173ffffffffffffffffffffffffffffffffffffffff1681525050733cd5334eb64ebbd4003b72022cc25465f1bfcee673ffffffffffffffffffffffffffffffffffffffff1663693ec85e6040518060400160405280601581526020017f7369676e61747572654275696c6465722d76312e3100000000000000000000008152506040518263ffffffff1660e01b815260040162000408919062000e0d565b602060405180830381865afa15801562000426573d6000803e3d6000fd5b505050506040513d601f19601f820116820180604052508101906200044c919062000e31565b73ffffffffffffffffffffffffffffffffffffffff1660e08173ffffffffffffffffffffffffffffffffffffffff1681525050733cd5334eb64ebbd4003b72022cc25465f1bfcee673ffffffffffffffffffffffffffffffffffffffff1663693ec85e6040518060400160405280601381526020017f726571756573744275696c6465722d76312e31000000000000000000000000008152506040518263ffffffff1660e01b815260040162000503919062000e0d565b602060405180830381865afa15801562000521573d6000803e3d6000fd5b505050506040513d601f19601f8201168201806040525081019062000547919062000e31565b73ffffffffffffffffffffffffffffffffffffffff166101008173ffffffffffffffffffffffffffffffffffffffff1681525050506200058d816200060560201b60201c565b506200059f83620006c960201b60201c565b620005b0816200070c60201b60201c565b505050505062000f3c565b620005c56200095c565b6040518060400160405280846fffffffffffffffffffffffffffffffff19168152602001620005fa84620008bb60201b60201c565b815250905092915050565b60008060009054906101000a900473ffffffffffffffffffffffffffffffffffffffff169050816000806101000a81548173ffffffffffffffffffffffffffffffffffffffff021916908373ffffffffffffffffffffffffffffffffffffffff1602179055508173ffffffffffffffffffffffffffffffffffffffff168173ffffffffffffffffffffffffffffffffffffffff167f8be0079c531659141344cd1fd0a4f28419497f9722a3daafe3b4186f6b6457e060405160405180910390a35050565b806004819055507f544cf7d81a40b5ca1da3ece93c8d36d998fc13ac26ce5a598c05c20ffc9f1cc88160405162000701919062000e74565b60405180910390a150565b60005b8151811015620008b757600082828151811062000731576200073062000e91565b5b60200260200101516020015190506200075081620008dd60201b60201c565b156200075d5750620008a1565b82828151811062000773576200077262000e91565b5b602002602001015160036000836fffffffffffffffffffffffffffffffff19166fffffffffffffffffffffffffffffffff191681526020019081526020016000206000820151816000015560208201518160010160006101000a8154816fffffffffffffffffffffffffffffffff021916908360801c02179055506040820151816002015590505060058190806001815401808255809150506001900390600052602060002090600291828204019190066010029091909190916101000a8154816fffffffffffffffffffffffffffffffff021916908360801c0217905550806fffffffffffffffffffffffffffffffff19167fb2fa04fb2e018cd3c3ce08eebdfc1d237122791afaeedcb401848b9171d9c32d4260405162000897919062000e74565b60405180910390a2505b8080620008ae9062000eef565b9150506200070f565b5050565b620008c562000991565b60405180602001604052808315158152509050919050565b60008060801b6fffffffffffffffffffffffffffffffff191660036000846fffffffffffffffffffffffffffffffff19166fffffffffffffffffffffffffffffffff1916815260200190815260200160002060010160009054906101000a900460801b6fffffffffffffffffffffffffffffffff191614159050919050565b604051806040016040528060006fffffffffffffffffffffffffffffffff191681526020016200098b62000991565b81525090565b60405180602001604052806000151581525090565b6000604051905090565b600080fd5b600080fd5b600073ffffffffffffffffffffffffffffffffffffffff82169050919050565b6000620009e782620009ba565b9050919050565b620009f981620009da565b811462000a0557600080fd5b50565b60008151905062000a1981620009ee565b92915050565b60007fffffffffffffffffffffffffffffffff0000000000000000000000000000000082169050919050565b62000a568162000a1f565b811462000a6257600080fd5b50565b60008151905062000a768162000a4b565b92915050565b6000819050919050565b62000a918162000a7c565b811462000a9d57600080fd5b50565b60008151905062000ab18162000a86565b92915050565b60008115159050919050565b62000ace8162000ab7565b811462000ada57600080fd5b50565b60008151905062000aee8162000ac3565b92915050565b600080fd5b6000601f19601f8301169050919050565b7f4e487b7100000000000000000000000000000000000000000000000000000000600052604160045260246000fd5b62000b448262000af9565b810181811067ffffffffffffffff8211171562000b665762000b6562000b0a565b5b80604052505050565b600062000b7b620009a6565b905062000b89828262000b39565b919050565b600067ffffffffffffffff82111562000bac5762000bab62000b0a565b5b602082029050602081019050919050565b600080fd5b600080fd5b60006060828403121562000be05762000bdf62000bc2565b5b62000bec606062000b6f565b9050600062000bfe8482850162000aa0565b600083015250602062000c148482850162000a65565b602083015250604062000c2a8482850162000aa0565b60408301525092915050565b600062000c4d62000c478462000b8e565b62000b6f565b9050808382526020820190506060840283018581111562000c735762000c7262000bbd565b5b835b8181101562000ca0578062000c8b888262000bc7565b84526020840193505060608101905062000c75565b5050509392505050565b600082601f83011262000cc25762000cc162000af4565b5b815162000cd484826020860162000c36565b91505092915050565b600080600080600060a0868803121562000cfc5762000cfb620009b0565b5b600062000d0c8882890162000a08565b955050602062000d1f8882890162000a65565b945050604062000d328882890162000aa0565b935050606062000d458882890162000add565b925050608086015167ffffffffffffffff81111562000d695762000d68620009b5565b5b62000d778882890162000caa565b9150509295509295909350565b600081519050919050565b600082825260208201905092915050565b60005b8381101562000dc057808201518184015260208101905062000da3565b60008484015250505050565b600062000dd98262000d84565b62000de5818562000d8f565b935062000df781856020860162000da0565b62000e028162000af9565b840191505092915050565b6000602082019050818103600083015262000e29818462000dcc565b905092915050565b60006020828403121562000e4a5762000e49620009b0565b5b600062000e5a8482850162000a08565b91505092915050565b62000e6e8162000a7c565b82525050565b600060208201905062000e8b600083018462000e63565b92915050565b7f4e487b7100000000000000000000000000000000000000000000000000000000600052603260045260246000fd5b7f4e487b7100000000000000000000000000000000000000000000000000000000600052601160045260246000fd5b600062000efc8262000a7c565b91507fffffffffffffffffffffffffffffffffffffffffffffffffffffffffffffffff820362000f315762000f3062000ec0565b5b600182019050919050565b60805160a05160c05160e0516101005161012051610140516146c562000fa560003960008181610616015261097b0152600081816105f50152610a7e0152600061197f0152600061104501526000610f9101526000610ee30152600061111a01526146c56000f3fe608060405234801561001057600080fd5b506004361061010b5760003560e01c8063a183dc27116100a2578063c9512d9911610071578063c9512d9914610284578063ca7a1a36146102a2578063d23c107f146102d4578063f2fde38b146102f2578063f7fe2e281461030e5761010b565b8063a183dc27146101f8578063a30caa5f14610216578063c02b8b2c14610248578063c187bbc1146102665761010b565b8063715018a6116100de578063715018a61461019657806379502c55146101a05780638da5cb5b146101be5780639a9e4b42146101dc5761010b565b80633d6e3b6014610110578063469163011461012c578063554b423c1461014a578063606b4fc71461017a575b600080fd5b61012a60048036038101906101259190611c7b565b61032a565b005b61013461033e565b6040516101419190611d27565b60405180910390f35b610164600480360381019061015f9190611d80565b610356565b6040516101719190611f03565b60405180910390f35b610194600480360381019061018f9190612118565b6105c0565b005b61019e6105d4565b005b6101a86105e8565b6040516101b591906121ac565b60405180910390f35b6101c661063f565b6040516101d391906121d6565b60405180910390f35b6101f660048036038101906101f191906122a6565b610668565b005b610200610979565b60405161020d9190612311565b60405180910390f35b610230600480360381019061022b919061232c565b61099d565b60405161023f9392919061238a565b60405180910390f35b6102506109ee565b60405161025d9190612470565b60405180910390f35b61026e610a7c565b60405161027b9190612492565b60405180910390f35b61028c610aa0565b60405161029991906124ad565b60405180910390f35b6102bc60048036038101906102b791906124c8565b610aa5565b6040516102cb939291906124f5565b60405180910390f35b6102dc610adc565b6040516102e991906124ad565b60405180910390f35b61030c60048036038101906103079190611d80565b610ae6565b005b610328600480360381019061032391906125ef565b610b69565b005b610332610b7d565b61033b81610bfb565b50565b733cd5334eb64ebbd4003b72022cc25465f1bfcee681565b60606000600580549050905060008167ffffffffffffffff81111561037e5761037d611f3b565b5b6040519080825280602002602001820160405280156103b757816020015b6103a4611a29565b81526020019060019003908161039c5790505b50905060005b828110156105b5576000600260008773ffffffffffffffffffffffffffffffffffffffff1673ffffffffffffffffffffffffffffffffffffffff16815260200190815260200160002060006005848154811061041c5761041b612638565b5b90600052602060002090600291828204019190066010029054906101000a900460801b6fffffffffffffffffffffffffffffffff19166fffffffffffffffffffffffffffffffff191681526020019081526020016000206040518060600160405290816000820160009054906101000a900460801b6fffffffffffffffffffffffffffffffff19166fffffffffffffffffffffffffffffffff191681526020016000820160109054906101000a900460ff16151515158152602001600182015481525050905042816040015110156105005760008160200190151590811515815250505b8083838151811061051457610513612638565b5b60200260200101819052506005828154811061053357610532612638565b5b90600052602060002090600291828204019190066010029054906101000a900460801b83838151811061056957610568612638565b5b6020026020010151600001906fffffffffffffffffffffffffffffffff191690816fffffffffffffffffffffffffffffffff1916815250505080806105ad90612696565b9150506103bd565b508092505050919050565b6105c8610b7d565b6105d181610c3c565b50565b6105dc610b7d565b6105e66000610dd5565b565b6105f0611a5f565b61063a7f00000000000000000000000000000000000000000000000000000000000000007f0000000000000000000000000000000000000000000000000000000000000000610e99565b905090565b60008060009054906101000a900473ffffffffffffffffffffffffffffffffffffffff16905090565b600073ffffffffffffffffffffffffffffffffffffffff168273ffffffffffffffffffffffffffffffffffffffff16036106ce576040517fe6c4247b00000000000000000000000000000000000000000000000000000000815260040160405180910390fd5b6000600167ffffffffffffffff8111156106eb576106ea611f3b565b5b60405190808252806020026020018201604052801561072457816020015b610711611a92565b8152602001906001900390816107095790505b5090506107316000610ed9565b8160008151811061074557610744612638565b5b60200260200101819052506000600580549050905060008167ffffffffffffffff81111561077657610775611f3b565b5b6040519080825280602002602001820160405280156107af57816020015b61079c611ae0565b8152602001906001900390816107945790505b50905060005b8281101561083157610800600582815481106107d4576107d3612638565b5b90600052602060002090600291828204019190066010029054906101000a900460801b60016000610f87565b82828151811061081357610812612638565b5b6020026020010181905250808061082990612696565b9150506107b5565b5060006108678585846108628a60405160200161084e91906121d6565b60405160208183030381529060405261103b565b6110e9565b9050600061087f6000836111ce90919063ffffffff16565b905060006001600083815260200190815260200160002090504281600101541161093f576108d08160000160009054906101000a900473ffffffffffffffffffffffffffffffffffffffff166112b2565b878160000160006101000a81548173ffffffffffffffffffffffffffffffffffffffff021916908373ffffffffffffffffffffffffffffffffffffffff1602179055506004544261092191906126de565b81600101819055506109348884846113cd565b505050505050610975565b61096e8160000160009054906101000a900473ffffffffffffffffffffffffffffffffffffffff1684846113cd565b5050505050505b5050565b7f000000000000000000000000000000000000000000000000000000000000000081565b6002602052816000526040600020602052806000526040600020600091509150508060000160009054906101000a900460801b908060000160109054906101000a900460ff16908060010154905083565b60606005805480602002602001604051908101604052809291908181526020018280548015610a7257602002820191906000526020600020906000905b82829054906101000a900460801b6fffffffffffffffffffffffffffffffff191681526020019060100190602082600f01049283019260010382029150808411610a2b5790505b5050505050905090565b7f000000000000000000000000000000000000000000000000000000000000000081565b600281565b60036020528060005260406000206000915090508060000154908060010160009054906101000a900460801b908060020154905083565b6000600454905090565b610aee610b7d565b600073ffffffffffffffffffffffffffffffffffffffff168173ffffffffffffffffffffffffffffffffffffffff1603610b5d576040517f08c379a0000000000000000000000000000000000000000000000000000000008152600401610b5490612795565b60405180910390fd5b610b6681610dd5565b50565b610b71610b7d565b610b7a81611630565b50565b610b856118ce565b73ffffffffffffffffffffffffffffffffffffffff16610ba361063f565b73ffffffffffffffffffffffffffffffffffffffff1614610bf9576040517f08c379a0000000000000000000000000000000000000000000000000000000008152600401610bf090612801565b60405180910390fd5b565b806004819055507f544cf7d81a40b5ca1da3ece93c8d36d998fc13ac26ce5a598c05c20ffc9f1cc881604051610c3191906124ad565b60405180910390a150565b60005b8151811015610dd1576000828281518110610c5d57610c5c612638565b5b6020026020010151602001519050610c74816118d6565b15610c7f5750610dbe565b828281518110610c9257610c91612638565b5b602002602001015160036000836fffffffffffffffffffffffffffffffff19166fffffffffffffffffffffffffffffffff191681526020019081526020016000206000820151816000015560208201518160010160006101000a8154816fffffffffffffffffffffffffffffffff021916908360801c02179055506040820151816002015590505060058190806001815401808255809150506001900390600052602060002090600291828204019190066010029091909190916101000a8154816fffffffffffffffffffffffffffffffff021916908360801c0217905550806fffffffffffffffffffffffffffffffff19167fb2fa04fb2e018cd3c3ce08eebdfc1d237122791afaeedcb401848b9171d9c32d42604051610db491906124ad565b60405180910390a2505b8080610dc990612696565b915050610c3f565b5050565b60008060009054906101000a900473ffffffffffffffffffffffffffffffffffffffff169050816000806101000a81548173ffffffffffffffffffffffffffffffffffffffff021916908373ffffffffffffffffffffffffffffffffffffffff1602179055508173ffffffffffffffffffffffffffffffffffffffff168173ffffffffffffffffffffffffffffffffffffffff167f8be0079c531659141344cd1fd0a4f28419497f9722a3daafe3b4186f6b6457e060405160405180910390a35050565b610ea1611a5f565b6040518060400160405280846fffffffffffffffffffffffffffffffff19168152602001610ece84611955565b815250905092915050565b610ee1611a92565b7f000000000000000000000000000000000000000000000000000000000000000073ffffffffffffffffffffffffffffffffffffffff16633a0ba6ff836040518263ffffffff1660e01b8152600401610f3a9190612898565b600060405180830381865afa158015610f57573d6000803e3d6000fd5b505050506040513d6000823e3d601f19601f82011682018060405250810190610f809190612a6f565b9050919050565b610f8f611ae0565b7f000000000000000000000000000000000000000000000000000000000000000073ffffffffffffffffffffffffffffffffffffffff1663ee5decf28585856040518463ffffffff1660e01b8152600401610fec93929190612ab8565b600060405180830381865afa158015611009573d6000803e3d6000fd5b505050506040513d6000823e3d601f19601f820116820180604052508101906110329190612bf9565b90509392505050565b611043611b59565b7f000000000000000000000000000000000000000000000000000000000000000073ffffffffffffffffffffffffffffffffffffffff16636835f32c836040518263ffffffff1660e01b815260040161109c9190612c97565b600060405180830381865afa1580156110b9573d6000803e3d6000fd5b505050506040513d6000823e3d601f19601f820116820180604052508101906110e29190612d55565b9050919050565b6110f1611b7c565b600085806020019051810190611107919061339b565b90506000611116868686611975565b90507f000000000000000000000000000000000000000000000000000000000000000073ffffffffffffffffffffffffffffffffffffffff166312b037ff838361115e6105e8565b6040518463ffffffff1660e01b815260040161117c93929190613c52565b600060405180830381865afa158015611199573d6000803e3d6000fd5b505050506040513d6000823e3d601f19601f820116820180604052508101906111c291906140fd565b92505050949350505050565b600080600090505b83606001515181101561126e578260058111156111f6576111f5612821565b5b8460600151828151811061120d5761120c612638565b5b602002602001015160000151600581111561122b5761122a612821565b5b0361125b578360600151818151811061124757611246612638565b5b6020026020010151604001519150506112ac565b808061126690612696565b9150506111d6565b50816040517f267ac2cf0000000000000000000000000000000000000000000000000000000081526004016112a39190612898565b60405180910390fd5b92915050565b6000600580549050905060005b818110156113c857600260008473ffffffffffffffffffffffffffffffffffffffff1673ffffffffffffffffffffffffffffffffffffffff16815260200190815260200160002060006005838154811061131c5761131b612638565b5b90600052602060002090600291828204019190066010029054906101000a900460801b6fffffffffffffffffffffffffffffffff19166fffffffffffffffffffffffffffffffff19168152602001908152602001600020600080820160006101000a8154906fffffffffffffffffffffffffffffffff02191690556000820160106101000a81549060ff02191690556001820160009055505080806113c090612696565b9150506112bf565b505050565b60005b82608001515181101561162a576000836080015182815181106113f6576113f5612638565b5b60200260200101519050600081602001519050600060036000836fffffffffffffffffffffffffffffffff19166fffffffffffffffffffffffffffffffff19168152602001908152602001600020604051806060016040529081600082015481526020016001820160009054906101000a900460801b6fffffffffffffffffffffffffffffffff19166fffffffffffffffffffffffffffffffff1916815260200160028201548152505090506000600260008973ffffffffffffffffffffffffffffffffffffffff1673ffffffffffffffffffffffffffffffffffffffff1681526020019081526020016000206000846fffffffffffffffffffffffffffffffff19166fffffffffffffffffffffffffffffffff191681526020019081526020016000209050600082604001518360000151426115339190614146565b61153d91906141a9565b83604001514261154d91906126de565b6115579190614146565b905082602001518260000160006101000a8154816fffffffffffffffffffffffffffffffff021916908360801c021790555060018260000160106101000a81548160ff021916908315150217905550808260010181905550836fffffffffffffffffffffffffffffffff19168973ffffffffffffffffffffffffffffffffffffffff16887f0e9c826dc2832f02c4183d4ef5ae84466837894e42b97c1a7be69e825fa2138d8460405161160a91906124ad565b60405180910390a45050505050808061162290612696565b9150506113d0565b50505050565b60005b81518110156118ca576000600580549050905060005b818110156118b55783838151811061166457611663612638565b5b60200260200101516fffffffffffffffffffffffffffffffff19166005828154811061169357611692612638565b5b90600052602060002090600291828204019190066010029054906101000a900460801b6fffffffffffffffffffffffffffffffff1916036118a25760056001836116dd9190614146565b815481106116ee576116ed612638565b5b90600052602060002090600291828204019190066010029054906101000a900460801b6005828154811061172557611724612638565b5b90600052602060002090600291828204019190066010026101000a8154816fffffffffffffffffffffffffffffffff021916908360801c02179055506005805480611773576117726141da565b5b60019003818190600052602060002090600291828204019190066010026101000a8154906fffffffffffffffffffffffffffffffff02191690559055600360008585815181106117c6576117c5612638565b5b60200260200101516fffffffffffffffffffffffffffffffff19166fffffffffffffffffffffffffffffffff191681526020019081526020016000206000808201600090556001820160006101000a8154906fffffffffffffffffffffffffffffffff02191690556002820160009055505083838151811061184b5761184a612638565b5b60200260200101516fffffffffffffffffffffffffffffffff19167ffef4feffebebcf904cb9612e4fb69a9e411e2da9569cfcc35a50eac4a2e8cf014260405161189591906124ad565b60405180910390a26118b5565b80806118ad90612696565b915050611649565b505080806118c290612696565b915050611633565b5050565b600033905090565b60008060801b6fffffffffffffffffffffffffffffffff191660036000846fffffffffffffffffffffffffffffffff19166fffffffffffffffffffffffffffffffff1916815260200190815260200160002060010160009054906101000a900460801b6fffffffffffffffffffffffffffffffff191614159050919050565b61195d611bdb565b60405180602001604052808315158152509050919050565b61197d611bf0565b7f000000000000000000000000000000000000000000000000000000000000000073ffffffffffffffffffffffffffffffffffffffff1663992403368585856040518463ffffffff1660e01b81526004016119da9392919061436c565b600060405180830381865afa1580156119f7573d6000803e3d6000fd5b505050506040513d6000823e3d601f19601f82011682018060405250810190611a209190614646565b90509392505050565b604051806060016040528060006fffffffffffffffffffffffffffffffff19168152602001600015158152602001600081525090565b604051806040016040528060006fffffffffffffffffffffffffffffffff19168152602001611a8c611bdb565b81525090565b6040518060c0016040528060006005811115611ab157611ab0612821565b5b815260200160008152602001600015158152602001600015158152602001600015158152602001606081525090565b6040518060e0016040528060006004811115611aff57611afe612821565b5b815260200160006fffffffffffffffffffffffffffffffff1916815260200160006fffffffffffffffffffffffffffffffff1916815260200160008152602001600015158152602001600015158152602001606081525090565b604051806060016040528060608152602001600015158152602001606081525090565b6040518060c0016040528060006fffffffffffffffffffffffffffffffff1916815260200160006fffffffffffffffffffffffffffffffff19168152602001600080191681526020016060815260200160608152602001606081525090565b60405180602001604052806000151581525090565b604051806080016040528060006fffffffffffffffffffffffffffffffff191681526020016060815260200160608152602001611c2b611b59565b81525090565b6000604051905090565b600080fd5b600080fd5b6000819050919050565b611c5881611c45565b8114611c6357600080fd5b50565b600081359050611c7581611c4f565b92915050565b600060208284031215611c9157611c90611c3b565b5b6000611c9f84828501611c66565b91505092915050565b600073ffffffffffffffffffffffffffffffffffffffff82169050919050565b6000819050919050565b6000611ced611ce8611ce384611ca8565b611cc8565b611ca8565b9050919050565b6000611cff82611cd2565b9050919050565b6000611d1182611cf4565b9050919050565b611d2181611d06565b82525050565b6000602082019050611d3c6000830184611d18565b92915050565b6000611d4d82611ca8565b9050919050565b611d5d81611d42565b8114611d6857600080fd5b50565b600081359050611d7a81611d54565b92915050565b600060208284031215611d9657611d95611c3b565b5b6000611da484828501611d6b565b91505092915050565b600081519050919050565b600082825260208201905092915050565b6000819050602082019050919050565b60007fffffffffffffffffffffffffffffffff0000000000000000000000000000000082169050919050565b611e0e81611dd9565b82525050565b60008115159050919050565b611e2981611e14565b82525050565b611e3881611c45565b82525050565b606082016000820151611e546000850182611e05565b506020820151611e676020850182611e20565b506040820151611e7a6040850182611e2f565b50505050565b6000611e8c8383611e3e565b60608301905092915050565b6000602082019050919050565b6000611eb082611dad565b611eba8185611db8565b9350611ec583611dc9565b8060005b83811015611ef6578151611edd8882611e80565b9750611ee883611e98565b925050600181019050611ec9565b5085935050505092915050565b60006020820190508181036000830152611f1d8184611ea5565b905092915050565b600080fd5b6000601f19601f8301169050919050565b7f4e487b7100000000000000000000000000000000000000000000000000000000600052604160045260246000fd5b611f7382611f2a565b810181811067ffffffffffffffff82111715611f9257611f91611f3b565b5b80604052505050565b6000611fa5611c31565b9050611fb18282611f6a565b919050565b600067ffffffffffffffff821115611fd157611fd0611f3b565b5b602082029050602081019050919050565b600080fd5b600080fd5b600080fd5b611ffa81611dd9565b811461200557600080fd5b50565b60008135905061201781611ff1565b92915050565b60006060828403121561203357612032611fe7565b5b61203d6060611f9b565b9050600061204d84828501611c66565b600083015250602061206184828501612008565b602083015250604061207584828501611c66565b60408301525092915050565b600061209461208f84611fb6565b611f9b565b905080838252602082019050606084028301858111156120b7576120b6611fe2565b5b835b818110156120e057806120cc888261201d565b8452602084019350506060810190506120b9565b5050509392505050565b600082601f8301126120ff576120fe611f25565b5b813561210f848260208601612081565b91505092915050565b60006020828403121561212e5761212d611c3b565b5b600082013567ffffffffffffffff81111561214c5761214b611c40565b5b612158848285016120ea565b91505092915050565b6020820160008201516121776000850182611e20565b50505050565b6040820160008201516121936000850182611e05565b5060208201516121a66020850182612161565b50505050565b60006040820190506121c1600083018461217d565b92915050565b6121d081611d42565b82525050565b60006020820190506121eb60008301846121c7565b92915050565b600080fd5b600067ffffffffffffffff82111561221157612210611f3b565b5b61221a82611f2a565b9050602081019050919050565b82818337600083830152505050565b6000612249612244846121f6565b611f9b565b905082815260208101848484011115612265576122646121f1565b5b612270848285612227565b509392505050565b600082601f83011261228d5761228c611f25565b5b813561229d848260208601612236565b91505092915050565b600080604083850312156122bd576122bc611c3b565b5b60006122cb85828601611d6b565b925050602083013567ffffffffffffffff8111156122ec576122eb611c40565b5b6122f885828601612278565b9150509250929050565b61230b81611e14565b82525050565b60006020820190506123266000830184612302565b92915050565b6000806040838503121561234357612342611c3b565b5b600061235185828601611d6b565b925050602061236285828601612008565b9150509250929050565b61237581611dd9565b82525050565b61238481611c45565b82525050565b600060608201905061239f600083018661236c565b6123ac6020830185612302565b6123b9604083018461237b565b949350505050565b600081519050919050565b600082825260208201905092915050565b6000819050602082019050919050565b60006123f98383611e05565b60208301905092915050565b6000602082019050919050565b600061241d826123c1565b61242781856123cc565b9350612432836123dd565b8060005b8381101561246357815161244a88826123ed565b975061245583612405565b925050600181019050612436565b5085935050505092915050565b6000602082019050818103600083015261248a8184612412565b905092915050565b60006020820190506124a7600083018461236c565b92915050565b60006020820190506124c2600083018461237b565b92915050565b6000602082840312156124de576124dd611c3b565b5b60006124ec84828501612008565b91505092915050565b600060608201905061250a600083018661237b565b612517602083018561236c565b612524604083018461237b565b949350505050565b600067ffffffffffffffff82111561254757612546611f3b565b5b602082029050602081019050919050565b600061256b6125668461252c565b611f9b565b9050808382526020820190506020840283018581111561258e5761258d611fe2565b5b835b818110156125b757806125a38882612008565b845260208401935050602081019050612590565b5050509392505050565b600082601f8301126125d6576125d5611f25565b5b81356125e6848260208601612558565b91505092915050565b60006020828403121561260557612604611c3b565b5b600082013567ffffffffffffffff81111561262357612622611c40565b5b61262f848285016125c1565b91505092915050565b7f4e487b7100000000000000000000000000000000000000000000000000000000600052603260045260246000fd5b7f4e487b7100000000000000000000000000000000000000000000000000000000600052601160045260246000fd5b60006126a182611c45565b91507fffffffffffffffffffffffffffffffffffffffffffffffffffffffffffffffff82036126d3576126d2612667565b5b600182019050919050565b60006126e982611c45565b91506126f483611c45565b925082820190508082111561270c5761270b612667565b5b92915050565b600082825260208201905092915050565b7f4f776e61626c653a206e6577206f776e657220697320746865207a65726f206160008201527f6464726573730000000000000000000000000000000000000000000000000000602082015250565b600061277f602683612712565b915061278a82612723565b604082019050919050565b600060208201905081810360008301526127ae81612772565b9050919050565b7f4f776e61626c653a2063616c6c6572206973206e6f7420746865206f776e6572600082015250565b60006127eb602083612712565b91506127f6826127b5565b602082019050919050565b6000602082019050818103600083015261281a816127de565b9050919050565b7f4e487b7100000000000000000000000000000000000000000000000000000000600052602160045260246000fd5b6006811061286157612860612821565b5b50565b600081905061287282612850565b919050565b600061288282612864565b9050919050565b61289281612877565b82525050565b60006020820190506128ad6000830184612889565b92915050565b600681106128c057600080fd5b50565b6000815190506128d2816128b3565b92915050565b6000815190506128e781611c4f565b92915050565b6128f681611e14565b811461290157600080fd5b50565b600081519050612913816128ed565b92915050565b60005b8381101561293757808201518184015260208101905061291c565b60008484015250505050565b6000612956612951846121f6565b611f9b565b905082815260208101848484011115612972576129716121f1565b5b61297d848285612919565b509392505050565b600082601f83011261299a57612999611f25565b5b81516129aa848260208601612943565b91505092915050565b600060c082840312156129c9576129c8611fe7565b5b6129d360c0611f9b565b905060006129e3848285016128c3565b60008301525060206129f7848285016128d8565b6020830152506040612a0b84828501612904565b6040830152506060612a1f84828501612904565b6060830152506080612a3384828501612904565b60808301525060a082015167ffffffffffffffff811115612a5757612a56611fec565b5b612a6384828501612985565b60a08301525092915050565b600060208284031215612a8557612a84611c3b565b5b600082015167ffffffffffffffff811115612aa357612aa2611c40565b5b612aaf848285016129b3565b91505092915050565b6000606082019050612acd600083018661236c565b612ada6020830185612302565b612ae76040830184612302565b949350505050565b60058110612afc57600080fd5b50565b600081519050612b0e81612aef565b92915050565b600081519050612b2381611ff1565b92915050565b600060e08284031215612b3f57612b3e611fe7565b5b612b4960e0611f9b565b90506000612b5984828501612aff565b6000830152506020612b6d84828501612b14565b6020830152506040612b8184828501612b14565b6040830152506060612b95848285016128d8565b6060830152506080612ba984828501612904565b60808301525060a0612bbd84828501612904565b60a08301525060c082015167ffffffffffffffff811115612be157612be0611fec565b5b612bed84828501612985565b60c08301525092915050565b600060208284031215612c0f57612c0e611c3b565b5b600082015167ffffffffffffffff811115612c2d57612c2c611c40565b5b612c3984828501612b29565b91505092915050565b600081519050919050565b600082825260208201905092915050565b6000612c6982612c42565b612c738185612c4d565b9350612c83818560208601612919565b612c8c81611f2a565b840191505092915050565b60006020820190508181036000830152612cb18184612c5e565b905092915050565b600060608284031215612ccf57612cce611fe7565b5b612cd96060611f9b565b9050600082015167ffffffffffffffff811115612cf957612cf8611fec565b5b612d0584828501612985565b6000830152506020612d1984828501612904565b602083015250604082015167ffffffffffffffff811115612d3d57612d3c611fec565b5b612d4984828501612985565b60408301525092915050565b600060208284031215612d6b57612d6a611c3b565b5b600082015167ffffffffffffffff811115612d8957612d88611c40565b5b612d9584828501612cb9565b91505092915050565b6000819050919050565b612db181612d9e565b8114612dbc57600080fd5b50565b600081519050612dce81612da8565b92915050565b600067ffffffffffffffff821115612def57612dee611f3b565b5b602082029050602081019050919050565b600067ffffffffffffffff821115612e1b57612e1a611f3b565b5b602082029050602081019050919050565b600060a08284031215612e4257612e41611fe7565b5b612e4c60a0611f9b565b90506000612e5c848285016128c3565b6000830152506020612e7084828501612904565b6020830152506040612e8484828501612904565b6040830152506060612e98848285016128d8565b606083015250608082015167ffffffffffffffff811115612ebc57612ebb611fec565b5b612ec884828501612985565b60808301525092915050565b6000612ee7612ee284612e00565b611f9b565b90508083825260208201905060208402830185811115612f0a57612f09611fe2565b5b835b81811015612f5157805167ffffffffffffffff811115612f2f57612f2e611f25565b5b808601612f3c8982612e2c565b85526020850194505050602081019050612f0c565b5050509392505050565b600082601f830112612f7057612f6f611f25565b5b8151612f80848260208601612ed4565b91505092915050565b600067ffffffffffffffff821115612fa457612fa3611f3b565b5b602082029050602081019050919050565b600060c08284031215612fcb57612fca611fe7565b5b612fd560c0611f9b565b90506000612fe584828501612aff565b6000830152506020612ff984828501612b14565b602083015250604061300d84828501612b14565b604083015250606061302184828501612904565b6060830152506080613035848285016128d8565b60808301525060a082015167ffffffffffffffff81111561305957613058611fec565b5b61306584828501612985565b60a08301525092915050565b600061308461307f84612f89565b611f9b565b905080838252602082019050602084028301858111156130a7576130a6611fe2565b5b835b818110156130ee57805167ffffffffffffffff8111156130cc576130cb611f25565b5b8086016130d98982612fb5565b855260208501945050506020810190506130a9565b5050509392505050565b600082601f83011261310d5761310c611f25565b5b815161311d848260208601613071565b91505092915050565b600060a0828403121561313c5761313b611fe7565b5b61314660a0611f9b565b9050600082015167ffffffffffffffff81111561316657613165611fec565b5b61317284828501612f5b565b600083015250602082015167ffffffffffffffff81111561319657613195611fec565b5b6131a2848285016130f8565b60208301525060406131b684828501612dbf565b604083015250606082015167ffffffffffffffff8111156131da576131d9611fec565b5b6131e684828501612985565b606083015250608082015167ffffffffffffffff81111561320a57613209611fec565b5b61321684828501612985565b60808301525092915050565b600061323561323084612dd4565b611f9b565b9050808382526020820190506020840283018581111561325857613257611fe2565b5b835b8181101561329f57805167ffffffffffffffff81111561327d5761327c611f25565b5b80860161328a8982613126565b8552602085019450505060208101905061325a565b5050509392505050565b600082601f8301126132be576132bd611f25565b5b81516132ce848260208601613222565b91505092915050565b600060a082840312156132ed576132ec611fe7565b5b6132f760a0611f9b565b9050600061330784828501612b14565b600083015250602061331b84828501612b14565b602083015250604061332f84828501612dbf565b604083015250606082015167ffffffffffffffff81111561335357613352611fec565b5b61335f84828501612985565b606083015250608082015167ffffffffffffffff81111561338357613382611fec565b5b61338f848285016132a9565b60808301525092915050565b6000602082840312156133b1576133b0611c3b565b5b600082015167ffffffffffffffff8111156133cf576133ce611c40565b5b6133db848285016132d7565b91505092915050565b6133ed81612d9e565b82525050565b600082825260208201905092915050565b600061340f82612c42565b61341981856133f3565b9350613429818560208601612919565b61343281611f2a565b840191505092915050565b600081519050919050565b600082825260208201905092915050565b6000819050602082019050919050565b600081519050919050565b600082825260208201905092915050565b6000819050602082019050919050565b61349e81612877565b82525050565b600060a0830160008301516134bc6000860182613495565b5060208301516134cf6020860182611e20565b5060408301516134e26040860182611e20565b5060608301516134f56060860182611e2f565b506080830151848203608086015261350d8282613404565b9150508091505092915050565b600061352683836134a4565b905092915050565b6000602082019050919050565b600061354682613469565b6135508185613474565b93508360208202850161356285613485565b8060005b8581101561359e578484038952815161357f858261351a565b945061358a8361352e565b925060208a01995050600181019050613566565b50829750879550505050505092915050565b600081519050919050565b600082825260208201905092915050565b6000819050602082019050919050565b600581106135ed576135ec612821565b5b50565b60008190506135fe826135dc565b919050565b600061360e826135f0565b9050919050565b61361e81613603565b82525050565b600060c08301600083015161363c6000860182613615565b50602083015161364f6020860182611e05565b5060408301516136626040860182611e05565b5060608301516136756060860182611e20565b5060808301516136886080860182611e2f565b5060a083015184820360a08601526136a08282613404565b9150508091505092915050565b60006136b98383613624565b905092915050565b6000602082019050919050565b60006136d9826135b0565b6136e381856135bb565b9350836020820285016136f5856135cc565b8060005b85811015613731578484038952815161371285826136ad565b945061371d836136c1565b925060208a019950506001810190506136f9565b50829750879550505050505092915050565b600060a0830160008301518482036000860152613760828261353b565b9150506020830151848203602086015261377a82826136ce565b915050604083015161378f60408601826133e4565b50606083015184820360608601526137a78282613404565b915050608083015184820360808601526137c18282613404565b9150508091505092915050565b60006137da8383613743565b905092915050565b6000602082019050919050565b60006137fa8261343d565b6138048185613448565b93508360208202850161381685613459565b8060005b85811015613852578484038952815161383385826137ce565b945061383e836137e2565b925060208a0199505060018101905061381a565b50829750879550505050505092915050565b600060a08301600083015161387c6000860182611e05565b50602083015161388f6020860182611e05565b5060408301516138a260408601826133e4565b50606083015184820360608601526138ba8282613404565b915050608083015184820360808601526138d482826137ef565b9150508091505092915050565b600081519050919050565b600082825260208201905092915050565b6000819050602082019050919050565b600060c0830160008301516139256000860182613495565b5060208301516139386020860182611e2f565b50604083015161394b6040860182611e20565b50606083015161395e6060860182611e20565b5060808301516139716080860182611e20565b5060a083015184820360a08601526139898282613404565b9150508091505092915050565b60006139a2838361390d565b905092915050565b6000602082019050919050565b60006139c2826138e1565b6139cc81856138ec565b9350836020820285016139de856138fd565b8060005b85811015613a1a57848403895281516139fb8582613996565b9450613a06836139aa565b925060208a019950506001810190506139e2565b50829750879550505050505092915050565b600081519050919050565b600082825260208201905092915050565b6000819050602082019050919050565b600060e083016000830151613a706000860182613615565b506020830151613a836020860182611e05565b506040830151613a966040860182611e05565b506060830151613aa96060860182611e2f565b506080830151613abc6080860182611e20565b5060a0830151613acf60a0860182611e20565b5060c083015184820360c0860152613ae78282613404565b9150508091505092915050565b6000613b008383613a58565b905092915050565b6000602082019050919050565b6000613b2082613a2c565b613b2a8185613a37565b935083602082028501613b3c85613a48565b8060005b85811015613b785784840389528151613b598582613af4565b9450613b6483613b08565b925060208a01995050600181019050613b40565b50829750879550505050505092915050565b60006060830160008301518482036000860152613ba78282613404565b9150506020830151613bbc6020860182611e20565b5060408301518482036040860152613bd48282613404565b9150508091505092915050565b6000608083016000830151613bf96000860182611e05565b5060208301518482036020860152613c1182826139b7565b91505060408301518482036040860152613c2b8282613b15565b91505060608301518482036060860152613c458282613b8a565b9150508091505092915050565b60006080820190508181036000830152613c6c8186613864565b90508181036020830152613c808185613be1565b9050613c8f604083018461217d565b949350505050565b600067ffffffffffffffff821115613cb257613cb1611f3b565b5b602082029050602081019050919050565b600060a08284031215613cd957613cd8611fe7565b5b613ce360a0611f9b565b90506000613cf3848285016128c3565b6000830152506020613d0784828501612904565b6020830152506040613d1b848285016128d8565b604083015250606082015167ffffffffffffffff811115613d3f57613d3e611fec565b5b613d4b84828501612985565b606083015250608082015167ffffffffffffffff811115613d6f57613d6e611fec565b5b613d7b84828501612985565b60808301525092915050565b6000613d9a613d9584613c97565b611f9b565b90508083825260208201905060208402830185811115613dbd57613dbc611fe2565b5b835b81811015613e0457805167ffffffffffffffff811115613de257613de1611f25565b5b808601613def8982613cc3565b85526020850194505050602081019050613dbf565b5050509392505050565b600082601f830112613e2357613e22611f25565b5b8151613e33848260208601613d87565b91505092915050565b600067ffffffffffffffff821115613e5757613e56611f3b565b5b602082029050602081019050919050565b600060e08284031215613e7e57613e7d611fe7565b5b613e8860e0611f9b565b90506000613e9884828501612aff565b6000830152506020613eac84828501612b14565b6020830152506040613ec084828501612b14565b6040830152506060613ed4848285016128d8565b606083015250608082015167ffffffffffffffff811115613ef857613ef7611fec565b5b613f0484828501612985565b60808301525060a0613f18848285016128d8565b60a08301525060c082015167ffffffffffffffff811115613f3c57613f3b611fec565b5b613f4884828501612985565b60c08301525092915050565b6000613f67613f6284613e3c565b611f9b565b90508083825260208201905060208402830185811115613f8a57613f89611fe2565b5b835b81811015613fd157805167ffffffffffffffff811115613faf57613fae611f25565b5b808601613fbc8982613e68565b85526020850194505050602081019050613f8c565b5050509392505050565b600082601f830112613ff057613fef611f25565b5b8151614000848260208601613f54565b91505092915050565b600060c0828403121561401f5761401e611fe7565b5b61402960c0611f9b565b9050600061403984828501612b14565b600083015250602061404d84828501612b14565b602083015250604061406184828501612dbf565b604083015250606082015167ffffffffffffffff81111561408557614084611fec565b5b61409184828501613e0e565b606083015250608082015167ffffffffffffffff8111156140b5576140b4611fec565b5b6140c184828501613fdb565b60808301525060a082015167ffffffffffffffff8111156140e5576140e4611fec565b5b6140f184828501612985565b60a08301525092915050565b60006020828403121561411357614112611c3b565b5b600082015167ffffffffffffffff81111561413157614130611c40565b5b61413d84828501614009565b91505092915050565b600061415182611c45565b915061415c83611c45565b925082820390508181111561417457614173612667565b5b92915050565b7f4e487b7100000000000000000000000000000000000000000000000000000000600052601260045260246000fd5b60006141b482611c45565b91506141bf83611c45565b9250826141cf576141ce61417a565b5b828206905092915050565b7f4e487b7100000000000000000000000000000000000000000000000000000000600052603160045260246000fd5b600082825260208201905092915050565b6000614225826138e1565b61422f8185614209565b935083602082028501614241856138fd565b8060005b8581101561427d578484038952815161425e8582613996565b9450614269836139aa565b925060208a01995050600181019050614245565b50829750879550505050505092915050565b600082825260208201905092915050565b60006142ab82613a2c565b6142b5818561428f565b9350836020820285016142c785613a48565b8060005b8581101561430357848403895281516142e48582613af4565b94506142ef83613b08565b925060208a019950506001810190506142cb565b50829750879550505050505092915050565b600060608301600083015184820360008601526143328282613404565b91505060208301516143476020860182611e20565b506040830151848203604086015261435f8282613404565b9150508091505092915050565b60006060820190508181036000830152614386818661421a565b9050818103602083015261439a81856142a0565b905081810360408301526143ae8184614315565b9050949350505050565b600067ffffffffffffffff8211156143d3576143d2611f3b565b5b602082029050602081019050919050565b60006143f76143f2846143b8565b611f9b565b9050808382526020820190506020840283018581111561441a57614419611fe2565b5b835b8181101561446157805167ffffffffffffffff81111561443f5761443e611f25565b5b80860161444c89826129b3565b8552602085019450505060208101905061441c565b5050509392505050565b600082601f8301126144805761447f611f25565b5b81516144908482602086016143e4565b91505092915050565b600067ffffffffffffffff8211156144b4576144b3611f3b565b5b602082029050602081019050919050565b60006144d86144d384614499565b611f9b565b905080838252602082019050602084028301858111156144fb576144fa611fe2565b5b835b8181101561454257805167ffffffffffffffff8111156145205761451f611f25565b5b80860161452d8982612b29565b855260208501945050506020810190506144fd565b5050509392505050565b600082601f83011261456157614560611f25565b5b81516145718482602086016144c5565b91505092915050565b6000608082840312156145905761458f611fe7565b5b61459a6080611f9b565b905060006145aa84828501612b14565b600083015250602082015167ffffffffffffffff8111156145ce576145cd611fec565b5b6145da8482850161446b565b602083015250604082015167ffffffffffffffff8111156145fe576145fd611fec565b5b61460a8482850161454c565b604083015250606082015167ffffffffffffffff81111561462e5761462d611fec565b5b61463a84828501612cb9565b60608301525092915050565b60006020828403121561465c5761465b611c3b565b5b600082015167ffffffffffffffff81111561467a57614679611c40565b5b6146868482850161457a565b9150509291505056fea264697066735822122072abf9c857f82f3abdf2d765f6424f1ec644ccfd9ebef4eff9b65be8e9147bc964736f6c63430008130033",
    "linkReferences": {}
  },
  "methodIdentifiers": {
    "ADDRESSES_PROVIDER_V2()": "46916301",
    "APP_ID()": "c187bbc1",
    "IS_IMPERSONATION_MODE()": "a183dc27",
    "SISMO_CONNECT_LIB_VERSION()": "c9512d99",
    "addDataGroups((uint256,bytes16,uint256)[])": "606b4fc7",
    "bindCredential(address,bytes)": "9a9e4b42",
    "config()": "79502c55",
    "deleteDataGroups(bytes16[])": "f7fe2e28",
    "getCredentialInfo(address,bytes16)": "a30caa5f",
    "getCredentialInfoList(address)": "554b423c",
    "getGroupIds()": "c02b8b2c",
    "getGroupSetup(bytes16)": "ca7a1a36",
    "getRefreshDuration()": "d23c107f",
    "owner()": "8da5cb5b",
    "renounceOwnership()": "715018a6",
    "setRefreshDuration(uint256)": "3d6e3b60",
    "transferOwnership(address)": "f2fde38b"
  },
  "id": 32
}