{
  "_format": "hh-sol-artifact-1",
  "contractName": "FeeFollowModule",
  "sourceName": "contracts/core/modules/follow/FeeFollowModule.sol",
  "abi": [
    {
      "inputs": [
        {
          "internalType": "address",
          "name": "hub",
          "type": "address"
        },
        {
          "internalType": "address",
          "name": "moduleGlobals",
          "type": "address"
        }
      ],
      "stateMutability": "nonpayable",
      "type": "constructor"
    },
    {
      "inputs": [],
      "name": "InitParamsInvalid",
      "type": "error"
    },
    {
      "inputs": [],
      "name": "ModuleDataMismatch",
      "type": "error"
    },
    {
      "inputs": [],
      "name": "NotHub",
      "type": "error"
    },
    {
      "inputs": [],
      "name": "HUB",
      "outputs": [
        {
          "internalType": "address",
          "name": "",
          "type": "address"
        }
      ],
      "stateMutability": "view",
      "type": "function"
    },
    {
      "inputs": [],
      "name": "MODULE_GLOBALS",
      "outputs": [
        {
          "internalType": "address",
          "name": "",
          "type": "address"
        }
      ],
      "stateMutability": "view",
      "type": "function"
    },
    {
      "inputs": [
        {
          "internalType": "uint256",
          "name": "profileId",
          "type": "uint256"
        },
        {
          "internalType": "address",
          "name": "from",
          "type": "address"
        },
        {
          "internalType": "address",
          "name": "to",
          "type": "address"
        },
        {
          "internalType": "uint256",
          "name": "followNFTTokenId",
          "type": "uint256"
        }
      ],
      "name": "followModuleTransferHook",
      "outputs": [],
      "stateMutability": "nonpayable",
      "type": "function"
    },
    {
      "inputs": [
        {
          "internalType": "uint256",
          "name": "profileId",
          "type": "uint256"
        }
      ],
      "name": "getProfileData",
      "outputs": [
        {
          "components": [
            {
              "internalType": "address",
              "name": "currency",
              "type": "address"
            },
            {
              "internalType": "uint256",
              "name": "amount",
              "type": "uint256"
            },
            {
              "internalType": "address",
              "name": "recipient",
              "type": "address"
            }
          ],
          "internalType": "struct ProfileData",
          "name": "",
          "type": "tuple"
        }
      ],
      "stateMutability": "view",
      "type": "function"
    },
    {
      "inputs": [
        {
          "internalType": "uint256",
          "name": "profileId",
          "type": "uint256"
        },
        {
          "internalType": "bytes",
          "name": "data",
          "type": "bytes"
        }
      ],
      "name": "initializeFollowModule",
      "outputs": [
        {
          "internalType": "bytes",
          "name": "",
          "type": "bytes"
        }
      ],
      "stateMutability": "nonpayable",
      "type": "function"
    },
    {
      "inputs": [
        {
          "internalType": "uint256",
          "name": "profileId",
          "type": "uint256"
        },
        {
          "internalType": "address",
          "name": "follower",
          "type": "address"
        },
        {
          "internalType": "uint256",
          "name": "followNFTTokenId",
          "type": "uint256"
        }
      ],
      "name": "isFollowing",
      "outputs": [
        {
          "internalType": "bool",
          "name": "",
          "type": "bool"
        }
      ],
      "stateMutability": "view",
      "type": "function"
    },
    {
      "inputs": [
        {
          "internalType": "address",
          "name": "follower",
          "type": "address"
        },
        {
          "internalType": "uint256",
          "name": "profileId",
          "type": "uint256"
        },
        {
          "internalType": "bytes",
          "name": "data",
          "type": "bytes"
        }
      ],
      "name": "processFollow",
      "outputs": [],
      "stateMutability": "nonpayable",
      "type": "function"
    }
  ],
  "bytecode": "0x60c060405234801561001057600080fd5b50604051610f69380380610f6983398101604081905261002f91610128565b81816001600160a01b038116610058576040516348be0eb360e01b815260040160405180910390fd5b6001600160a01b03811660808190526040514281527f4e84a529f4c627b5e787037d117873af1018768804cca3c7f0d47041fe2c89ed9060200160405180910390a2506001600160a01b0381166100c2576040516348be0eb360e01b815260040160405180910390fd5b6001600160a01b03811660a08190526040514281527ff1a1fa6b64aa95186f5a1285e76198d0da80d9c5a88062641d447f1d7c54e56c9060200160405180910390a250505061015b565b80516001600160a01b038116811461012357600080fd5b919050565b6000806040838503121561013b57600080fd5b6101448361010c565b91506101526020840161010c565b90509250929050565b60805160a051610dc66101a3600039600081816101cb015281816101f80152818161031a01526104a701526000818161016c0152818161061f01526107220152610dc66000f3fe608060405234801561001057600080fd5b506004361061007d5760003560e01c806345b7f60a1161005b57806345b7f60a146100d357806388ffe851146101675780639713958a146101a6578063a4c52b86146101c657600080fd5b80630e096ae1146100825780633cb22cc414610097578063451c3d0c146100ab575b600080fd5b610095610090366004610a53565b6101ed565b005b6100956100a5366004610aaf565b50505050565b6100be6100b9366004610af7565b6102f7565b60405190151581526020015b60405180910390f35b6101376100e1366004610b2f565b604080516060808201835260008083526020808401829052928401819052938452838252928290208251938401835280546001600160a01b03908116855260018201549285019290925260020154169082015290565b6040805182516001600160a01b0390811682526020808501519083015292820151909216908201526060016100ca565b61018e7f000000000000000000000000000000000000000000000000000000000000000081565b6040516001600160a01b0390911681526020016100ca565b6101b96101b4366004610b48565b61049a565b6040516100ca9190610bec565b61018e7f000000000000000000000000000000000000000000000000000000000000000081565b336001600160a01b037f00000000000000000000000000000000000000000000000000000000000000001614610236576040516313bd2e8360e31b815260040160405180910390fd5b6000838152602081905260409020600181015490546001600160a01b0316610260848483856105c0565b60008061026b61061a565b6000898152602081905260408120600201549294509092506001600160a01b03909116906127106102a061ffff851688610c15565b6102aa9190610c34565b905060006102b88288610c56565b90506102cf6001600160a01b0387168c85846106a6565b81156102ea576102ea6001600160a01b0387168c87856106a6565b5050505050505050505050565b60405163a9ec656360e01b81526004810184905260009081906001600160a01b037f0000000000000000000000000000000000000000000000000000000000000000169063a9ec656390602401602060405180830381865afa158015610361573d6000803e3d6000fd5b505050506040513d601f19601f820116820180604052508101906103859190610c6d565b90506001600160a01b03811661039f576000915050610493565b8215610422576040516331a9108f60e11b8152600481018490526001600160a01b038086169190831690636352211e90602401602060405180830381865afa1580156103ef573d6000803e3d6000fd5b505050506040513d601f19601f820116820180604052508101906104139190610c6d565b6001600160a01b03161461048f565b6040516370a0823160e01b81526001600160a01b0385811660048301528216906370a0823190602401602060405180830381865afa158015610468573d6000803e3d6000fd5b505050506040513d601f19601f8201168201806040525081019061048c9190610c8a565b15155b9150505b9392505050565b6060336001600160a01b037f000000000000000000000000000000000000000000000000000000000000000016146104e5576040516313bd2e8360e31b815260040160405180910390fd5b600080806104f585870187610ca3565b92509250925061050482610700565b158061051757506001600160a01b038116155b80610520575082155b1561053e576040516348be0eb360e01b815260040160405180910390fd5b600087815260208181526040918290206001810186905580546001600160a01b038087166001600160a01b031992831617835560029092018054928616929091169190911790558151601f88018290048202810182019092528682528790879081908401838280828437600092019190915250929a9950505050505050505050565b6000806105cf85870187610ce5565b9150915082811415806105f45750836001600160a01b0316826001600160a01b031614155b15610612576040516346308bd560e01b815260040160405180910390fd5b505050505050565b6000807f00000000000000000000000000000000000000000000000000000000000000006001600160a01b03166398f965d16040518163ffffffff1660e01b81526004016040805180830381865afa15801561067a573d6000803e3d6000fd5b505050506040513d601f19601f8201168201806040525081019061069e9190610d11565b915091509091565b604080516001600160a01b0385811660248301528416604482015260648082018490528251808303909101815260849091019091526020810180516001600160e01b03166323b872dd60e01b1790526100a5908590610795565b6040516343b938c560e01b81526001600160a01b0382811660048301526000917f0000000000000000000000000000000000000000000000000000000000000000909116906343b938c590602401602060405180830381865afa15801561076b573d6000803e3d6000fd5b505050506040513d601f19601f8201168201806040525081019061078f9190610d52565b92915050565b60006107ea826040518060400160405280602081526020017f5361666545524332303a206c6f772d6c6576656c2063616c6c206661696c6564815250856001600160a01b03166108719092919063ffffffff16565b80519091501561086c57808060200190518101906108089190610d52565b61086c5760405162461bcd60e51b815260206004820152602a60248201527f5361666545524332303a204552433230206f7065726174696f6e20646964206e6044820152691bdd081cdd58d8d9595960b21b60648201526084015b60405180910390fd5b505050565b60606108808484600085610888565b949350505050565b6060824710156108e95760405162461bcd60e51b815260206004820152602660248201527f416464726573733a20696e73756666696369656e742062616c616e636520666f6044820152651c8818d85b1b60d21b6064820152608401610863565b6001600160a01b0385163b6109405760405162461bcd60e51b815260206004820152601d60248201527f416464726573733a2063616c6c20746f206e6f6e2d636f6e74726163740000006044820152606401610863565b600080866001600160a01b0316858760405161095c9190610d74565b60006040518083038185875af1925050503d8060008114610999576040519150601f19603f3d011682016040523d82523d6000602084013e61099e565b606091505b50915091506109ae8282866109b9565b979650505050505050565b606083156109c8575081610493565b8251156109d85782518084602001fd5b8160405162461bcd60e51b81526004016108639190610bec565b6001600160a01b0381168114610a0757600080fd5b50565b60008083601f840112610a1c57600080fd5b50813567ffffffffffffffff811115610a3457600080fd5b602083019150836020828501011115610a4c57600080fd5b9250929050565b60008060008060608587031215610a6957600080fd5b8435610a74816109f2565b935060208501359250604085013567ffffffffffffffff811115610a9757600080fd5b610aa387828801610a0a565b95989497509550505050565b60008060008060808587031215610ac557600080fd5b843593506020850135610ad7816109f2565b92506040850135610ae7816109f2565b9396929550929360600135925050565b600080600060608486031215610b0c57600080fd5b833592506020840135610b1e816109f2565b929592945050506040919091013590565b600060208284031215610b4157600080fd5b5035919050565b600080600060408486031215610b5d57600080fd5b83359250602084013567ffffffffffffffff811115610b7b57600080fd5b610b8786828701610a0a565b9497909650939450505050565b60005b83811015610baf578181015183820152602001610b97565b838111156100a55750506000910152565b60008151808452610bd8816020860160208601610b94565b601f01601f19169290920160200192915050565b6020815260006104936020830184610bc0565b634e487b7160e01b600052601160045260246000fd5b6000816000190483118215151615610c2f57610c2f610bff565b500290565b600082610c5157634e487b7160e01b600052601260045260246000fd5b500490565b600082821015610c6857610c68610bff565b500390565b600060208284031215610c7f57600080fd5b8151610493816109f2565b600060208284031215610c9c57600080fd5b5051919050565b600080600060608486031215610cb857600080fd5b833592506020840135610cca816109f2565b91506040840135610cda816109f2565b809150509250925092565b60008060408385031215610cf857600080fd5b8235610d03816109f2565b946020939093013593505050565b60008060408385031215610d2457600080fd5b8251610d2f816109f2565b602084015190925061ffff81168114610d4757600080fd5b809150509250929050565b600060208284031215610d6457600080fd5b8151801515811461049357600080fd5b60008251610d86818460208701610b94565b919091019291505056fea264697066735822122005a14fd69dea4b14654fe1707e73bdce3982a76768f22fad8f5af18349215f0a64736f6c634300080a0033",
  "linkReferences": {},
  "deployedLinkReferences": {}
}