{
  "_format": "hh-sol-artifact-1",
  "contractName": "ProfileFollowModule",
  "sourceName": "contracts/core/modules/follow/ProfileFollowModule.sol",
  "abi": [
    {
      "inputs": [
        {
          "internalType": "address",
          "name": "hub",
          "type": "address"
        }
      ],
      "stateMutability": "nonpayable",
      "type": "constructor"
    },
    {
      "inputs": [],
      "name": "FollowInvalid",
      "type": "error"
    },
    {
      "inputs": [],
      "name": "InitParamsInvalid",
      "type": "error"
    },
    {
      "inputs": [],
      "name": "NotHub",
      "type": "error"
    },
    {
      "inputs": [],
      "name": "NotProfileOwner",
      "type": "error"
    },
    {
      "inputs": [],
      "name": "HUB",
      "outputs": [
        {
          "internalType": "address",
          "name": "",
          "type": "address"
        }
      ],
      "stateMutability": "view",
      "type": "function"
    },
    {
      "inputs": [
        {
          "internalType": "uint256",
          "name": "profileId",
          "type": "uint256"
        },
        {
          "internalType": "address",
          "name": "from",
          "type": "address"
        },
        {
          "internalType": "address",
          "name": "to",
          "type": "address"
        },
        {
          "internalType": "uint256",
          "name": "followNFTTokenId",
          "type": "uint256"
        }
      ],
      "name": "followModuleTransferHook",
      "outputs": [],
      "stateMutability": "nonpayable",
      "type": "function"
    },
    {
      "inputs": [
        {
          "internalType": "uint256",
          "name": "profileId",
          "type": "uint256"
        },
        {
          "internalType": "bytes",
          "name": "data",
          "type": "bytes"
        }
      ],
      "name": "initializeFollowModule",
      "outputs": [
        {
          "internalType": "bytes",
          "name": "",
          "type": "bytes"
        }
      ],
      "stateMutability": "nonpayable",
      "type": "function"
    },
    {
      "inputs": [
        {
          "internalType": "uint256",
          "name": "profileId",
          "type": "uint256"
        },
        {
          "internalType": "address",
          "name": "follower",
          "type": "address"
        },
        {
          "internalType": "uint256",
          "name": "followNFTTokenId",
          "type": "uint256"
        }
      ],
      "name": "isFollowing",
      "outputs": [
        {
          "internalType": "bool",
          "name": "",
          "type": "bool"
        }
      ],
      "stateMutability": "view",
      "type": "function"
    },
    {
      "inputs": [
        {
          "internalType": "uint256",
          "name": "",
          "type": "uint256"
        },
        {
          "internalType": "uint256",
          "name": "",
          "type": "uint256"
        }
      ],
      "name": "isProfileFollowing",
      "outputs": [
        {
          "internalType": "bool",
          "name": "",
          "type": "bool"
        }
      ],
      "stateMutability": "view",
      "type": "function"
    },
    {
      "inputs": [
        {
          "internalType": "address",
          "name": "follower",
          "type": "address"
        },
        {
          "internalType": "uint256",
          "name": "profileId",
          "type": "uint256"
        },
        {
          "internalType": "bytes",
          "name": "data",
          "type": "bytes"
        }
      ],
      "name": "processFollow",
      "outputs": [],
      "stateMutability": "nonpayable",
      "type": "function"
    }
  ],
  "bytecode": "0x60a060405234801561001057600080fd5b5060405161084d38038061084d83398101604081905261002f916100a0565b806001600160a01b038116610057576040516348be0eb360e01b815260040160405180910390fd5b6001600160a01b03811660808190526040514281527ff1a1fa6b64aa95186f5a1285e76198d0da80d9c5a88062641d447f1d7c54e56c9060200160405180910390a250506100d0565b6000602082840312156100b257600080fd5b81516001600160a01b03811681146100c957600080fd5b9392505050565b6080516107476101066000396000818160dd0152818161014d015281816101a7015281816102e0015261046d01526107476000f3fe608060405234801561001057600080fd5b50600436106100625760003560e01c80630e096ae1146100675780633cb22cc41461007c578063451c3d0c146100905780639713958a146100b8578063a4c52b86146100d8578063f2c53a6c14610117575b600080fd5b61007a610075366004610523565b610142565b005b61007a61008a36600461057f565b50505050565b6100a361009e3660046105c7565b6102bd565b60405190151581526020015b60405180910390f35b6100cb6100c63660046105ff565b610460565b6040516100af919061064b565b6100ff7f000000000000000000000000000000000000000000000000000000000000000081565b6040516001600160a01b0390911681526020016100af565b6100a36101253660046106a0565b600060208181529281526040808220909352908152205460ff1681565b336001600160a01b037f0000000000000000000000000000000000000000000000000000000000000000161461018b576040516313bd2e8360e31b815260040160405180910390fd5b6000610199828401846106c2565b9050846001600160a01b03167f00000000000000000000000000000000000000000000000000000000000000006001600160a01b0316636352211e836040518263ffffffff1660e01b81526004016101f391815260200190565b602060405180830381865afa158015610210573d6000803e3d6000fd5b505050506040513d601f19601f8201168201806040525081019061023491906106db565b6001600160a01b03161461025b5760405163f194fae560e01b815260040160405180910390fd5b60008181526020818152604080832087845290915290205460ff161561029457604051636992d36b60e11b815260040160405180910390fd5b6000818152602081815260408083208784529091529020805460ff191660011790555050505050565b60405163a9ec656360e01b81526004810184905260009081906001600160a01b037f0000000000000000000000000000000000000000000000000000000000000000169063a9ec656390602401602060405180830381865afa158015610327573d6000803e3d6000fd5b505050506040513d601f19601f8201168201806040525081019061034b91906106db565b90506001600160a01b038116610365576000915050610459565b82156103e8576040516331a9108f60e11b8152600481018490526001600160a01b038086169190831690636352211e90602401602060405180830381865afa1580156103b5573d6000803e3d6000fd5b505050506040513d601f19601f820116820180604052508101906103d991906106db565b6001600160a01b031614610455565b6040516370a0823160e01b81526001600160a01b0385811660048301528216906370a0823190602401602060405180830381865afa15801561042e573d6000803e3d6000fd5b505050506040513d601f19601f8201168201806040525081019061045291906106f8565b15155b9150505b9392505050565b6060336001600160a01b037f000000000000000000000000000000000000000000000000000000000000000016146104ab576040516313bd2e8360e31b815260040160405180910390fd5b505060408051600081526020810190915292915050565b6001600160a01b03811681146104d757600080fd5b50565b60008083601f8401126104ec57600080fd5b50813567ffffffffffffffff81111561050457600080fd5b60208301915083602082850101111561051c57600080fd5b9250929050565b6000806000806060858703121561053957600080fd5b8435610544816104c2565b935060208501359250604085013567ffffffffffffffff81111561056757600080fd5b610573878288016104da565b95989497509550505050565b6000806000806080858703121561059557600080fd5b8435935060208501356105a7816104c2565b925060408501356105b7816104c2565b9396929550929360600135925050565b6000806000606084860312156105dc57600080fd5b8335925060208401356105ee816104c2565b929592945050506040919091013590565b60008060006040848603121561061457600080fd5b83359250602084013567ffffffffffffffff81111561063257600080fd5b61063e868287016104da565b9497909650939450505050565b600060208083528351808285015260005b818110156106785785810183015185820160400152820161065c565b8181111561068a576000604083870101525b50601f01601f1916929092016040019392505050565b600080604083850312156106b357600080fd5b50508035926020909101359150565b6000602082840312156106d457600080fd5b5035919050565b6000602082840312156106ed57600080fd5b8151610459816104c2565b60006020828403121561070a57600080fd5b505191905056fea2646970667358221220c00141120bf0d291c8c3fbc547d76cf1ee75770541fc378233e5d5719071464264736f6c634300080a0033",
  "linkReferences": {},
  "deployedLinkReferences": {}
}