{
  "_format": "hh-sol-artifact-1",
  "contractName": "RevertFollowModule",
  "sourceName": "contracts/core/modules/follow/RevertFollowModule.sol",
  "abi": [
    {
      "inputs": [
        {
          "internalType": "address",
          "name": "hub",
          "type": "address"
        }
      ],
      "stateMutability": "nonpayable",
      "type": "constructor"
    },
    {
      "inputs": [],
      "name": "FollowInvalid",
      "type": "error"
    },
    {
      "inputs": [],
      "name": "InitParamsInvalid",
      "type": "error"
    },
    {
      "inputs": [],
      "name": "NotHub",
      "type": "error"
    },
    {
      "inputs": [],
      "name": "HUB",
      "outputs": [
        {
          "internalType": "address",
          "name": "",
          "type": "address"
        }
      ],
      "stateMutability": "view",
      "type": "function"
    },
    {
      "inputs": [
        {
          "internalType": "uint256",
          "name": "profileId",
          "type": "uint256"
        },
        {
          "internalType": "address",
          "name": "from",
          "type": "address"
        },
        {
          "internalType": "address",
          "name": "to",
          "type": "address"
        },
        {
          "internalType": "uint256",
          "name": "followNFTTokenId",
          "type": "uint256"
        }
      ],
      "name": "followModuleTransferHook",
      "outputs": [],
      "stateMutability": "nonpayable",
      "type": "function"
    },
    {
      "inputs": [
        {
          "internalType": "uint256",
          "name": "profileId",
          "type": "uint256"
        },
        {
          "internalType": "bytes",
          "name": "data",
          "type": "bytes"
        }
      ],
      "name": "initializeFollowModule",
      "outputs": [
        {
          "internalType": "bytes",
          "name": "",
          "type": "bytes"
        }
      ],
      "stateMutability": "view",
      "type": "function"
    },
    {
      "inputs": [
        {
          "internalType": "uint256",
          "name": "profileId",
          "type": "uint256"
        },
        {
          "internalType": "address",
          "name": "follower",
          "type": "address"
        },
        {
          "internalType": "uint256",
          "name": "followNFTTokenId",
          "type": "uint256"
        }
      ],
      "name": "isFollowing",
      "outputs": [
        {
          "internalType": "bool",
          "name": "",
          "type": "bool"
        }
      ],
      "stateMutability": "view",
      "type": "function"
    },
    {
      "inputs": [
        {
          "internalType": "address",
          "name": "follower",
          "type": "address"
        },
        {
          "internalType": "uint256",
          "name": "profileId",
          "type": "uint256"
        },
        {
          "internalType": "bytes",
          "name": "data",
          "type": "bytes"
        }
      ],
      "name": "processFollow",
      "outputs": [],
      "stateMutability": "view",
      "type": "function"
    }
  ],
  "bytecode": "0x60a060405234801561001057600080fd5b506040516106bc3803806106bc83398101604081905261002f916100a0565b806001600160a01b038116610057576040516348be0eb360e01b815260040160405180910390fd5b6001600160a01b03811660808190526040514281527ff1a1fa6b64aa95186f5a1285e76198d0da80d9c5a88062641d447f1d7c54e56c9060200160405180910390a250506100d0565b6000602082840312156100b257600080fd5b81516001600160a01b03811681146100c957600080fd5b9392505050565b6080516105bd6100ff6000396000818160d20152818161011701528181610191015261031e01526105bd6000f3fe608060405234801561001057600080fd5b50600436106100575760003560e01c80630e096ae11461005c5780633cb22cc414610071578063451c3d0c146100855780639713958a146100ad578063a4c52b86146100cd575b600080fd5b61006f61006a3660046103d4565b61010c565b005b61006f61007f366004610430565b50505050565b610098610093366004610478565b61016e565b60405190151581526020015b60405180910390f35b6100c06100bb3660046104b0565b610311565b6040516100a491906104fc565b6100f47f000000000000000000000000000000000000000000000000000000000000000081565b6040516001600160a01b0390911681526020016100a4565b336001600160a01b037f00000000000000000000000000000000000000000000000000000000000000001614610155576040516313bd2e8360e31b815260040160405180910390fd5b604051636992d36b60e11b815260040160405180910390fd5b60405163a9ec656360e01b81526004810184905260009081906001600160a01b037f0000000000000000000000000000000000000000000000000000000000000000169063a9ec656390602401602060405180830381865afa1580156101d8573d6000803e3d6000fd5b505050506040513d601f19601f820116820180604052508101906101fc9190610551565b90506001600160a01b03811661021657600091505061030a565b8215610299576040516331a9108f60e11b8152600481018490526001600160a01b038086169190831690636352211e90602401602060405180830381865afa158015610266573d6000803e3d6000fd5b505050506040513d601f19601f8201168201806040525081019061028a9190610551565b6001600160a01b031614610306565b6040516370a0823160e01b81526001600160a01b0385811660048301528216906370a0823190602401602060405180830381865afa1580156102df573d6000803e3d6000fd5b505050506040513d601f19601f82011682018060405250810190610303919061056e565b15155b9150505b9392505050565b6060336001600160a01b037f0000000000000000000000000000000000000000000000000000000000000000161461035c576040516313bd2e8360e31b815260040160405180910390fd5b505060408051600081526020810190915292915050565b6001600160a01b038116811461038857600080fd5b50565b60008083601f84011261039d57600080fd5b50813567ffffffffffffffff8111156103b557600080fd5b6020830191508360208285010111156103cd57600080fd5b9250929050565b600080600080606085870312156103ea57600080fd5b84356103f581610373565b935060208501359250604085013567ffffffffffffffff81111561041857600080fd5b6104248782880161038b565b95989497509550505050565b6000806000806080858703121561044657600080fd5b84359350602085013561045881610373565b9250604085013561046881610373565b9396929550929360600135925050565b60008060006060848603121561048d57600080fd5b83359250602084013561049f81610373565b929592945050506040919091013590565b6000806000604084860312156104c557600080fd5b83359250602084013567ffffffffffffffff8111156104e357600080fd5b6104ef8682870161038b565b9497909650939450505050565b600060208083528351808285015260005b818110156105295785810183015185820160400152820161050d565b8181111561053b576000604083870101525b50601f01601f1916929092016040019392505050565b60006020828403121561056357600080fd5b815161030a81610373565b60006020828403121561058057600080fd5b505191905056fea2646970667358221220b078786dada420672cae209bdf109cbe667589d193ecd9ec3f89a71cb077c25964736f6c634300080a0033",
  "linkReferences": {},
  "deployedLinkReferences": {}
}